:020000040800F2
:100000000000022045AD0008B56A0108B76A010882
:10001000B96A0108BB6A0108BD6A01080000000056
:10002000000000000000000000000000BF6A01089E
:10003000C16A010800000000C36A01086DEA0008F7
:1000400001AE000801AE000801AE000801AE0008D4
:1000500001AE000801AE000801AE000801AE0008C4
:1000600001AE000801AE000801AE000801AE0008B4
:1000700001AE000801AE0008F9F7000801AE000863
:1000800001AE000805F5000801AE000801AE000849
:1000900001AE000801AE000801AE000801AE000884
:1000A00001AE000801AE000801AE0008C1DB000887
:1000B00001AE000801AE000819DB000825D30008D6
:1000C00015D5000829D3000819D5000801AE00088D
:1000D00001AE000801AE000801AE0008EDD900082D
:1000E00001AE000801AE0008C56A010801AE0008B3
:1000F00001AE000801AE000801AE000801AE000824
:1001000001AE000801AE000801AE000801AE000813
:100110001DE2000801AE000849E2000801AE000837
:1001200001AE000801AE000801AE000801AE0008F3
:1001300001AE000801AE000801AE000801AE0008E3
:1001400001AE000801AE000801AE0008F56A010822
:1001500001AE000801AE0008DDF1000801AE0008A4
:1001600001AE000801AE000801AE000801AE0008B3
:1001700001AE000801AE000801AE000801AE0008A3
:0801800001AE000801AE000809
:1080000010B5054C237833B9044B13B10448AFF3D2
:1080100000800123237010BD280C00200000000008
:1080200090EC020808B5064B1BB106480649AFF3B1
:1080300000800648036813B1054B03B1984708BD9B
:108040000000000090EC02082C0C0020280C0020FE
:108050000000000081F0004102E000BF83F0004317
:1080600030B54FEA41044FEA430594EA050F08BFD3
:1080700090EA020F1FBF54EA000C55EA020C7FEA97
:10808000645C7FEA655C00F0E2804FEA5454D4EB14
:108090005555B8BF6D420CDD2C4480EA020281EADE
:1080A000030382EA000083EA010180EA020281EA16
:1080B0000303362D88BF30BD11F0004F4FEA013168
:1080C0004FF4801C4CEA113102D0404261EB410177
:1080D00013F0004F4FEA03334CEA133302D05242FD
:1080E00063EB430394EA050F00F0A780A4F10104B9
:1080F000D5F1200E0DDB02FA0EFC22FA05F28018F3
:1081000041F1000103FA0EF2801843FA05F35941D8
:108110000EE0A5F120050EF1200E012A03FA0EFC57
:1081200028BF4CF0020C43FA05F3C01851EBE37181
:1081300001F0004507D54FF0000EDCF1000C7EEB9E
:1081400000006EEB0101B1F5801F1BD3B1F5001FDC
:108150000CD349085FEA30004FEA3C0C04F10104FB
:108160004FEA445212F5800F80F09A80BCF1004F24
:1081700008BF5FEA500C50F1000041EB045141EAA6
:10818000050130BD5FEA4C0C404141EB010111F4A7
:10819000801FA4F10104E9D191F0000F04BF014652
:1081A0000020B1FA81F308BF2033A3F10B03B3F130
:1081B00020020CDA0C3208DD02F1140CC2F10C02C0
:1081C00001FA0CF021FA02F10CE002F11402D8BF1E
:1081D000C2F1200C01FA02F120FA0CFCDCBF41EAEA
:1081E0000C019040E41AA2BF01EB0451294330BDB9
:1081F0006FEA04041F3C1CDA0C340EDC04F1140496
:10820000C4F1200220FA04F001FA02F340EA03006C
:1082100021FA04F345EA030130BDC4F10C04C4F1B2
:10822000200220FA02F001FA04F340EA0300294692
:1082300030BD21FA04F0294630BD94F0000F83F4DC
:10824000801306BF81F480110134013D4EE77FEABF
:10825000645C18BF7FEA655C29D094EA050F08BF0B
:1082600090EA020F05D054EA000C04BF19461046EC
:1082700030BD91EA030F1EBF0021002030BD5FEA30
:10828000545C05D14000494128BF41F0004130BD58
:1082900014F580043CBF01F5801130BD01F00045AC
:1082A00045F0FE4141F470014FF0000030BD7FEA1F
:1082B000645C1ABF194610467FEA655C1CBF0B461A
:1082C000024650EA013406BF52EA033591EA030F31
:1082D00041F4002130BD00BF90F0000F04BF002129
:1082E000704730B54FF4806404F132044FF000055C
:1082F0004FF0000150E700BF90F0000F04BF0021D5
:10830000704730B54FF4806404F1320410F000453A
:1083100048BF40424FF000013EE700BF42004FEA35
:10832000E2014FEA31014FEA02701FBF12F07F43B2
:1083300093F07F4F81F06051704792F0000F14BFAF
:1083400093F07F4F704730B54FF4607401F00045F3
:1083500021F0004120E700BF50EA010208BF70474A
:1083600030B54FF000050AE050EA010208BF70473F
:1083700030B511F0004502D5404261EB41014FF4A8
:10838000806404F132045FEA915C3FF4DCAE4FF0AC
:1083900003025FEADC0C18BF03325FEADC0C18BF93
:1083A000033202EBDC02C2F1200300FA03FC20FAE4
:1083B00002F001FA03FE40EA0E0021FA02F1144431
:1083C000C1E600BF70B54FF0FF0C4CF4E06C1CEA46
:1083D00011541DBF1CEA135594EA0C0F95EA0C0FBB
:1083E00000F0DEF82C4481EA030621EA4C5123EA2E
:1083F0004C5350EA013518BF52EA033541F480115D
:1084000043F4801338D0A0FB02CE4FF00005E1FB0F
:1084100002E506F00042E0FB03E54FF00006E1FB59
:1084200003569CF0000F18BF4EF0010EA4F1FF049C
:10843000B6F5007F64F5407404D25FEA4E0E6D41DC
:1084400046EB060642EAC62141EA55514FEAC520ED
:1084500040EA5E504FEACE2EB4F1FD0C88BFBCF569
:10846000E06F1ED8BEF1004F08BF5FEA500E50F11A
:10847000000041EB045170BD06F0004646EA0101E0
:1084800040EA020081EA0301B4EB5C04C2BFD4EB12
:108490000C0541EA045170BD41F480114FF0000E0B
:1084A000013C00F3AB8014F1360FDEBF002001F079
:1084B000004170BDC4F10004203C35DA0C341BDCF3
:1084C00004F11404C4F1200500FA05F320FA04F0C5
:1084D00001FA05F240EA020001F0004221F00041F9
:1084E00010EBD37021FA04F642EB06015EEA430E6C
:1084F00008BF20EAD37070BDC4F10C04C4F120059C
:1085000000FA04F320FA05F001FA04F240EA02004E
:1085100001F0004110EBD37041F100015EEA430E1F
:1085200008BF20EAD37070BDC4F1200500FA05F23F
:108530004EEA020E20FA04F301FA05F243EA0203BE
:1085400021FA04F001F0004121FA04F220EA0200CD
:1085500000EBD3705EEA430E08BF20EAD37070BD13
:1085600094F0000F0FD101F00046400041EB0101F3
:1085700011F4801F08BF013CF7D041EA060195F0D5
:10858000000F18BF704703F00046520043EB03038F
:1085900013F4801F08BF013DF7D043EA060370477C
:1085A00094EA0C0F0CEA135518BF95EA0C0F0CD087
:1085B00050EA410618BF52EA4306D1D181EA0301CD
:1085C00001F000414FF0000070BD50EA410606BFC7
:1085D0001046194652EA430619D094EA0C0F02D10C
:1085E00050EA013613D195EA0C0F05D152EA033651
:1085F0001CBF104619460AD181EA030101F000416F
:1086000041F0FE4141F470014FF0000070BD41F0B7
:10861000FE4141F4780170BD70B54FF0FF0C4CF491
:10862000E06C1CEA11541DBF1CEA135594EA0C0FB0
:1086300095EA0C0F00F0A7F8A4EB050481EA030EFD
:1086400052EA03354FEA013100F088804FEA0333E4
:108650004FF0805545EA131343EA12634FEA0222B2
:1086600045EA111545EA10654FEA00260EF0004173
:108670009D4208BF964244F1FD0404F5407402D2C5
:108680005B084FEA3202B61A65EB03055B084FEA56
:1086900032024FF480104FF4002CB6EB020E75EB53
:1086A000030E22BFB61A754640EA0C005B084FEA7B
:1086B0003202B6EB020E75EB030E22BFB61A7546F8
:1086C00040EA5C005B084FEA3202B6EB020E75EB43
:1086D000030E22BFB61A754640EA9C005B084FEABB
:1086E0003202B6EB020E75EB030E22BFB61A7546C8
:1086F00040EADC0055EA060E18D04FEA051545EAB7
:1087000016754FEA06164FEAC30343EA52734FEA5F
:10871000C2025FEA1C1CC0D111F4801F0BD141EAD8
:1087200000014FF000004FF0004CB6E711F4801F3D
:1087300004BF01430020B4F1FD0C88BFBCF5E06F1D
:108740003FF6AFAEB5EB030C04BFB6EB020C5FEA2D
:10875000500C50F1000041EB045170BD0EF0004E82
:108760004EEA113114EB5C04C2BFD4EB0C0541EAB4
:10877000045170BD41F480114FF0000E013C90E6B1
:1087800045EA060E8DE60CEA135594EA0C0F08BF75
:1087900095EA0C0F3FF43BAF94EA0C0F0AD150EA74
:1087A00001347FF434AF95EA0C0F7FF425AF104607
:1087B00019462CE795EA0C0F06D152EA03353FF42F
:1087C000FDAE1046194622E750EA410618BF52EAAC
:1087D00043067FF4C5AE50EA41047FF40DAF52EA80
:1087E00043057FF4EBAE12E74FF0FF3C06E000BF1D
:1087F0004FF0010C02E000BF4FF0010C4DF804CD2A
:108800004FEA410C7FEA6C5C4FEA430C18BF7FEAE9
:108810006C5C1BD001B050EA410C0CBF52EA430C17
:1088200091EA030F02BF90EA020F0020704710F197
:10883000000F91EA030F58BF994208BF90422CBF26
:10884000D8176FEAE37040F0010070474FEA410C1F
:108850007FEA6C5C02D150EA013C07D14FEA430C3D
:108860007FEA6C5CD6D152EA033CD3D05DF8040BAE
:10887000704700BF8446104662468C4619466346E0
:1088800000E000BF01B5FFF7B7FF002848BF10F1B7
:10889000000F01BD4DF808EDFFF7F4FF0CBF0120FC
:1088A00000205DF808FB00BF4DF808EDFFF7EAFF78
:1088B00034BF012000205DF808FB00BF4DF808ED33
:1088C000FFF7E0FF94BF012000205DF808FB00BF28
:1088D0004DF808EDFFF7CEFF94BF012000205DF8B2
:1088E00008FB00BF4DF808EDFFF7C4FF34BF0120BF
:1088F00000205DF808FB00BF4FEA410212F50012AC
:1089000015D211D56FF47873B3EB625212D94FEAD6
:10891000C12343F0004343EA505311F0004F23FAC0
:1089200002F018BF404270474FF00000704750EA15
:10893000013005D111F0004008BF6FF000407047D2
:108940004FF00000704700BF4FEA4102B2F1E04330
:1089500024BFB3F5001CDCF1FE5C0DD901F0004C26
:108960004FEAC0024CEA5070B2F1004F40EB830076
:1089700008BF20F00100704711F0804F21D113F1A2
:108980003872BCBF01F00040704741F480114FEADB
:108990005252C2F11802C2F1200C10FA0CF320FA64
:1089A00002F018BF40F001004FEAC1234FEAD32381
:1089B00003FA0CFC40EA0C0023FA02F34FEA4303EB
:1089C000CCE77FEA625307D150EA01331EBF4FF074
:1089D000FE4040F44000704701F0004040F0FE408F
:1089E00040F40000704700BF844641EA000313F0E2
:1089F00003036DD1403A41D351F8043B40F8043BA6
:108A000051F8043B40F8043B51F8043B40F8043B68
:108A100051F8043B40F8043B51F8043B40F8043B58
:108A200051F8043B40F8043B51F8043B40F8043B48
:108A300051F8043B40F8043B51F8043B40F8043B38
:108A400051F8043B40F8043B51F8043B40F8043B28
:108A500051F8043B40F8043B51F8043B40F8043B18
:108A600051F8043B40F8043B51F8043B40F8043B08
:108A700051F8043B40F8043B403ABDD2303211D3A8
:108A800051F8043B40F8043B51F8043B40F8043BE8
:108A900051F8043B40F8043B51F8043B40F8043BD8
:108AA000103AEDD20C3205D351F8043B40F8043BA8
:108AB000043AF9D2043208D0D2071CBF11F8013BA6
:108AC00000F8013B01D30B8803806046704700BF6C
:108AD000082A13D38B078DD010F003038AD0C3F17B
:108AE0000403D21ADB071CBF11F8013B00F8013B5D
:108AF00080D331F8023B20F8023B7BE7043AD9D31C
:108B0000013A11F8013B00F8013BF9D20B780370F0
:108B10004B7843708B788370604670474BB942B98D
:108B2000002908BF002802D04FF0FF31084600F0AE
:108B30003BB882B0EC462DE9005000F01DF8DDF89E
:108B400004E002B00CBC70472DE97043069E144649
:108B50001D468046894600F029F804FB01F300FB1E
:108B60000533A4FB00451D44B8EB040469EB05057F
:108B7000C6E90045BDE870832DE97043069E1446A2
:108B8000804689461D4600F05DF900FB05F504FBB3
:108B90000153A0FB04451D44B8EB040469EB050533
:108BA000C6E90045BDE87083704700BF00292DE984
:108BB000F00FC0F29F800024002BC0F29680154673
:108BC00006460F46002B3ED18A4257D9B2FA82F3AD
:108BD0004BB1C3F1200201FA03F720FA02F29D40E3
:108BE000174300FA03F6290CB7FBF1F2330C01FB33
:108BF000127CA8B243EA0C4700FB02F3BB4209D93E
:108C00007F1902F1FF3C80F00181BB4240F2FE80FF
:108C1000023A2F44FF1AB7FBF1F3B6B201FB13710E
:108C200046EA014100FB03F0884208D9491903F1E3
:108C3000FF3780F0ED80884240F2EA80023B43EA51
:108C40000242002303E08B420AD900231A46104651
:108C5000194614B1404261EB4101BDE8F00F704785
:108C6000B3FA83F8B8F1000F40F084808B4202D34E
:108C7000824200F2DE8000230122E8E712B90123DC
:108C8000B3FBF2F5B5FA85F2002A39D17F1B280C27
:108C90001FFA85FC0123B7FBF0F1320C00FB1177C2
:108CA00042EA07470CFB01F2BA4207D97F1901F1EA
:108CB000FF3802D2BA4200F2C1804146BF1AB7FB68
:108CC000F0F2B6B200FB127046EA00400CFB02FC68
:108CD000844507D9401902F1FF3702D2844500F2DA
:108CE000AB803A4642EA0142B1E7E443524263EBC9
:108CF000430364E7404261EB41014FF0FF345BE71F
:108D00009540C2F1200327FA03F1280C26FA03F359
:108D10009740B1FBF0F81F433B0C00FB18111FFA02
:108D200085FC43EA01410CFB08F38B4206FA02F68C
:108D300008D9491908F1FF3279D28B4277D9A8F1C5
:108D400002082944C91AB1FBF0F3BFB200FB1311AA
:108D500047EA01470CFB03F2BA4207D97F1903F136
:108D6000FF3160D2BA425ED9023B2F44BF1A43EAB8
:108D7000084390E7C8F1200203FA08FC25FA02F341
:108D800043EA0C0C4FEA1C4921FA02F301FA08F7F6
:108D900020FA02F2B3FBF9F1174309FB11333A0C45
:108DA0001FFA8CFB42EA03430BFB01FA9A4505FAD2
:108DB00008F008D913EB0C0301F1FF3235D29A45C4
:108DC00033D902396344CAEB0303B3FBF9F209FB5D
:108DD0001233BFB247EA03470BFB02F9B94508D982
:108DE00017EB0C0702F1FF331BD2B94519D9023A30
:108DF000674442EA0145A5FB0001C9EB07078F4222
:108E00004FF000030AD305D02A4620E7624601E767
:108E10003B4614E706FA08F68642F5D26A1E00239E
:108E200015E71A46E5E70B46A0E71146CBE7904663
:108E300088E7434642460AE7023A53E702392F449D
:108E40003CE700BF2DE9F00F144605460E46002B07
:108E500043D18A4253D9B2FA82F757B1C7F12006FB
:108E600020FA06F601FA07F302FA07F41E4300FAA5
:108E700007F5210CB6FBF1F22B0C01FB1267A0B237
:108E800043EA074600FB02F3B34209D9361902F15F
:108E9000FF3780F0F680B34240F2F380023A264476
:108EA000F61AB6FBF1F3ADB201FB136145EA0141DD
:108EB00000FB03F0884208D9091903F1FF3680F05E
:108EC000E280884240F2DF80023B43EA0242002314
:108ED00010461946BDE8F00F70478B424AD8B3FAE6
:108EE00083F6002E4DD18B4202D3824200F2D6800F
:108EF0000023012210461946BDE8F00F704712B951
:108F00000124B4FBF2F4B4FA84F2002A7CD1091BE8
:108F1000260CA7B20123B1FBF6F02A0C06FB1011B8
:108F200042EA014107FB00F28A4207D9091900F120
:108F3000FF3C02D28A4200F2C3806046891AB1FB2C
:108F4000F6F2ADB206FB121145EA014507FB02F746
:108F5000AF4208D92C1902F1FF3180F09680A74268
:108F600040F29380023A42EA004210461946BDE8B8
:108F7000F00F704700231A4610461946BDE8F00F5F
:108F80007047C6F1200522FA05F4B3401C434FEAAE
:108F9000144821FA05F301FA06F720FA05F5B3FBA8
:108FA000F8FC2F4308FB1C333D0C1FFA84FA45EAFA
:108FB00003430AFB0CF9994502FA06FB04D91B1975
:108FC0000CF1FF326DD39446C9EB0303B3FBF8F504
:108FD00008FB1533BFB247EA03470AFB05F8B8455B
:108FE00004D93F1905F1FF3361D31D4645EA0C4C06
:108FF000ACFB0B23C8EB07079F424FF0000549D39A
:1090000045D062462B4663E79440C2F1200321FA23
:1090100003FC260C20FA03F301FA02F5BCFBF6F878
:1090200043EA05010B0C06FB18CCA7B243EA0C4C33
:1090300007FB08F3634500FA02F509D91CEB040CA1
:1090400008F1FF323AD2634538D9A8F10208A444A6
:10905000C3EB0C0CBCFBF6F389B206FB13CC41EA64
:109060000C4107FB03F28A4207D9091903F1FF30CB
:1090700022D28A4220D9023B2144891A43EA08437A
:1090800049E73A460CE733461FE70A466BE7B0402C
:109090009042B6D20CF1FF32002319E73346324634
:1090A00016E799458FD9ACF1020C23448CE7B845FB
:1090B0009BD9023D274499E70346DEE79046C7E780
:1090C000023821443AE700BF70B508210646012066
:1090D00010F048FD044618B90C4811F057FE12E094
:1090E0000136B600304611F081FA0546206028B1FD
:1090F000304611F07BFA0546606020B9034811F054
:1091000045FE284670BD204670BD00BF7C2A02087F
:1091100070B548210546012010F024FD044618B919
:10912000144811F033FE23E00135AD00284611F05C
:109130005DFA0646A06258B1284611F057FA064675
:10914000E06228B1284611F051FA0646206320B9A2
:10915000084811F01BFE304670BD284611F046FA53
:109160000546606320B9034811F010FE284670BD23
:10917000204670BDAD2A020838B50C2105460120F5
:1091800010F0F0FC0135AD000446284611F02EFA2F
:109190002060284611F02AFA6060284611F026FA6D
:1091A000A060204638BD10B50446806A18B111F0A1
:1091B00025FA0023A362E06A18B111F01FFA002318
:1091C000E362206B18B111F019FA00232363606B7E
:1091D00018B111F013FA00236363204611F00EFA60
:1091E000012010BD10B50446006818B111F006FA50
:1091F00000232360606818B111F000FA0023636057
:10920000204611F0FBF9012010BD10B5044600689E
:1092100018B111F0F3F900232360606818B111F060
:10922000EDF900236360A06818B111F0E7F900239D
:10923000A360204611F0E2F9012010BD00000000FB
:1092400090ED017AD0ED007A836870B581ED057AF2
:1092500027EE077A8B61A7EEA77A04460E46C1ED8A
:10926000047A17EE100AFFF759F841EC100B15F0CD
:1092700071FC51EC100BFFF767FB94ED027AF06084
:1092800007EE900A27EE077AA7EEA77A17EE100AE4
:10929000FFF744F841EC100B15F05CFC51EC100B9F
:1092A000FFF752FBB0607069FFF738F80446306989
:1092B0000D46FFF733F845EC104B41EC110B15F060
:1092C000A7FA13A3D3E9002351EC100BFFF77AF8A8
:1092D000FFF73AFB3060B069FFF720F80446F0680A
:1092E0000D46FFF71BF845EC104B41EC110B15F048
:1092F0008FFA07A3D3E9002351EC100BFFF762F8B4
:10930000FFF722FB7060012070BD00BFAFF300804B
:10931000F8C1631ADCA54C40D0ED056A90ED047AE3
:10932000F0B566EEA07A2DED068BE7EE007A0646E4
:1093300085B090ED038AD0ED069AD0ED028A80EDDB
:109340000C0A87EE88AAE9EE817A20EE660AC7EE5B
:10935000A87AA7EE200AC0ED0D0A86ED0E1AC0ED20
:109360000A7A80ED0BAA10EE100AB0EE419AFEF7D1
:10937000D5FF1DA3D3E90023FFF724F868EE087A90
:10938000044617EE900A0D46FEF7C8FF6AEE699A8A
:1093900002460B4620462946FFF73EF9E8EE099AB9
:1093A000FFF7D2FA0746306219EE900AFEF7B6FFD1
:1093B0000DA3D3E90023FFF705F868EEA88A044659
:1093C00018EE900A0D46FEF7A9FF02460B4620460E
:1093D0002946FFF721F9FFF7B7FA70620120F7631A
:1093E00005B0BDEC068BF0BDF8C1631ADCA54C409E
:1093F00084B02DE970432DED068B0CAC84E80F0092
:109400001398DDED0F9A179E9DED149AFEF786FFD7
:1094100056A3D3E90023FEF7D5FF41EC100B41EC36
:10942000180B14F0D1FF59EC108BB0EE480AF0EE97
:10943000680A15F0B9F851EC100BFFF785FA08EE41
:10944000100A0C98FEF76AFF69EE887A044667EE08
:10945000887A0D4617EE900AFEF760FF02460B462B
:1094600000204149FEF7FAFD41EC100B15F072FBAC
:10947000204653EC102B2946FFF7CEF8FFF764FA8D
:1094800049460AEE100A4046FFF75EFA7AEE098A6C
:1094900007EE900A1AEE100A68EEA78AFEF73EFF62
:1094A000044619EE900A0D46FEF738FF02460B46B9
:1094B00000202D49FEF7D2FD02460B4620462946E4
:1094C000FEF780FF044619EE100A0D46FEF726FF50
:1094D00002460B4620462946FEF7C2FD044618EE1A
:1094E000100A0D46FEF71AFF02460B462046294693
:1094F000FEF768FFFFF728FA08EE100A68EE087A10
:10950000E8EEA87A17EE900AFEF708FF41EC100B80
:1095100015F020FB51EC100BFFF716FA07EE900A3E
:1095200088EE278AB06018EE100AFEF7F7FE41ECCD
:10953000100B15F00BF90AA3D3E9002351EC100B23
:10954000FEF740FFFFF700FA129B7060BDEC068B40
:109550003360BDE87043012004B07047AFF3008072
:10956000F8C1631ADCA54C400000F03F399D52A2BF
:1095700046DF913FAFF3008084B02DE9F04F2DED31
:10958000048B89B016AC84E80F0011EE900A12EE3D
:10959000904AB0EE429AB0EE608AFEF7BFFEDDED73
:1095A000177A78EE677A804617EE900A8946FEF7BA
:1095B000B5FE2DA3D3E90023FEF704FFFFF7C4F99E
:1095C000FEF7ACFE41EC100B41EC180B14F0ECFF75
:1095D00020465BEC10ABFEF7A1FEB0EE480AF0EEC1
:1095E000680A04460D4614F0EFFE52465B464046BC
:1095F000494657EC106BFEF7E5FE3246CDE9000117
:109600003B4620462946FEF7DDFE02460B46DDE9D5
:109610000001FEF725FDFFF797F91B9B3246986086
:1096200049463B464046FEF7CDFE524606460F46AB
:109630005B4620462946FEF7C5FE02460B463046ED
:109640003946FEF70BFDFFF77FF91B9C20600120D8
:1096500084ED019A09B0BDEC048BBDE8F04F04B075
:10966000704700BFAFF30080399D52A246DF913FA3
:1096700084B030B52DED048B85B00CAC84E80F00C0
:1096800010EE100AF0EE419A8DED031A8DED010AED
:10969000CDED020AFEF742FE35A3D3E90023FEF723
:1096A00091FE41EC100B41EC180B14F08DFE51ECC7
:1096B000100BFFF749F9B0EE480AF0EE680A09EE20
:1096C000100A14F071FF51EC100BFFF73DF99DEDFE
:1096D000111A139C129D236881EE291A012207EEAC
:1096E000900A21EE017AA3EC017AAA4207DC13ED7D
:1096F000017A27EE017A0132A3EC017AF5E760687E
:10970000A1684FF07E53036000230B60024619EE00
:10971000103A17EE904A42F8043F0B46083043F8DF
:10972000044F01F108040221A94202F1040203F1ED
:10973000040315DC13ED017A52ED016A27EE677A16
:109740000131A6EE897AA0EC017A13ED017A52ED8F
:10975000016A29EE077AA6EEA77AA4EC017AE3E77C
:10976000012005B0BDEC048BBDE8304004B070476B
:10977000399D52A246DF913F2DE9F04F2DED048B2C
:10978000F7EE006AF0EEC07A85B0F4EE667AF1EE9C
:1097900010FA01900291B0EE408A9046F0EE669A7F
:1097A00004D1CB4811F0F2FA0020C6E1941C022348
:1097B00002FB044494FBF3F401349C40204610F077
:1097C00015FF834678B1204610F010FF814650B156
:1097D000204610F00BFF824628B14FEA48060136BA
:1097E0004D46002401E0BB48DCE7B44213DC02EE46
:1097F000904AF8EEE22A013412EE900AFEF78EFD4E
:1098000041EC100B15F0A6F951EC100BFFF79CF88A
:1098100045F8040BE9E709F1080402230394224602
:109820001D46434552DC5900013902EE901A03EE01
:10983000103AF8EEE27AB8EEC37A05F1010EC7EEFF
:10984000876A4FEA8E0E0BEB0E01581E1446C1EDCF
:10985000006A06EE900AB8EEE66A0AEB0E0186EEA2
:10986000077AAEF1040E104681ED007A0BEB0E0183
:109870000091D644012116EE90CA8C4501EB0507F4
:1098800001F1010600F104001CDD90ED006A14ED09
:10989000017A009F14ED025AC7EE865AB1000F44B8
:1098A0007144043CC5EE875AC7ED005A50ED015A89
:1098B00065EE255A85EE866A86EE077A81ED007A96
:1098C0003146D8E7BD1C01330432AAE718EE100A6E
:1098D000FEF724FD04460D4622462B4600207E4915
:1098E000DFED7E8AFEF7BAFB002206460F462046D1
:1098F0002946794BFEF7B4FB02460B463046394603
:10990000FEF760FD41EC100B15F024F9019C029D5F
:10991000B7EE009A84ED009A51EC100BC5ED008A69
:10992000B8F1000F00F00881FFF70EF807EE900A7B
:1099300084ED018AB0EE486A686002230121434544
:1099400029DC19448A000BEB0200D0ED006A029F6B
:109950000AEB020090ED007A019868EE266A27EE85
:10996000497A02EE903AA6EE867A10443A44F0EE36
:10997000466AE8EE476A0133F8EEE25A80ED007A73
:1099800065EEA66AB0EE469AC6EEA76AB0EE476AE2
:10999000C2ED006AD3E7C9EEA86A09F10C00012301
:1099A000002299ED027A27EE287A984526EEA75AEA
:1099B00040F39680D0ED005A10ED016A019C019DA4
:1099C000DDF80CE027EE257A02EE903A87EE067A73
:1099D0001A44013291000C44F8EEE24A27EE056A7F
:1099E00064EE884A86EE256AF0EE456A84ED006AE8
:1099F00024EE866AC7EE254A029C2144D41801331E
:109A0000013403F1005C0CF1FF3C4FEACC0C86EE14
:109A1000276A02EE903AB1EE466A81ED006A28EEBE
:109A2000256AB8EEE24A26EE246A28EE044A66EE7B
:109A3000053A24EE853A23EEC44AA100A3EE254A56
:109A40000D44C5ED003A84EE274A029D294481ED7C
:109A5000004A591C414538DC0C44A6000AEB0605B7
:109A6000D5ED005A029F0BEB060565EEE45AD5EDE5
:109A7000004A019D68EE244A3544E4EE865A3E448D
:109A80000EEB0C0702EE901A25EE854AD7ED003A50
:109A900085ED004A7546D5ED004A63EEA43AF8EE2E
:109AA000E24A0EF1040E64EE884A013164EE644A23
:109AB00026EE054AE3EE844AC4EEA74AC6ED004A04
:109AC000F0EE464AB0EE656AC4E708306DE700BFC5
:109AD000E34D0208232D02080000F03F00000000C3
:109AE00009EBC803D3ED006A019B029C87EE267A3E
:109AF000B8F1010FACBF424401320132920013446D
:109B00002244584602EE908A27EE055AB8EEE27AD1
:109B100083ED005A27EE488A28EE055AC5EE277ACB
:109B2000C2ED007A10F06AFD484610F067FD50461D
:109B300010F064FD012000E0404605B0BDEC048B50
:109B4000BDE8F08F2DE9F04F2DED028B4FF07E53E5
:109B500089B0036000230B60804610EE100AB0EE5F
:109B6000408A01928946FEF7D9FB04460D462246FB
:109B70002B460020AD49FEF771FA00220F4606463B
:109B8000AA4B20462946FEF76BFA02460B463046A2
:109B90003946FEF717FC41EC100B14F0DBFF51ECDB
:109BA000100BFEF7D1FE019CA31C022204FB033321
:109BB00008EE900A93FBF2F00130904010F016FD91
:109BC000074620B1012500952B46002025E0984846
:109BD00011F0DCF8384624E1934252D1DEED007AF0
:109BE000059E68EEA77AC4ED007ADEED007A96ED68
:109BF000007A68EE277AE8EE877AC1ED007A0132C2
:109C00009A4204F1040401F1040105F10405E3DDC5
:109C1000009A029B023201300092019CA34200F3A1
:109C200081805D1C029500FB00F6022103FB00F21F
:109C30000696029E009D92FBF1F41C44521006FB16
:109C400003FB9BFBF1FB4FEA820A013C6FF003022E
:109C50008C400BFA01F102FB0BFB9A1E08EB040E81
:109C600042434C4405945210AC1E6543920006EEEC
:109C7000105A08EB01040492494408EB0A0500223B
:109C8000AAE7012B0ED1002AB9D1D8ED007A68EEEF
:109C9000277AC4ED007AD8ED007A99ED007A67EE64
:109CA000E87A10E0904211DCD5ED007A68EE277A70
:109CB00001EB0B0CC4ED007AD5ED007AD44467EECD
:109CC000E87A9CED007AE8EE077A96E7069ED5EDF5
:109CD000006A02FB126607EE106AF8EEC67AB8EE6A
:109CE000C77A049E87EE277A04EB0B0CB444DCEDB4
:109CF000007A67EEC77A01EB0B0CE8EE267A0CEBE4
:109D00000A06C4ED007AD5ED007AD6ED006A049E0D
:109D100067EEE87AB444E8EE267ADCED006AE7EE16
:109D2000667A6AE74FF07E533B600126019CA642AB
:109D300052DC731E72007343013A5B1007EE902AE7
:109D400007EB830393ED007AF8EEE77A06EE906A6C
:109D500067EE877AB8EEE67A06F1010BC7EE877AEE
:109D60000BFB06FC4FEA6C0C07EB8C010C464FF02A
:109D7000010AC1ED007A2068FEF7D0FABAF1010FAE
:109D800014BF01220222CAEB0B03534307EE903AA1
:109D90000AEB0602B8EEE77A07EE902AF8EEE77AC9
:109DA000CDE90201C7EE277A0AF1010A17EE900AFF
:109DB000FEF7B4FA41EC100B14F0CCFEDDE9020121
:109DC00053EC102BFEF7FEFAFEF7BEFDB24544F849
:109DD000040FD0DD5E46A9E70123019DAB421CDCE8
:109DE0005D1C05FB03F14910890008EB01007C189C
:109DF0000022494490ED007AF4EC017A27EE277AAC
:109E00000132A0EC017A91ED007A67EE677A9A420E
:109E1000E1EC017AEEDD2B46DFE7384610F0EEFB91
:109E2000012009B0BDEC028BBDE8F08F0000F03FCF
:109E3000452D020800000000C0B52DED028B07463D
:109E400085B010EE900A0E46FEF768FA1FA3D3E91C
:109E50000023FEF7B7FA41EC100B14F0A5FB51EC10
:109E6000100BFEF771FD102F08EE100A11DDF0EE59
:109E7000C87A17EE900AFEF751FA02460B46002008
:109E80001149FEF7EBF80EA3D3E90023FEF70CFD12
:109E900038B196E80300B0EE480A3A46FFF752FEA2
:109EA00006E096E80300B0EE480A3A46FFF764FC85
:109EB000003018BF012005B0BDEC028BC0BD00BF53
:109EC000BBBDD7D9DF7CDB3D0000F03F399D52A2FE
:109ED00046DF913FAFF300802DE9F04F2DED048B6D
:109EE000074689B008A800E90E00F86B8DED020A5C
:109EF00001308000CDED030A8DED041A10F076FBE1
:109F0000064620B95A4810F041FF3046A7E0169A9D
:109F100000230546B7EE008A5360A5EC018A03983A
:109F2000FEF7FCF950A3D3E90023FEF74BFA41EC0E
:109F3000100B14F039FB51EC100BFEF705FD09EE88
:109F4000100A0124FB6B9C4200F385804FEA440A0F
:109F50000AF1FF3806EE908A07EE104AF8EEE67A2C
:109F600004F1010928EE278AF8EEC77A06EE909AE6
:109F700088EE278A022309FB04FB9BFBF3FB0BF112
:109F8000010B07EE90AAB8EEE77AF8EEE67AC7EE94
:109F9000277A17EE900AFEF7C1F941EC100B14F086
:109FA000D9FD53EC102B18EE100A8DED010A009329
:109FB000FEF7B4F9019A009BFEF704FAFEF7C4FC21
:109FC000012C07EE100A02D1336873601AE0631E99
:109FD0005B43AAF1030A013B0AFB08FA07EE903A39
:109FE00008EE90AAF8EEE76AF8EEE88AC6EEA87ADC
:109FF00055ED026A66EEE77A55ED016AE9EE267ADA
:10A00000C5ED007A059B1698B5EC016A03EB840454
:10A010003B6B4FEA8B0B03EB0B027B6BD2ED005AD1
:10A020005B44D3ED007A069BD3ED016A079B66EE95
:10A03000E77AD3ED016AE5EEA67AD4ED006A67EE21
:10A04000A67A4C4667EE866AD0ED017AE6EE877A0C
:10A05000C0ED017A76E7304610F0D0FA012009B061
:10A06000BDEC048BBDE8F08F399D52A246DF913FD5
:10A070008F2C0208AFF3008082B02DE9F04F2DED58
:10A08000028B89B00D4614A981E80C00179C169B21
:10A09000049300210123EE6BDDF854C02B648DED99
:10A0A000050ACDED060A8DED071AA16061602160F9
:10A0B000039603998B4202F1040276DC5E1C03FBDB
:10A0C00006F707EE106A022697FBF6F6DDF810E0B9
:10A0D00000276146CCEB86090297029F9F4262DC13
:10A0E000D5F834A02E6B9EED006AD1ED006AD0F851
:10A0F00000B001EB0908C244DAED007A06EB08076C
:10A1000066EE277A97ED006A029EE6EE267AC34451
:10A11000013692ED006ADBED006A67EE867AB8EEF2
:10A12000C76A26EE676AD4ED027AE6EE267AC4EDB7
:10A13000027AF1EC016ADAED007A97ED006A66EED8
:10A14000E77AFEEC016AE6EE267A92ED006A67EEA7
:10A15000867A9DED026A0296F8EEC66A27EEA66A36
:10A16000DBED006AD4ED017AE6EE267AC4ED017AE1
:10A17000DAED006A5EED017A97ED006A476866EEF7
:10A18000A77A51ED016AE6EE267A474492ED006A1D
:10A19000D7ED006A26EE676AD4ED007AE6EE267AFD
:10A1A000C4ED007A99E7013383E70698FEF7B6F825
:10A1B0001BA3D3E90023FEF705F941EC100B14F0C3
:10A1C00003F951EC100BFEF7BFFB08EE100AB0EEDE
:10A1D000C86A16EE100AFEF7A1F813A3D3E900230C
:10A1E000FEF780FB30B1D4ED017A87EE888A84EDEA
:10A1F000018A0CE0009414AC284694E80E009DED12
:10A20000050ADDED060A9DED071AFFF765FE012040
:10A2100009B0BDEC028BBDE8F04F02B0704700BF43
:10A22000399D52A246DF913FBBBDD7D9DF7CDB3DD4
:10A230002DE9F04F2DED048B074689B008A800E901
:10A240000E00B86B8DED020A01308000CDED030ADF
:10A250008DED041A10F0CAF9064620B95A4810F0DC
:10A2600095FD3046A7E0169A00230546B7EE008A12
:10A270005360A5EC018A0398FEF750F850A3D3E988
:10A280000023FEF79FF841EC100B14F08DF951EC10
:10A29000100BFEF759FB09EE100A0124BB6B9C4220
:10A2A00000F385804FEA440A0AF1FF3806EE908AEF
:10A2B00007EE104AF8EEE67A04F1010928EE278A43
:10A2C000F8EEC77A06EE909A88EE278A022309FBF9
:10A2D00004FB9BFBF3FB0BF1010B07EE90AAB8EE1E
:10A2E000E77AF8EEE67AC7EE277A17EE900AFEF7DD
:10A2F00015F841EC100B14F02DFC53EC102B18EE5C
:10A30000100A8DED010A0093FEF708F8019A009BF0
:10A31000FEF758F8FEF718FB012C07EE100A02D1E1
:10A32000336873601AE0631E5B43AAF1030A013BC2
:10A330000AFB08FA07EE903A08EE90AAF8EEE76AF0
:10A34000F8EEE88AC6EEA87A55ED026A66EEE77A7C
:10A3500055ED016AE9EE267AC5ED007A059B16985F
:10A36000B5EC016A03EB8404BB6A4FEA8B0B03EB89
:10A370000B02FB6AD2ED005A5B44D3ED007A069BD8
:10A38000D3ED016A079B66EEE77AD3ED016AE5EE4D
:10A39000A67AD4ED006A67EEA67A4C4667EE866A26
:10A3A000D0ED017AE6EE877AC0ED017A76E73046A5
:10A3B00010F024F9012009B0BDEC048BBDE8F08F4A
:10A3C000399D52A246DF913F652C0208AFF3008011
:10A3D00082B02DE9F04F2DED028B89B00E4614A905
:10A3E00081E80C00179C169B0493B76BDDF854C0F2
:10A3F0008DED050A0023A36063602360CDED060A9E
:10A400008DED071A03970432012303998B4275DC03
:10A410005F1C07EE107A02215F4397FBF1F1DDF834
:10A4200010E0CCEB8109654600210291029F9F421A
:10A4300061DCD6F82CA0B16A9EED006AD5ED006A09
:10A44000D0F800B005EB0908C244DAED007A01EB60
:10A45000080766EE277A97ED006A0299E6EE267AFB
:10A46000C344013192ED006ADBED006A67EE867A43
:10A47000B8EEC76A26EE676AD4ED027AE6EE267A6F
:10A48000C4ED027AF5EC016ADAED007A97ED006A24
:10A4900066EEE77AFEEC016AE6EE267A92ED006A55
:10A4A00067EE867A9DED026AF8EEC66A27EEA66A26
:10A4B000DBED006AD4ED017AE6EE267AC4ED017A8E
:10A4C000DAED006A5EED017A97ED006A476866EEA4
:10A4D000A77A55ED016AE6EE267A474492ED006AC6
:10A4E000D7ED006A26EE676AD4ED007AE6EE267AAA
:10A4F000C4ED007A99E70133043286E70698FDF748
:10A500000DFF1BA3D3E90023FDF75CFF41EC100B0B
:10A5100013F05AFF51EC100BFEF716FA08EE100A72
:10A52000B0EEC86A16EE100AFDF7F8FE12A3D3E9E2
:10A530000023FEF7D7F930B1D4ED017A87EE888A8F
:10A5400084ED018A0CE0009414AC304694E80E00CF
:10A550009DED050ADDED060A9DED071AFFF768FE81
:10A56000012009B0BDEC028BBDE8F04F02B070478E
:10A57000399D52A246DF913FBBBDD7D9DF7CDB3D81
:10A5800084B02DE9F04194B01AAC259D269F8DED45
:10A59000050A84E80F00AB6BCDED060A981C03FB9F
:10A5A0000000022290FBF2F08DED071AFEF78CFD01
:10A5B0000646A86BFEF7E0FDAB6B029303901EAB63
:10A5C000044693E803008DE803000DF1680E9EE851
:10A5D0000F009DED050ADDED060A9DED071AFFF758
:10A5E00047F89DED050ADDED060A9DED071AA86BFB
:10A5F0003146FFF721FC08AB0193A368009394E870
:10A600000C0029469DED050ADDED060A9DED071AB1
:10A610003046FFF7DDFE0EAB0193A368009394E88C
:10A620000C0029469DED050ADDED060A9DED071A91
:10A630003046FFF721FD0DF12C08249BCDF8048056
:10A64000009320AD95E80F009DED050ADDED060AAB
:10A650009DED071ADDED081A9DED092ADDED0A2AA8
:10A66000FEF78AFF11AB0193249B009395E80F003E
:10A67000DDED0E1A9DED0F2ADDED102A9DED050A88
:10A68000DDED060A9DED071AFEF776FF39464046D6
:10A69000FEF7D6FD9DED110ADDED120A9DED131AB0
:10A6A0003846FEF739FE3046FEF79CFD2046FEF7A1
:10A6B000ACFD012014B0BDE8F04104B070472DE9B5
:10A6C000F04F2DED028B85B004AC04E90F00109C17
:10A6D000119D23682B6063686B60A36BAB63E36BB6
:10A6E000EB63022203FB033A9AFBF2FA05F108003E
:10A6F00004F108019DED038A9A4410F037FED4F866
:10A7000038C00122624554DC561C022306FB02F0CD
:10A7100090FBF3F000FA03F300210F185745D5F82A
:10A720002C902FDC676BD4ED016A07EB0308E76A16
:10A7300098ED007A1F44D7ED007A276B78EE666AB1
:10A740009944E6EE877AC9ED007A07EB0309AF6A10
:10A75000D4ED016A99ED007A07EB030BA76A1F4459
:10A76000D7ED007A6F6B78EE666A1F44E6EE877A63
:10A77000CBED007AD8F80080C7F80080D9F80080C7
:10A780002F6B0CE0E76A1F44D7F8008009EB030742
:10A79000C7F80080A76A1F44D7F80080AF6A1F443B
:10A7A00001319142C7F8008003F10403B5DD324660
:10A7B000A8E7012005B0BDEC028BBDE8F08F0000DA
:10A7C000F8B55A20FEF7A4FC254C264920600C233E
:10A7D0008363C363244B43602022083010F054FE8F
:10A7E00023682249986ADE6A1D6B5C6B002240F880
:10A7F000042B32602A60226000220F6840F8047B3C
:10A800000432B718D1F804E0C7F800E0AF18D1F867
:10A8100008E0C7F800E0A718D1F80CE0C7F800E09E
:10A82000B2F5B47F01F11001E7D193ED017AF1EEB9
:10A83000047A77EE277A5B20C3ED117AFEF768FC85
:10A840000B4B0C4A18600C4B1A600C4A5A600C4AAD
:10A850009A600C4A1A610C4ADA600C4A5A61F8BDD7
:10A86000AC100020602A02080040FB44005202089D
:10A87000441000201951C7452011002005A6C645E7
:10A88000D4BA5B3B3191A73D815DDB3B9A19C7454B
:10A8900008B5054B1868FEF786FC044B1868BDE840
:10A8A0000840FEF780BC00BFAC1000204410002020
:10A8B0002DE9F04F8BB0FFF783FF724BDFED727A1B
:10A8C000D3ED016ADFF81082DFF810926F4CDFF8E9
:10A8D00010B2B8EEE67AD3ED006A27EE277A0022AE
:10A8E00088ED007AB8EEE67AC8F8102067EE277A8D
:10A8F0001A8EC8ED017AD3ED027AC9F80020B8EEBD
:10A90000E77ADFED637A93F8322093F83330C9F8B1
:10A91000042067EE277AC9F80830C8ED027A05F0FE
:10A92000A5F989ED030A05F0A1F988ED020A05F001
:10A930009DF988ED010A05F099F9454688ED000A70
:10A940000FCD02AE0FC62B683360524E079604F14E
:10A95000100A9AE803008DE8030094E80F00FEF760
:10A9600047FD4D4B1B680093DBF8003001934746D1
:10A9700099E80F00FFF7A3FE0FCF96ED000AD6ED82
:10A98000010A96ED021A454F02AE0FC62B683360DE
:10A99000434DDBF80030079308959AE803008DE8F3
:10A9A0000300404E94E80F00FFF7EAFD3B683E4C81
:10A9B00030469847D9F80C00FDF7B0FC02460B462C
:10A9C0003A4821688847D8F80800FDF7A7FC0246F6
:10A9D0000B46374821688847D8F80400FDF79EFCED
:10A9E00002460B46334821688847D8F80000FDF737
:10A9F00095FC02460B463048216888473B68304644
:10AA000098472869FDF78AFC02460B462B482168C7
:10AA100088476869FDF782FC02460B462848216892
:10AA20008847A869FDF77AFC02460B46254821684D
:10AA30008847E868FDF772FC02460B462248216809
:10AA40008847A868FDF76AFC02460B461F48216844
:10AA500088476868FDF762FC02460B461C4821687F
:10AA600088472868FDF75AFC02460B4619482168BA
:10AA700088473B68304698470BB0BDE8F04FFFF77A
:10AA800007BF00BFC44C002095BFD6332011002063
:10AA9000BD378635C4100020AC100020EC4B0020E0
:10AAA000D0100020CB410208F04B0020A057020834
:10AAB000AF570208BE570208CD570208DC570208FC
:10AAC000EB570208FA5702080958020818580208FA
:10AAD0002758020836580208B01000201011002034
:10AAE0004410002013B5012001460EF077FC4FF40E
:10AAF000C053154C009303238DF8053002238DF8C5
:10AB000004302046002369468DF806308DF8073062
:10AB10000EF0D4FA20460B210A220EF026FB0A2260
:10AB200020460C210EF021FB4FF4804001210EF055
:10AB300079FC802001210EF05DFC4FF08050012156
:10AB40000EF07CFC02B010BD0000024007B54FF4CF
:10AB5000C0600EF039F843238DF80430032201233E
:10AB600001A88DF805308DF806208DF807300EF01D
:10AB700035F803B05DF804FB782358430722B0FB97
:10AB8000F2F0002301338342FCD970474FF47A730B
:10AB90005843FFF7F1BF0000024B00201860024B42
:10ABA00018607047381100203C11002000207047C9
:10ABB0000020704770B500238B420CD0074A084D27
:10ABC0001468C65C2E550134B4F5006F08BF00242C
:10ABD00014600133F0E7002070BD00BF00100020BA
:10ABE0003954002070B500238B420ED0084A094C1E
:10ABF0001568C65C66550135632DC8BF0025156014
:10AC000012680025A5540133EEE7002070BD00BF97
:10AC10003811002040110020044B1868044B1B68B9
:10AC2000C01A18BF6FF00000704700BF3C11002031
:10AC300038110020084B09491A6809688A4207D070
:10AC40000749885C0132632AC8BF00221A6000E00D
:10AC5000002040B2704700BF3C1100203811002096
:10AC60004011002012230B80004870473400002060
:10AC700004230B80004870473000002010B5044CBE
:10AC800004480A4621460DF02FFE204610BD00BFA5
:10AC90007C5300204558020808B50A4608B9044804
:10ACA00000E0044804490DF01FFE034808BD00BF42
:10ACB00058580208795802087C53002008B50A4603
:10ACC00008B9044800E0044804490DF00DFE0348AB
:10ACD00008BD00BF9A580208A75802087C530020FC
:10ACE00010B5044C04480A4621460DF0FDFD2046EF
:10ACF00010BD00BF7C530020B458020810B5044CAE
:10AD000004480A4621460DF0EFFD204610BD00BF65
:10AD10007C530020BF58020870477047014B012246
:10AD20001A707047AF0D0020014B00221A70704757
:10AD3000AF0D0020014B01221A707047AF0D0020AB
:10AD4000704770471C481D49026800608A4200F045
:10AD50001E80002100F004B8194B5B5843500431A9
:10AD60001848194B42189A42FFF4F6AF174A00F000
:10AD700003B8002342F8043B154B9A42FFF4F9AFA5
:10AD80000BF0BEFE0FF09AFB0AF0FCFC7047114E70
:10AD900011483060114E12483060124E1248306037
:10ADA000124E13483060134E134830601348D0F8E9
:10ADB00000D0406800470000FCFF0120EFBEADDE80
:10ADC000BCEC020800000020280C0020280C002009
:10ADD000405C0020303802401000000000100240AB
:10ADE000001400000410024000000000081002409F
:10ADF0000028000014100240600000000000FF1F47
:10AE0000FFF7FEBF1FB5194B197802AB0093184B23
:10AE100003221868062302F0FBFB164B9DF808205E
:10AE2000DA709DF809209A709DF80A205A719DF8F1
:10AE30000B201A719DF80C205A709DF80D201A7085
:10AE4000B3F9002012F5805F0BD0B3F9022012F5A0
:10AE5000805F06D0B3F9040010F5805018BF0120C0
:10AE600000E0002005B05DF804FB00BFBA1100202F
:10AE7000B0110020B41100202DE9FF4100238DF80E
:10AE80000C30574B574D93F83223574E574C032AEB
:10AE900098460CBF564B574B2B601E231E21002299
:10AEA00033702868712302F0A9FB322003F034FFCD
:10AEB000202331782868012202F0A0FB142003F03F
:10AEC0002BFF002323606360A3600027286831788C
:10AED0000222012302F092FB322003F01DFF012029
:10AEE00003F01AFF03AB009331782868012309228D
:10AEF00002F08EFB9DF80C30DB07F0D5FFF782FFE8
:10AF000078B33D4BDFED3D7AB3F90020D4ED006A14
:10AF100007EE102AB8EEC77AB3F90220B3F904306D
:10AF200087EE877A36EE877A84ED007A07EE102A6C
:10AF3000B8EEC77AC7EE877A94ED017A77EE277A72
:10AF40009FED2F7AC4ED017A07EE903AF8EEE77A9A
:10AF5000C7EE277A94ED027A77EE277AC4ED027A6B
:10AF600001E0013FFFB20137FFB2092FAED998F8D7
:10AF700032333178286804EB830292ED007AF2EEE6
:10AF8000047A87EE277A7023B0EEC77A84ED007AD0
:10AF900092ED017A87EE277AB0EEC77A84ED017AD6
:10AFA00092ED027AC7EE277A0022F0EEE77AC4ED3E
:10AFB000027A02F023FB322003F0AEFE31782868DB
:10AFC0000222002302F01AFB142003F0A5FEFFF773
:10AFD00019FF142003F0A0FE04B0BDE8F08100BF0B
:10AFE000EC4D0020B0110020BA110020BC1100204F
:10AFF0000058004000540040B4110020CD0C9E4485
:10B000006726934470B52D4E2D4C2E4D30464FF48F
:10B0100080710EF0A4F82046BB2103F095FC204679
:10B02000002103F091FC00216870204603F08CFCA5
:10B0300000212870204603F087FC0021E87020469C
:10B0400003F082FC0021A870204603F07DFC002163
:10B050006871204603F078FC00212871204603F037
:10B0600073FC194D00216870204603F06DFC00212F
:10B070002870204603F068FC144D002168702046BB
:10B0800003F062FC00212870204603F05DFC0021E3
:10B09000E870204603F058FC0021A870204603F019
:10B0A00053FC00216871204603F04EFC28714FF4D8
:10B0B00080713046BDE870400EF04FB80004024089
:10B0C000003C0040E4110020D41100202012002098
:10B0D000224B9FED237AB3F90030224A07EE903AD3
:10B0E000F8EEE77A204BC7EE877A9FED207A77EE6D
:10B0F000877AC3ED007A1E4BD3ED0D6A93ED107A7B
:10B10000A6EEA77AD3ED0E6A82ED007A93ED117A5E
:10B11000A6EEA77AD3ED0F6A82ED017A93ED127A4B
:10B12000A6EEA77AD3ED136A82ED027A93ED167A32
:10B13000104AA6EEA77AD3ED146A82ED007A93ED59
:10B14000177AA6EEA77AD3ED156A82ED017A93ED10
:10B15000187AA6EEA77A82ED027A7047D411002001
:10B160000000AA43740C0020F811002000000C42DB
:10B17000EC4D0020D811002030B587B00023624D7F
:10B1800000930193029303930493059301232B707F
:10B1900041F28834FFF736FFFFF79AFF5B495C4BBB
:10B1A000B1F90000D3ED017A5A4A93ED047A06EE24
:10B1B000900AF8EEE66AB1F90200B1F9041076EEF1
:10B1C000E76AD2ED007A76EEE76ADDED007AE6EE28
:10B1D000877A013CA4B206EE900ACDED007AF8EE33
:10B1E000E66AD3ED027A93ED057A76EEE76AD2ED60
:10B1F000017A76EEE76ADDED017AE6EE877A06EE11
:10B20000901ACDED017AF8EEE66AD3ED037A93ED6C
:10B21000067A414B76EEE76AD2ED027A3F4A76EE45
:10B22000E76ADDED027AB2F90010B2F90200B2F974
:10B230000420E6EE877A93ED007ACDED027A07EEF0
:10B24000901AF8EEE77A77EEC77A9DED037A77EEFB
:10B25000277A93ED017ACDED037A07EE900AF8EEA6
:10B26000E77A4FF47A7077EEC77A9DED047A77EE3D
:10B27000277A93ED027ACDED047A07EE902AF8EE64
:10B28000E77A77EEC77A9DED057A77EE277ACDEDEE
:10B29000057A03F025FD002C7FF47CAF6A46234637
:10B2A00092ED007ADFED1E7A1E4987EE277A06A816
:10B2B0001844194404330C2BA2EC017A10ED037AE4
:10B2C000C7EE277AC1ED007AEAD1DDED017ADDED36
:10B2D000006A9DED027A67EEA77AE6EEA67AE7EEBF
:10B2E000077A17EE900AFDF719F841EC100B13F0EE
:10B2F00031FC51EC100BFDF727FB0B4B18600023C2
:10B300002B7007B030BD00BF600C0020E41100209E
:10B31000EC4D0020740C0020D811002020120020D9
:10B3200000409C45081200206400002038B55A4DAA
:10B330005A4C28464FF480710DF011FF20466B21C6
:10B3400003F002FB2046802103F0FEFA28464FF46A
:10B3500080710DF002FF962003F0DEFC28464FF4CA
:10B3600080710DF0FCFE20466B2103F0EDFA2046C3
:10B37000032103F0E9FA28464FF480710DF0EDFE49
:10B38000012003F0ADFC28464FF480710DF0E7FE7C
:10B3900020466A2103F0D8FA2046102103F0D4FA9F
:10B3A00028464FF480710DF0D8FE012003F098FC80
:10B3B00028464FF480710DF0D2FE20466C2103F038
:10B3C000C3FA2046002103F0BFFA28464FF48071EB
:10B3D0000DF0C3FE012003F083FC28464FF480717A
:10B3E0000DF0BDFE2046192103F0AEFA20460021E3
:10B3F00003F0AAFA28464FF480710DF0AEFE01204A
:10B4000003F06EFC28464FF480710DF0A8FE204634
:10B410001A2103F099FA224B204693F8981003F072
:10B4200093FA28464FF480710DF097FE012003F047
:10B4300057FC28464FF480710DF091FE20461C21E8
:10B4400003F082FA2046082103F07EFA28464FF4E2
:10B4500080710DF082FE012003F042FC28464FF47B
:10B4600080710DF07CFE20461B2103F06DFA204612
:10B47000102103F069FA28464FF480710DF06DFE3B
:10B480002046022103F085FA642003F045FCBDE864
:10B490003840FFF771BE00BF00040240003C00408E
:10B4A000EC4D002030B50E4D0E4C2868217885B04B
:10B4B00003AB00930022032302F0AAF80A4B9DF885
:10B4C0000C209A709DF80D205A709DF80E201A706D
:10B4D00028682178FF22482302F090F805B030BD9B
:10B4E0004C120020481200206012002030B50E4D92
:10B4F0000E4C2868217885B003AB0093002203230B
:10B5000002F086F80A4B9DF80C209A709DF80D20E9
:10B510005A709DF80E201A7028682178FF2258234F
:10B5200002F06CF805B030BD4C120020481200202B
:10B530003C120020094A0A4B10681B88A0EB03202C
:10B54000084B1860084B1B8880FB0301C20D42EAC0
:10B550004122064B02F5FA621A607047441200203D
:10B560005012002038120020341200205412002003
:10B570002DE9F0474A4B18884A4B1E684A4B1A88F7
:10B5800086FB00014FEA0248C20942EA4162CB1140
:10B5900018EB02084FF0000949EB0309434B1C88E4
:10B5A000434B1A8886FB0445D003220A42EA05620F
:10B5B0002B1280184FF0000141EB03013D4BD3F8F3
:10B5C00000E0BEF5FA6F9A462DDAAEF5FA6405236F
:10B5D000644384FB03457643A2084FEAE67C6F1080
:10B5E0004FEA3406344CA64542EA85724FEAA50379
:10B5F0000EDA0EF2DC5464430725C5FB04670B2505
:10B6000084FB05456D104FEA3404121943EB050322
:10B61000CCEB0E04CAF80040B8EB060869EB07094A
:10B62000801A61EB0301254B1A68A2FB004502FB5F
:10B630000155620D6B1542EAC522B2EB080863EBB7
:10B6400009094FEAD83242EA494207EE902AB8EE99
:10B65000E77ADFED1B7AC7EE277A17EE900AFCF740
:10B660005DFE9FED0B1B41EC100B13F0D3F8002097
:10B6700053EC102B1349FCF7F1FC07A3D3E900238B
:10B68000FCF7A0FEFDF760F90F4BD863BDE8F0872B
:10B69000000000C0955BC83F0000000040A5E540E9
:10B6A00036120020381200204012002064120020C0
:10B6B0005C1200205412002024FAFFFF58120020D0
:10B6C00080E6C5470000F03FAC4D0020AFF300809E
:10B6D0007FB5474B474D93F83333474C012B03D18C
:10B6E000464B2B60772302E0454B2B60762323707B
:10B6F00021782868FF221E2303AE01F07FFF0A2075
:10B7000003F00AFB217800962868A222022301F0A8
:10B710007FFF3C4B9DF80C205A709DF80D201A704D
:10B72000217800962868A422022301F071FF364B8D
:10B730009DF80C205A709DF80D201A702178009603
:10B740002868A622022301F063FF304B9DF80C20ED
:10B750005A709DF80D201A70217800962868A8224A
:10B76000022301F055FF2A4B9DF80C205A709DF8DA
:10B770000D201A70217800962868AA22022301F071
:10B7800047FF244B9DF80C205A709DF80D201A702D
:10B79000217800962868AC22022301F039FF1E4B65
:10B7A0009DF80C205A709DF80D2021781A70286899
:10B7B000FF22582301F022FF0A2003F0ADFAFFF721
:10B7C00071FE0A2003F0A8FAFFF790FE0A2003F0AA
:10B7D000A3FA124B1A68124B1A60124B1A68124BDA
:10B7E0001A60FFF7A7FEFFF7C3FE04B070BD00BFED
:10B7F000EC4D00204C120020481200200058004060
:10B80000005400405C12002040120020641200200E
:10B810003612002050120020341200203C1200206A
:10B8200058120020601200204412002070B5274BEF
:10B83000274993F899502748274A013D4FF07E54F5
:10B840000023032D2FD8DFE805F02E02101F0B6018
:10B850004C608B60CC600B614B618B61CB6108628B
:10B86000136050609360D4601BE008604B608B6095
:10B87000CB600C614B618B61CB61086210605360DF
:10B880009360D36010611CE00B6048608B60C860FF
:10B890000B614B618B61CB610862136054609360F4
:10B8A000D06013610DE00C604B608B60CB60086171
:10B8B0004B618B61CB610862146053609360D3600D
:10B8C000146153619361D361106270BDEC4D00202F
:10B8D0008C120020000080BF681200207FB500237A
:10B8E0000C22ADF80430ADF80630ADF80830ADF8F4
:10B8F0000A20ADF80C301D46134B144EEB5814487B
:10B9000004AC694644F8103D0EF098F833681148CD
:10B910001C2198470435322003F0FEF9142DEBD199
:10B920004FF4164369460A4800930EF087F83368CF
:10B930000948D9219847094B00221A70084B1B6807
:10B94000984704B070BD00BF6001002018150020AA
:10B950000044004041010020680000202C15002018
:10B960002415002010B5354B1B78012B64D1344BC6
:10B970001B78022B0AD1334A334B91681960516806
:10B980005960D16812699960DA6010BD032B08D143
:10B990002C4A2D4B1179527983F8291083F82A20EB
:10B9A00010BD042B06D1274A274B918952899986CD
:10B9B000DA8610BD062B06D1224B93F82F20224B9E
:10B9C00083F8282010BD122B0ED11E4A1E4B516841
:10B9D000196191685961D16899611169D961516999
:10B9E000926919625A6210BD212B0CD1154A164B6F
:10B9F0001168D96291891986917BD27B83F83210C4
:10BA000083F8332010BD302B16D10E4A0E4B10791F
:10BA100083F838000021CCB2844203F101030BD239
:10BA2000147A83F83840547A83F86A4012F80C4F3D
:10BA300083F89C400131EEE710BD00BF1C150020CB
:10BA400028150020B4120020C44C0020F8B5444B47
:10BA50001B689847002507462E46ABB2BB427DD2F5
:10BA6000404B414C1B68984722780346082A73D8FC
:10BA7000DFE802F005090D15222F4A636900B52899
:10BA80006AD1012367E0622864D1022363E0374A68
:10BA90001070374A1070374A032310705BE0364A43
:10BAA0001070334A11780B44DBB21370314A1178AD
:10BAB0000B44137004234EE0304A10802C4A117856
:10BAC0000B44DBB213702B4A11780B44137005231F
:10BAD00041E02A4A118801EB002189B228481180EF
:10BAE00000220280224890F800C06344DBB2037059
:10BAF000204890F800C0B1F5187F6344037001D866
:10BB0000062328E0227027E0194A11780144C9B2BF
:10BB10001170184A107801441170194A1188B1F552
:10BB2000187F03D2481C108016484354134B1288C8
:10BB30001B889A4210D307230DE00D4A12788242E7
:10BB400008D1082307E00B4A1278824202D1FFF79E
:10BB500009FF01260023237001357EE73046F8BD3A
:10BB600014150020201500202C1500201C15002085
:10BB70001D1500202915002028150020B0120020D6
:10BB80002A150020B412002010B5054C01462046AD
:10BB900002F0DAFE20460021BDE8104002F0D4BEDB
:10BBA0000038004038B5064C03460D46204619467D
:10BBB00002F0CAFE20462946BDE8384002F0C4BE65
:10BBC0000038004010B5094C237873B108480821AB
:10BBD0000DF0C5FA074B00201978FFF7E3FF044882
:10BBE00008210DF0BAFA0023237010BD840C002048
:10BBF00000000240820C00202DE9F0410F469DF824
:10BC00001810C3EB031301EB430805461FFA88F82D
:10BC100014460AB1FFF7D6FF1F4808210DF09FFA1E
:10BC200014F0010F0CBF0021102114F0020F0CBF03
:10BC30000023082317F1FF3618BF012631431943AB
:10BC40000420FFF7AFFF05204FEA1821FFF7AAFFF6
:10BC500006205FFA88F1FFF7A5FF0024E3B2BB429C
:10BC60000FD235B128460FF0DFFBA04203D3295D88
:10BC700002E0294600E000210720FFF793FF01348E
:10BC8000ECE71EB10720FF21FFF78CFF02480821D7
:10BC9000BDE8F0410DF061BA000002402DE9F04727
:10BCA0002E4BDFF8EC9093F8D9322D4CDFF8E4807E
:10BCB0002C4F2D4E2D4D022B1DD108212C480DF05F
:10BCC0004EFAA020FFF760FF0821824628480DF0B9
:10BCD00044FA1AF0020F10D14FF4F073A9F80030B3
:10BCE00010232380482388F800304C233B704223E4
:10BCF000337040230FE0002BEED14FF4C373A9F84B
:10BD000000300D232380082388F800300C233B707B
:10BD10000223337000232B702388164A1648C3F37E
:10BD20004703191F01EBC10113704900134AC9B23F
:10BD300011701A1D02EBC202520003EBC303D2B210
:10BD40005B0002700A330E48DBB203700D480170CD
:10BD50000D490A700D4A1370BDE8F087EC4D0020C4
:10BD6000860C00208A0C0020830C00208B0C002005
:10BD70000000024033150020301500202E15002051
:10BD80002D15002031150020321500202F15002020
:10BD9000880C0020820C002010B51A4B93F8D83282
:10BDA0007BB3FFF77BFF184808210DF0D8F9174B3C
:10BDB00000201978FFF7F6FE082113480DF0CDF9A1
:10BDC000012002F0A9FF104808210DF0C8F9002455
:10BDD0000F4A1288E3B29A4204F1010406D904F131
:10BDE0000F00C0B20221FFF7DDFEF1E7094B002092
:10BDF0001978FFF7D7FE04480821BDE810400DF080
:10BE0000ACB910BDEC4D002000000240830C0020B6
:10BE1000860C0020820C002010B5194808210DF076
:10BE20009EF9184B00201978FFF7BCFE0821144832
:10BE30000DF093F94FF4FA7002F06EFF10480821EC
:10BE40000DF08DF90024104A1288E3B29A4204F1F1
:10BE5000010406D904F10F00C0B20221FFF7A2FECF
:10BE6000F1E70A4B00201978FFF79CFE642002F0EE
:10BE700053FF03480821BDE810400DF06EB900BF24
:10BE800000000240830C0020860C0020820C002061
:10BE900038B5224808210DF062F904200146FFF769
:10BEA00081FE08211D480DF058F9012002F034FFF1
:10BEB0001A4808210DF053F904200121FFF772FE02
:10BEC00005200021FFF76EFE06202121FFF76AFE04
:10BED0000024E5B207202946FFF764FE1823B5FBCE
:10BEE000F3F203FB1253DBB2172B0CD00134FF2CFF
:10BEF000EFD121460720FFF755FE08480821BDE88D
:10BF000038400DF02AB9062507200021013DFFF732
:10BF100049FE15F0FF05F7D1E8E700BF0000024039
:10BF200008B5A020FFF730FE8306FAD408BD000054
:10BF300038B504460D46164808210DF010F9154B8A
:10BF400000201978FFF72EFE21460920FFF72AFE70
:10BF50000024E1B20A20FFF725FE0F4B2B440B20F3
:10BF6000195D0134FFF71EFE362CF2D10820A02106
:10BF7000FFF718FEFFF7D4FF084B00201978FFF7F2
:10BF800011FE03480821BDE838400DF0E6B800BFB7
:10BF9000000002408B0C0020CD5802088A0C0020C3
:10BFA00038B5114D11482B6898470024104B1148A3
:10BFB0001B6821469847A10189B2E0B2FFF7B8FF9C
:10BFC0001E2002F0A9FE01342B680B489847B4F5F7
:10BFD000807FEBD1FFF720FFFFF75AFF024B0748A6
:10BFE0001B68984738BD00BFEC4B0020CD98020875
:10BFF000F04B00200A9902080E99020815990208D0
:10C000002DE9FF415D4D95F8DA22044612B1F2EEBA
:10C01000047A01E0DFED5A7A20EE270A60EEA77A73
:10C02000BDEEC00A574810EE107AFDEEE77ABFB2B7
:10C03000B0F900C017EE906A3BB29C45B6B280469C
:10C0400001D100293AD042B307F1630292B2C62A65
:10C050001BD80A2193FBF1F2002B01FB12331BB218
:10C06000ACBF4FF0200E4FF02D0E82EAE270A0EB35
:10C07000E270002BB8BF5B420090019302A8072139
:10C08000414A73460FF082F80CE04FF00A0E02A806
:10C0900007213E4A93FBFEF302E03D4A02A8072136
:10C0A0000FF074F895F8DD22009295F8DC3202A8C2
:10C0B00006210022FFF7A0FDA8F8007095F8DE32F7
:10C0C000002B57D044B9334B1A783AB11C70029404
:10C0D000ADF80C40012202E0002200E02246631E7F
:10C0E000032B3AD82B4B1978A14218462A4933B270
:10C0F00003D1B1F900709F422FD095F8DA22047075
:10C100000E8022B36336B6B2C62E19D80A2193FB2D
:10C11000F1F2002B01FB12331BB2ACBF20242D2403
:10C1200082EAE270A0EBE270002BB8BF5B420090A5
:10C13000019302A80721194A23460FF027F80DE0C2
:10C140000A2402A80721164A93FBF4F302E0154AD9
:10C1500002A807210FF01AF800E05AB195F8DD2285
:10C1600095F8DC320632D2B2009202A806210022F3
:10C17000FFF742FD04B0BDE8F08100BFEC4D0020A8
:10C18000E7FB5140760100203C99020848990208DB
:10C190004E9902087F0100207C010020549902087A
:10C1A00060990208669902082DE9F04F2DED048B85
:10C1B000DFED5B8AC0EEA88A87B0814603914FF01D
:10C1C0000008B0EE409A574B93F800A0564B18F871
:10C1D00003B0564B1B78504608EE103AFCF78CF82B
:10C1E00007EE10BAB8EE477A044617EE100A0D466D
:10C1F000FCF794F802460B4600204D49FBF72EFF52
:10C2000000224C4BFCF7DEF843A3D3E90023FCF7F4
:10C21000D9F8064619EE100A0F46FCF77FF80246D9
:10C220000B4630463946FCF7CDF802460B46204611
:10C230002946FBF715FF18EE103AC3EB0A0A07EE82
:10C2400010AAF8EEC77A044668EEA77A0D4617EEF4
:10C25000900AFCF763F802460B4620462946FBF796
:10C26000FFFEFCF771FB344B344C1B7801EE103AA7
:10C2700000EE100AF8EE480AB8EE411A0AF0BCFCCB
:10C28000BCEEC00A122610EE105A18F80430EDB2B7
:10C29000B5FBF6F69E4208D00020CDF800B0012193
:10C2A0000246FFF7A9FC04F808601223B5FBF3F27D
:10C2B00003FB125306A8803B00F8053D012114F84A
:10C2C0000830CDF800B0002208F10108FFF794FC17
:10C2D000B8F1060F7FF477AF194B1A784A451C4620
:10C2E00001D1039B9BB14FEA4902D2B2531C8DF896
:10C2F00014300232134B8DF815200E221B78009259
:10C3000005A802210022FFF777FC84F8009007B00F
:10C31000BDEC048BBDE8F08F666666666666F63F28
:10C32000DB0FC93E2D150020CC9902082E150020E8
:10C3300000002D400000284030150020AC0C0020EB
:10C340007401002033150020DFED987A2DE9F04FBD
:10C35000C0EEA70A964F974E974D8A460024814615
:10C360002DED028B3B783278991A07EE101AB8EE51
:10C37000C77AB0EE408A60EE877A87B0FDEEE77A42
:10C38000049417EE901A19442B788DF8144001EE9E
:10C39000103A07EE902A00EE101AF8EE670AB8EE8F
:10C3A000C00AB8EE411A0AF027FCBCEEC00A1222FD
:10C3B00010EE103ADBB2B3FBF2FB8DF8103002FB4B
:10C3C0001B337E4A803B8DF80A3013785FFA8BFB73
:10C3D0005B45904611D0072200922046012122465B
:10C3E000FFF70AFC162298F800300092204601213F
:10C3F0002246FFF701FC88F800B0072298F80030C9
:10C4000000920DF10A0001210022FFF7F5FB162230
:10C410000DF10A0098F80030009201210022FFF788
:10C42000EBFBDFED677A3B78327828EE278AF3EE74
:10C430000E7A68EE277A00EE902AFDEEE77AF8EEA3
:10C44000600A17EE901A591A2B7800EE101A01EEB6
:10C45000103AB8EEC00AB8EE411A0AF0CDFBDFED93
:10C46000597A3B78327828EE278ABCEEC00ABDEEB6
:10C47000C88A00EE902A18EE101A591A2B7810EE7E
:10C48000104A01EE103A00EE101AE4B2F8EE600A1B
:10C49000B8EE411AB8EEC00A8DF813400AF0ACFBB2
:10C4A000BCEEC00A3A78317810EE103ADBB2C3EB3A
:10C4B000420200EE102A2A788DF8143000EE901A0D
:10C4C00001EE102AF8EE600AB8EE411AB8EEC00A82
:10C4D0000AF092FBBCEEC00A2D78367810EE103AC6
:10C4E0008DF811303B78C4EB430300EE103A01EEB7
:10C4F000105A00EE906AB8EEC00AF8EE600AB8EE84
:10C50000411A0AF079FBBCEEC00A2C4D10EE103A2D
:10C5100000248DF8123006AA22446B7812F8076CBA
:10C52000294F4FF01208B6FBF8F8434508D03A5DA2
:10C530000092002001210246FFF75EFB85F8018092
:10C540001223B6FBF3F203FB126306A83A5D803BAD
:10C5500000F80D3D012115F8013F00920134002241
:10C56000FFF74AFB042CD6D1184B1A784A451C46D3
:10C5700002D1BAF1000F13D04FEA4902D2B2531CD4
:10C580008DF80C300232124B8DF80D200E221B78E4
:10C59000009203A802210022FFF72EFB84F80090EE
:10C5A00007B0BDEC028BBDE8F08F00BFDB0F493F49
:10C5B0002F1500203115002032150020900C00208E
:10C5C0003333B33F00005842389902087E010020FF
:10C5D00033150020DFED347A20EE270A2DE9FF41E4
:10C5E000BDEEC00A4FF4B47310EE104A24B294FBAF
:10C5F000F3F203FB1244A4B221042C4F44BFE4180D
:10C60000A4B2B7F9003026B2B342804601D1002867
:10C6100047D0274D95F8E1327BB10621254A3346B4
:10C6200002A80EF0B3FD95F8E32295F8E2320092ED
:10C6300002A805210022FFF7DFFA95F8E432002B6B
:10C640002ED00A22B7F9003096FBF2F6B6B293FB71
:10C65000F2F252B273B2934202D1B8F1000F1FD07E
:10C66000F6B2731FDBB21A0644BF1F36F3B20021C5
:10C670005AB2114E1148B25C0A540133DBB25AB2BD
:10C68000242A01F10101A8BF00230B29F0D195F85C
:10C69000E53295F8E6520022C2720095FFF7ACFA37
:10C6A0003C8004B0BDE8F081E02E654288010020A6
:10C6B000EC4D00206C990208A8990208A00C0020FB
:10C6C0002DE9F047574B584C584A94F8E71292ED31
:10C6D000007A2DED028B93ED008A554B88B006460B
:10C6E0001F8891469846002944D0F2EE047A67EEFE
:10C6F000277A504BFCEEE77A9A4617EE905AEDB245
:10C7000007EE905AB8EEE77AD3ED007AB4EE677A86
:10C71000F1EE10FA00D168B30A22B5FBF2F302FB86
:10C720001352D2B200921421434A03A80EF02EFDF8
:10C7300094F81C33D9ED007A94F8E922009207EEC0
:10C74000103AB8EE477A94F8E83287EE877A03A871
:10C750000721D4EDC87AB4EEE77AF1EE10FA54BFAF
:10C7600000220122FFF748FA07EE105AF8EE477A46
:10C77000CAED007A94F8EA32002B4DD02A4B93F898
:10C780000033002B48D0F2EE047A28EE278A2B4B98
:10C79000BCEEC88A994618EE105AEDB207EE905AD0
:10C7A000B8EEE77AD3ED007AB4EE677AF1EE10FADC
:10C7B00000D18EB3632D12D9B8F8000007EE100A2D
:10C7C000B8EE477A17EE100AFBF7A8FD1C4ACDE930
:10C7D00000012B4603A814210EF0D8FC0CE00A221D
:10C7E000B5FBF2F302FB1352D2B28DE8840003A82A
:10C7F0001421144A0EF0CAFC07EE105AF8EE477ADC
:10C8000094F8EC22C9ED007A94F8EB32009203A878
:10C810000B210022FFF7F0F908B0BDEC028BBDE858
:10C82000F08700BF544C0020EC4D0020584C0020F5
:10C83000384C002078010020729902088401002001
:10C840007C9902088799020870B5124A124C117837
:10C850002378994288B0154600D1C0B114210F4AFF
:10C8600003A80EF093FC0E49227891F8126391F818
:10C87000F13291F8F2120091964203A84FF00501AF
:10C8800094BF00220122FFF7B7F923782B7008B07C
:10C8900070BD00BF950C00200A0F00209699020879
:10C8A000EC4D00201A4B1B4A1988D2ED037A07EE93
:10C8B000101A30B5B8EEC77A85B0F4EE477AF1EECB
:10C8C00010FA15461C4600D1F8B1B6EE007A67EEB4
:10C8D000877A0521FCEEE77A0F4A17EE903A02A814
:10C8E0009BB20EF053FC0D4991F8EF2291F8EE3215
:10C8F000009202A804210022FFF77EF9D5ED037A09
:10C90000FCEEE77A17EE903A238005B030BD00BF09
:10C91000B20C00208C02002077420208EC4D00206F
:10C9200030B51C4B1B7885B00BB900292FD01A4CA1
:10C9300023681BB1194AC31A934201D9206000230E
:10C94000174D2A6813442B6000B12060154AB3FBD1
:10C95000F2F39AB2144B1888904200D1B9B13C213D
:10C960001A80B2FBF1F301FB132292B2009207216D
:10C970000E4A02A80EF00AFC0D4A92F8F43292F820
:10C98000F522009202A806210022FFF735F905B032
:10C9900030BD00BFCF0E00209C0C0020305705009A
:10C9A0008C0C002040420F00800100209D9902085D
:10C9B000EC4D0020F8B5454E96F8D83207460C46A7
:10C9C000002B00F08180424D2B6813F0802F00D1A6
:10C9D00081B196F8DB321BB93C4B93F8DE324BB198
:10C9E0003C4BDFED3D0A93ED0F0A3C4B2146187896
:10C9F000FFF706FB2B6813F0553F00D1DCB196F82A
:10CA0000DF3253B1334B93ED060AD3ED070A344BB3
:10CA100021461878FFF7C8FB0DE02C4B93F8E03265
:10CA20004BB12C4B93ED060AD3ED070A2C4B214654
:10CA30001878FFF789FC2B6813F0203F00D164B110
:10CA400096F8E1321BB9214B93F8E4322BB1254B18
:10CA5000204693ED000AFFF7BDFD2B6813F0801F01
:10CA600000D134B196F8F3321BB138462146FFF7B6
:10CA700057FF2B6813F0082F00D14CB196F8E7321E
:10CA80001BB9124B93F8EA3213B12046FFF718FE98
:10CA90002B6813F04A3F00D12CB196F8ED3213B158
:10CAA0002046FFF7FFFE2B6813F0801F00D12CB14A
:10CAB00096F8F03213B12046FFF7C6FE2A68044B01
:10CAC000520008BF01221A60F8BD00BFEC4D0020E3
:10CAD000980C0020AC4D002000000000D10E00207A
:10CAE000CC0E0020285100202DE9F0439DB0A84B2A
:10CAF0000E93A84B0F934FF4806313934FF400638E
:10CB00001493A54D4FF4005315934FF480730024F4
:10CB10004FF01009169328464FF400330DA91793D0
:10CB20000D9410941294189419941A941B94CDF89F
:10CB300044900CF0B1F9284601210CF0D7F94FF0E0
:10CB400000730D93303D954B0E930F27944B0F932D
:10CB500028460DA911970CF09FF9284601210CF0E9
:10CB6000C5F94FF0030801A98E488DF809408DF8EA
:10CB70000A408DF80B40CDF804808DF808800CF049
:10CB80009DFA01A93D23884801930CF097FA4FF4D0
:10CB9000803303A804930394059406940CF07AF868
:10CBA000079409940A940B9404F1804404F590349A
:10CBB000A5F5A135A5F5A0750126204607A98DF894
:10CBC00020608DF821608DF830900CF03DF82846FB
:10CBD00007A98DF830700CF037F82046324608214E
:10CBE00007230CF074F820460C21022207230CF0D6
:10CBF0006EF8204642460D2107230CF068F82046C7
:10CC00000A21042207230CF062F82046082105229D
:10CC100007230CF05CF820460C21062207230CF0B9
:10CC200056F80722204613460D210CF050F82046F6
:10CC30000A21082207230CF04AF82046082109227D
:10CC400007230CF044F820460C210A2207230CF09D
:10CC50003EF820460D210B2207230CF038F8204621
:10CC60000A210C2207230CF032F8204608210D225D
:10CC700007230CF02CF820460C210E2207230CF081
:10CC800026F820463A460D2107230CF020F84A46A4
:10CC9000072320460A210CF01AF8204631460CF0F2
:10CCA0006CF8204631460CF05FF8314620460CF017
:10CCB00005F820460CF053F8284632460E2107238B
:10CCC0000CF005F828460921022207230BF0FFFF8C
:10CCD00028463946424607230BF0F9FF28460E2125
:10CCE000042207230BF0F3FF28460921052207231E
:10CCF0000BF0EDFF28463946062207230BF0E7FF2D
:10CD00000722284613460E210BF0E1FF2846092191
:10CD1000082207230BF0DBFF2846394609220723A8
:10CD20000BF0D5FF28460E210A2207230BF0CFFF78
:10CD3000284609210B2207230BF0C9FF2846394654
:10CD40000C2207230BF0C3FF28460E210D220723D8
:10CD50000BF0BDFF284609210E2207230BF0B7FF79
:10CD60003A460723284639460BF0B1FF284631469C
:10CD70000CF003F8284631460BF0F6FF2846314602
:10CD80000BF09CFF28460BF0EAFF1DB0BDE8F083D6
:10CD90004C200140D20C0020706402404C21014024
:10CDA000B40C002000040240000802401C4B034465
:10CDB00013F8012C831E022B16D81346002102F112
:10CDC0000C00984207DB174830F813000333014486
:10CDD00089B2DBB2F3E707EE901AB8EE670AF1EE1C
:10CDE000047A80EE270A7047012802D113460021F9
:10CDF00005E005380228F9D99FED0B0A704702F1CA
:10CE00000C00984207DB094830F813000433014452
:10CE100089B2DBB2F3E700EE101ABBEECF0A70471F
:10CE2000D2990208B40C002000000000D20C0020AF
:10CE300010B50B4C94F8F602FFF7B8FFDFED097A56
:10CE400094EDBE7ADFED080A60EE277A94EDBF0A12
:10CE5000B1EE0C1AA7EE870ABDE8104009F0CCBE6F
:10CE6000EC4D00203333533A00000000884206D2D4
:10CE700050F8042B92FAA2F2014B1A60F6E77047C1
:10CE80000030024070B506460D464FF48050012137
:10CE9000084C0CF0A3FA0123A36000BF00BF00BF41
:10CEA00000BF30462946FFF7E1FF206890FAA0F066
:10CEB000C04370BD00300240534B984213B548D177
:10CEC0000123C02402228DF804308DF806304F482B
:10CED0000094002369468DF805208DF807300CF08A
:10CEE000EDF8214649480CF038F90824474840211C
:10CEF0000CF02DF918B9032001F0F2FEF6E74021FD
:10CF000042480CF02CF9032001F0EAFE3F48402192
:10CF10000CF023F9013C032001F0E2FE14F0FF04C1
:10CF2000E4D1802139480CF01AF9032001F0D8FE31
:10CF3000402136480CF013F9032001F0D1FE4021C6
:10CF400032480CF00AF9032001F0CAFE2F48802174
:10CF500052E02F4B984254D101234FF440640222F7
:10CF60008DF804308DF80630284800940023694677
:10CF70008DF805208DF807300CF0A0F821462348E5
:10CF80000CF0EBF8082421484FF480610CF0DFF836
:10CF900018B9032001F0A4FEF5E74FF480611B48A7
:10CFA0000CF0DDF8032001F09BFE18484FF480617F
:10CFB0000CF0D3F8013C032001F092FE14F0FF04C2
:10CFC000E1D14FF4006111480CF0C9F8032001F0E1
:10CFD00087FE4FF480610D480CF0C1F8032001F08A
:10CFE0007FFE4FF4806109480CF0B7F8032001F090
:10CFF00077FE06484FF400610CF0AFF8032001F013
:10D000006FFE02B010BD00BF00540040000402409B
:10D01000005800402DE9F3479B4C2068B0F814C03D
:10D020001FFA8CFC5FFA8CF313F0010636D00388EC
:10D0300023F400631B041B0C038001210CF070F926
:10D04000924B00221A70924A12781D46914BC2B13F
:10D05000914A117819B991490978FF2911D1012113
:10D0600011708F4A1278022A05D12268118889B27C
:10D0700041F4006111801978206801220CF048F910
:10D0800028E11978206800220CF042F9834B1B78C4
:10D09000FF2B00F01F81FF232B701BE103F0020226
:10D0A00002F0FF01002A42D0BFF35F8F7C4B1D7856
:10D0B000EDB2012D19D1764A1278B2B1764A1278C2
:10D0C0009AB131460CF02CF9BFF35F8F2068038BC7
:10D0D0002946DBB28DF807300CF00EF9714B206851
:10D0E0001D704FF480612A46F2E0028BD2B28DF8B7
:10D0F0000720BFF35F8F1A78022A09D1644A127899
:10D1000032B1654A12781AB100210CF009F9DBE05E
:10D110001B78032B07D15E4B1B7823B15E4B1B782A
:10D12000002B40F0D2804FF480610122D0E003F068
:10D13000040505F0FF08002D67D0554BDFF864812A
:10D140001A78554B012688F80060002A47D01A78D3
:10D15000002A44D0524B4D4D1B78534F022B23D9FC
:10D160000CF0DEF82B782068D7F800909A194FFA67
:10D1700083FA2A700CF0E2F8314609F80A002068B8
:10D180000CF0BAF82B7820683F6888F800609A198C
:10D190002A705DB20CF0D2F84FF4806178553246B7
:10D1A00020680CF0CEF82BE031460CF0A5F82B7877
:10D1B00020683E685A1C4FFA83F82A700CF0BEF8BB
:10D1C0002B7806F808005A1C20683E682A705FB267
:10D1D0000CF0B4F82B78F05501332B7010E01B786D
:10D1E000012113B9314B1B782BB10CF085F8274B7B
:10D1F0001A78013203E00CF073F8274B01221A7001
:10D2000022681388D805FCD464E003F0400303F0DF
:10D21000FF071E4D224EFBB1234B1F682B785A1C73
:10D220004FFA83F92A700CF089F807F8090095F98C
:10D230000030327803339A4205D120684FF4806180
:10D2400042460CF07EF82B7831785AB2914241D1A7
:10D250000E4A013313703DE01CF0800F3AD02A785B
:10D2600053B2591C26D0124909680132C95C2A7090
:10D270000CF062F8327895F900309A422AD1206891
:10D280004FF480613A4623E00C0D0020F80C00209A
:10D29000080D0020110D0020FC0C0020F30C0020D4
:10D2A000F40C0020FD0C0020040D0020F20C0020E6
:10D2B000000D0020144B2F7019780CF03DF8134B23
:10D2C0001B780BB933782BB920684FF480610022AA
:10D2D0000CF037F80E4B0F4A1B7892F900200133FF
:10D2E0009A420DD10C4B00221A700C4B1B7823B1C3
:10D2F00020684FF440710CF024F8094B00221A709A
:10D3000002B0BDE8F08700BFF30C0020080D00203C
:10D31000F40C0020F80C0020FC0C0020FD0C002078
:10D32000100D0020FFF776BEFFF774BE70B5534BAB
:10D33000984288B004464BD1FFF7BEFD5048062105
:10D3400004220BF012FF04224D4807210BF00DFFC1
:10D35000C02300250126029349488DF80E60022360
:10D3600002A98DF80C308DF80D308DF80F500BF0B0
:10D37000A5FE2A464FF4407120460BF0E2FF2046FE
:10D380000BF006FF3F4B04934BF6FF73ADF81630DE
:10D3900020464FF4804304A9ADF81C30ADF814507A
:10D3A000ADF81850ADF81A500BF020FF204631466A
:10D3B0000BF08AFF202301A88DF804308DF805506A
:10D3C0008DF806508DF807600BF008FC1F234EE027
:10D3D0002D4B984250D1FFF76FFD29480A210422B6
:10D3E0000BF0C3FE042226480B210BF0BEFE4FF4C7
:10D3F000406300250126029321488DF80E60022328
:10D4000002A98DF80C308DF80D308DF80F500BF00F
:10D4100055FE2A464FF4407120460BF092FF2046FD
:10D420000BF0B6FE174B04934BF6FF73ADF81630B6
:10D4300020464FF4804304A9ADF81C30ADF81450D9
:10D44000ADF81850ADF81A500BF0D0FE204631461A
:10D450000BF03AFF222301A88DF804308DF8055017
:10D460008DF806508DF807600BF0B8FB212301A85A
:10D470008DF804300BF0B2FB08B070BD00540040D2
:10D4800000040240801A06000058004037B51F4CC7
:10D490002068838A9BB20093009B13F4E06F29D02D
:10D4A000038B4FF480619BB2002201930BF049FF84
:10D4B000009B98051ED42068038899051AD4058816
:10D4C00005F48075ADB265B10388DA05FCD401219D
:10D4D0000BF012FF206803889B05FCD4FFF726FFA2
:10D4E00008E001210BF008FF20684FF440712A4644
:10D4F0000BF027FF2268938A23F470631B041B0C34
:10D500009382034B00221A7003B030BD0C0D002033
:10D51000100D0020FFF7BABFFFF7B8BFF0B5490004
:10D52000294E2A4CC9B23170294920600A70294A13
:10D5300029490126167000220A7085B027490A9DE4
:10D540000DEB02070F6026490F6026490B70264934
:10D55000102B0E700E4631D8D1B2994204D2A95C7C
:10D560000DF802100132F7E7838899050ED403887D
:10D57000DA0505D403889B05FCD401210BF0B0FE2D
:10D5800020684FF4407101220BF0DBFE47F230536C
:10D59000327812B1013BFBD100E08BB92068134B0C
:10D5A000984201D1124B03E0124B984204D1124B26
:10D5B0001A88013292B21A80FFF7B8FE002000E00C
:10D5C000012005B0F0BD00BF110D00200C0D0020A2
:10D5D000F30C0020F20C0020080D0020000D0020AC
:10D5E000040D0020F40C0020100D00200054004019
:10D5F000FA0C002000580040F60C00201FB504ACC7
:10D6000004F8013D01230094FFF788FF04B010BD2A
:10D6100070B54900224E049D224CC9B23170224996
:10D6200020600A70214A00211170214901220A70EC
:10D6300020490D6020490D6020490B70204B1A7065
:10D64000828812F4007F1D460ED10388DA0505D4C6
:10D6500003889B05FCD401210BF042FE20684FF4A7
:10D66000407101220BF06DFE47F230532A7812B15F
:10D67000013BFBD100E08BB92068124B984201D1ED
:10D68000114B03E0114B984204D1114B1A8801321F
:10D6900092B21A80FFF74AFE002070BD012070BDD3
:10D6A000110D00200C0D0020F30C0020F20C0020C6
:10D6B000080D0020040D0020000D0020F40C0020B7
:10D6C000100D002000540040FA0C002000580040CB
:10D6D000F60C0020F7B5194C194D63230093012770
:10D6E00000230226204669468DF806308DF8073063
:10D6F0008DF804708DF805600BF0E0FC902328464F
:10D70000694600930BF0DAFC204620210BF027FD40
:10D71000204640210BF023FD284680210BF01FFD01
:10D72000204639460BF01BFD204631460BF017FD15
:10D73000284610210BF013FD03B0F0BD001002408D
:10D74000000C02402DE9F0416048614EDFF8948101
:10D750008AB0062103220BF008FD5C480721032252
:10D760000BF003FD5948082103220BF0FEFC57483B
:10D77000092103220BF0F9FC56480F2101220BF07E
:10D78000F4FC5548032101220BF0EFFC5248042120
:10D7900002220BF0EAFC02224F4805210BF0E5FCC7
:10D7A00000244FF4004302274A48009369468DF84D
:10D7B00004708DF805708DF806408DF807400BF069
:10D7C0007DFC38234448009369460BF077FC4FF406
:10D7D00070733E48009369460BF070FCB6F8C03099
:10D7E000ADF8104098FBF3F39BB2013B03934FF06D
:10D7F0008040292302A9ADF80830ADF80A408DF821
:10D8000012400BF00BFF354802A90BF007FF702305
:10D81000ADF814304FF4FA63012507934FF08040C0
:10D820004FF4807305A9ADF82430ADF81650ADF86B
:10D830001840ADF82070ADF82240ADF826400BF04E
:10D8400045FF4FF0804005A90BF078FF234805A95C
:10D850000BF03CFF214805A90BF070FF1F4805A9FC
:10D860000BF0B0FF1D4805A90BF0EEFF4FF0804014
:10D8700029460BF01EFF194829460BF01AFF1748DE
:10D8800029460CF0B1F896F8D83063B9B6F8E03014
:10D89000D6ED3A7A98FBF3F39BB2FCEEE77A013BC4
:10D8A0000393CDED077A02A90D480BF0B7FE05A949
:10D8B0000B480BF00BFF05A909480BF03FFF084888
:10D8C00001210BF0F6FE0AB0BDE8F081000802402D
:10D8D000EC4D002000000240000402400004014022
:10D8E0000004004080841E00024B53F82030196071
:10D8F000704700BFDC990208F0B5324D02218BB0B1
:10D9000028460A460BF031FC2846012102220BF082
:10D910002CFC2846022200210BF027FC00240227C1
:10D9200007232846694600938DF804708DF805702A
:10D930008DF806408DF807400BF0C0FB224B234AC0
:10D94000B3F8C230ADF8104092FBF3F39BB2A5F5EB
