:020000040800F2
:100000000000022055AC00080564010807640108DF
:10001000096401080B6401080D6401080000000078
:100020000000000000000000000000000F64010854
:10003000116401080000000013640108BDE100081C
:1000400011AD000811AD000811AD000811AD000898
:1000500011AD000811AD000811AD000811AD000888
:1000600011AD000811AD000811AD000811AD000878
:1000700011AD000811AD00087DEE000811AD0008BB
:1000800011AD000889EB000811AD000811AD0008A2
:1000900011AD000811AD000811AD000811AD000848
:1000A00011AD000811AD000811AD000895D700088A
:1000B00011AD000811AD0008F1D6000821CF0008ED
:1000C00005D3000825CF000801D3000811AD0008B2
:1000D00011AD000811AD000811AD0008A5DB000846
:1000E00011AD000811AD00081564010811AD00083C
:1000F00011AD000811AD000811AD000811AD0008E8
:1001000011AD000811AD000811AD000811AD0008D7
:10011000D9DB000811AD00080DDC000811AD0008A6
:1001200011AD000811AD000811AD000811AD0008B7
:1001300011AD000811AD000811AD000811AD0008A7
:1001400011AD000811AD000811AD000845640108AB
:1001500011AD000811AD0008B1E8000811AD0008AC
:1001600011AD000811AD000811AD000811AD000877
:1001700011AD000811AD000811AD000811AD000867
:0801800011AD000811AD0008EB
:1080000010B5054C237833B9044810B10448AFF3D8
:1080100000800121217010BD200C00200000000014
:10802000B005030808B5064B1BB106480649AFF377
:1080300000800648016811B1054A02B1904708BDA9
:1080400000000000B0050308240C0020200C0020D4
:108050000000000081F0004102E000BF83F0004317
:1080600030B54FEA41044FEA430594EA050F08BFD3
:1080700090EA020F1FBF54EA000C55EA020C7FEA97
:10808000645C7FEA655C00F0E2804FEA5454D4EB14
:108090005555B8BF6D420CDD2C4480EA020281EADE
:1080A000030382EA000083EA010180EA020281EA16
:1080B0000303362D88BF30BD11F0004F4FEA013168
:1080C0004FF4801C4CEA113102D0404261EB410177
:1080D00013F0004F4FEA03334CEA133302D05242FD
:1080E00063EB430394EA050F00F0A780A4F10104B9
:1080F000D5F1200E0DDB02FA0EFC22FA05F28018F3
:1081000041F1000103FA0EF2801843FA05F35941D8
:108110000EE0A5F120050EF1200E012A03FA0EFC57
:1081200028BF4CF0020C43FA05F3C01851EBE37181
:1081300001F0004507D54FF0000EDCF1000C7EEB9E
:1081400000006EEB0101B1F5801F1BD3B1F5001FDC
:108150000CD349085FEA30004FEA3C0C04F10104FB
:108160004FEA445212F5800F80F09A80BCF1004F24
:1081700008BF5FEA500C50F1000041EB045141EAA6
:10818000050130BD5FEA4C0C404141EB010111F4A7
:10819000801FA4F10104E9D191F0000F04BF014652
:1081A0000020B1FA81F308BF2033A3F10B03B3F130
:1081B00020020CDA0C3208DD02F1140CC2F10C02C0
:1081C00001FA0CF021FA02F10CE002F11402D8BF1E
:1081D000C2F1200C01FA02F120FA0CFCDCBF41EAEA
:1081E0000C019040E41AA2BF01EB0451294330BDB9
:1081F0006FEA04041F3C1CDA0C340EDC04F1140496
:10820000C4F1200220FA04F001FA02F340EA03006C
:1082100021FA04F345EA030130BDC4F10C04C4F1B2
:10822000200220FA02F001FA04F340EA0300294692
:1082300030BD21FA04F0294630BD94F0000F83F4DC
:10824000801306BF81F480110134013D4EE77FEABF
:10825000645C18BF7FEA655C29D094EA050F08BF0B
:1082600090EA020F05D054EA000C04BF19461046EC
:1082700030BD91EA030F1EBF0021002030BD5FEA30
:10828000545C05D14000494128BF41F0004130BD58
:1082900014F580043CBF01F5801130BD01F00045AC
:1082A00045F0FE4141F470014FF0000030BD7FEA1F
:1082B000645C1ABF194610467FEA655C1CBF0B461A
:1082C000024650EA013406BF52EA033591EA030F31
:1082D00041F4002130BD00BF90F0000F04BF002129
:1082E000704730B54FF4806404F132044FF000055C
:1082F0004FF0000150E700BF90F0000F04BF0021D5
:10830000704730B54FF4806404F1320410F000453A
:1083100048BF40424FF000013EE700BF42004FEA35
:10832000E2014FEA31014FEA02701FBF12F07F43B2
:1083300093F07F4F81F06051704792F0000F14BFAF
:1083400093F07F4F704730B54FF4607401F00045F3
:1083500021F0004120E700BF50EA010208BF70474A
:1083600030B54FF000050AE050EA010208BF70473F
:1083700030B511F0004502D5404261EB41014FF4A8
:10838000806404F132045FEA915C3FF4DCAE4FF0AC
:1083900003025FEADC0C18BF03325FEADC0C18BF93
:1083A000033202EBDC02C2F1200300FA03FC20FAE4
:1083B00002F001FA03FE40EA0E0021FA02F1144431
:1083C000C1E600BF70B54FF0FF0C4CF4E06C1CEA46
:1083D00011541DBF1CEA135594EA0C0F95EA0C0FBB
:1083E00000F0DEF82C4481EA030621EA4C5123EA2E
:1083F0004C5350EA013518BF52EA033541F480115D
:1084000043F4801338D0A0FB02CE4FF00005E1FB0F
:1084100002E506F00042E0FB03E54FF00006E1FB59
:1084200003569CF0000F18BF4EF0010EA4F1FF049C
:10843000B6F5007F64F5407404D25FEA4E0E6D41DC
:1084400046EB060642EAC62141EA55514FEAC520ED
:1084500040EA5E504FEACE2EB4F1FD0C88BFBCF569
:10846000E06F1ED8BEF1004F08BF5FEA500E50F11A
:10847000000041EB045170BD06F0004646EA0101E0
:1084800040EA020081EA0301B4EB5C04C2BFD4EB12
:108490000C0541EA045170BD41F480114FF0000E0B
:1084A000013C00F3AB8014F1360FDEBF002001F079
:1084B000004170BDC4F10004203C35DA0C341BDCF3
:1084C00004F11404C4F1200500FA05F320FA04F0C5
:1084D00001FA05F240EA020001F0004221F00041F9
:1084E00010EBD37021FA04F642EB06015EEA430E6C
:1084F00008BF20EAD37070BDC4F10C04C4F120059C
:1085000000FA04F320FA05F001FA04F240EA02004E
:1085100001F0004110EBD37041F100015EEA430E1F
:1085200008BF20EAD37070BDC4F1200500FA05F23F
:108530004EEA020E20FA04F301FA05F243EA0203BE
:1085400021FA04F001F0004121FA04F220EA0200CD
:1085500000EBD3705EEA430E08BF20EAD37070BD13
:1085600094F0000F0FD101F00046400041EB0101F3
:1085700011F4801F08BF013CF7D041EA060195F0D5
:10858000000F18BF704703F00046520043EB03038F
:1085900013F4801F08BF013DF7D043EA060370477C
:1085A00094EA0C0F0CEA135518BF95EA0C0F0CD087
:1085B00050EA410618BF52EA4306D1D181EA0301CD
:1085C00001F000414FF0000070BD50EA410606BFC7
:1085D0001046194652EA430619D094EA0C0F02D10C
:1085E00050EA013613D195EA0C0F05D152EA033651
:1085F0001CBF104619460AD181EA030101F000416F
:1086000041F0FE4141F470014FF0000070BD41F0B7
:10861000FE4141F4780170BD70B54FF0FF0C4CF491
:10862000E06C1CEA11541DBF1CEA135594EA0C0FB0
:1086300095EA0C0F00F0A7F8A4EB050481EA030EFD
:1086400052EA03354FEA013100F088804FEA0333E4
:108650004FF0805545EA131343EA12634FEA0222B2
:1086600045EA111545EA10654FEA00260EF0004173
:108670009D4208BF964244F1FD0404F5407402D2C5
:108680005B084FEA3202B61A65EB03055B084FEA56
:1086900032024FF480104FF4002CB6EB020E75EB53
:1086A000030E22BFB61A754640EA0C005B084FEA7B
:1086B0003202B6EB020E75EB030E22BFB61A7546F8
:1086C00040EA5C005B084FEA3202B6EB020E75EB43
:1086D000030E22BFB61A754640EA9C005B084FEABB
:1086E0003202B6EB020E75EB030E22BFB61A7546C8
:1086F00040EADC0055EA060E18D04FEA051545EAB7
:1087000016754FEA06164FEAC30343EA52734FEA5F
:10871000C2025FEA1C1CC0D111F4801F0BD141EAD8
:1087200000014FF000004FF0004CB6E711F4801F3D
:1087300004BF01430020B4F1FD0C88BFBCF5E06F1D
:108740003FF6AFAEB5EB030C04BFB6EB020C5FEA2D
:10875000500C50F1000041EB045170BD0EF0004E82
:108760004EEA113114EB5C04C2BFD4EB0C0541EAB4
:10877000045170BD41F480114FF0000E013C90E6B1
:1087800045EA060E8DE60CEA135594EA0C0F08BF75
:1087900095EA0C0F3FF43BAF94EA0C0F0AD150EA74
:1087A00001347FF434AF95EA0C0F7FF425AF104607
:1087B00019462CE795EA0C0F06D152EA03353FF42F
:1087C000FDAE1046194622E750EA410618BF52EAAC
:1087D00043067FF4C5AE50EA41047FF40DAF52EA80
:1087E00043057FF4EBAE12E74FF0FF3C06E000BF1D
:1087F0004FF0010C02E000BF4FF0010C4DF804CD2A
:108800004FEA410C7FEA6C5C4FEA430C18BF7FEAE9
:108810006C5C1BD001B050EA410C0CBF52EA430C17
:1088200091EA030F02BF90EA020F0020704710F197
:10883000000F91EA030F58BF994208BF90422CBF26
:10884000D8176FEAE37040F0010070474FEA410C1F
:108850007FEA6C5C02D150EA013C07D14FEA430C3D
:108860007FEA6C5CD6D152EA033CD3D05DF8040BAE
:10887000704700BF8446104662468C4619466346E0
:1088800000E000BF01B5FFF7B7FF002848BF10F1B7
:10889000000F01BD4DF808EDFFF7F4FF0CBF0120FC
:1088A00000205DF808FB00BF4DF808EDFFF7EAFF78
:1088B00034BF012000205DF808FB00BF4DF808ED33
:1088C000FFF7E0FF94BF012000205DF808FB00BF28
:1088D0004DF808EDFFF7CEFF94BF012000205DF8B2
:1088E00008FB00BF4DF808EDFFF7C4FF34BF0120BF
:1088F00000205DF808FB00BF4FEA410212F50012AC
:1089000015D211D56FF47873B3EB625212D94FEAD6
:10891000C12343F0004343EA505311F0004F23FAC0
:1089200002F018BF404270474FF00000704750EA15
:10893000013005D111F0004008BF6FF000407047D2
:108940004FF00000704700BF4FEA4102B2F1E04330
:1089500024BFB3F5001CDCF1FE5C0DD901F0004C26
:108960004FEAC0024CEA5070B2F1004F40EB830076
:1089700008BF20F00100704711F0804F21D113F1A2
:108980003872BCBF01F00040704741F480114FEADB
:108990005252C2F11802C2F1200C10FA0CF320FA64
:1089A00002F018BF40F001004FEAC1234FEAD32381
:1089B00003FA0CFC40EA0C0023FA02F34FEA4303EB
:1089C000CCE77FEA625307D150EA01331EBF4FF074
:1089D000FE4040F44000704701F0004040F0FE408F
:1089E00040F40000704700BF4BB942B9002908BFEE
:1089F000002802D04FF0FF31084600F037B882B0AF
:108A0000EC462DE9005000F01BF8DDF804E002B060
:108A10000CBC7047F8B5164604460D461F4600F0DC
:108A200027F806FB01F300FB0737A6FB0023FB1822
:108A3000A21A65EB0303069CC4E90023F8BD00BF3E
:108A4000F8B5164604460D461F4600F06FF900FBC8
:108A500007F7A0FB062306FB0177FB18A21A65EBBC
:108A60000303069CC4E90023F8BD00BF704700BFA4
:108A700000292DE9F00F1D46C0F29D800024002D35
:108A8000C0F2948080460F4694461E46E3BB8A425D
:108A900055D9B2FA82F747B1C7F1200520FA05F699
:108AA00001FA07F1BA403143B840170CB1FBF7F6B1
:108AB000030C1FFA82FC07FB16110CFB06F543EAB8
:108AC00001439D4208D9711E9B1880F013819D427D
:108AD00040F21081023E9B18591BB1FBF7F507FBD2
:108AE000151380B20CFB05FC40EA03418C4507D905
:108AF0006B1E8A1880F00081944540F2FD80023D93
:108B000045EA0641002503E08B420CD900252946A1
:108B10000A462B4614B1524263EB430310461946F2
:108B2000BDE8F00F7047B3FA83F5002D40F0878061
:108B30008B4201D38242EAD800250121E8E712B92D
:108B40000126B6FBF2F2B2FA82F6002E39D18E1A65
:108B5000130C1FFA82FC0125B6FBF3F703FB176128
:108B60004FEA10490CFB07F849EA0146B04506D91F
:108B7000791EB61802D2B04500F2D3800F46C8EB7A
:108B80000606B6FBF3F103FB116380B20CFB01FC9C
:108B900040EA03439C4506D94E1E9A1802D29445DA
:108BA00000F2C280314641EA0741B1E7E443524254
:108BB00063EB430366E7404261EB41014FF0FF3452
:108BC0005DE7B240C6F1200921FA09F720FA09F55C
:108BD000130C01FA06F1B7FBF3F845EA01091FFA95
:108BE00082FC03FB18774FEA19410CFB08F541EAB8
:108BF0000747B040BD420AD9BF1808F1FF3680F0E0
:108C00008E80BD4240F28B80A8F10208BF18791B0C
:108C1000B1FBF3F503FB15171FFA89F90CFB05F6F9
:108C200049EA07418E4206D96F1E891871D28E42D9
:108C30006FD9023D89188E1B45EA08458CE7C5F1BE
:108C4000200122FA01F306FA05F61E4327FA01F283
:108C50004FEA164907FA05F720FA01F1B2FBF9F8D5
:108C60000F433B0C1FFA86FA09FB18220AFB08FB8C
:108C700043EA024293450CFA05FC08D9921908F11F
:108C8000FF314AD2934548D9A8F102089219CBEB9B
:108C90000203B3FBF9F109FB1132BFB20AFB01FA7F
:108CA00047EA02439A4506D94A1E9B1933D29A4590
:108CB00031D902399B1941EA08410F0C1FFA8CF88F
:108CC00008FB07F68AB24FEA1C4C08FB02F80CFBC3
:108CD000026202EB18420CFB07FC964288BF0CF5BF
:108CE000803CCAEB03030CEB124C63450ED305D05A
:108CF00000250DE70E46EFE61D4601E71FFA88F84E
:108D000000FA05F008EB0245A842F1D2013900252E
:108D1000FEE63D468FE71146CDE78846B7E7B04609
:108D200075E7023FB6182AE702393CE72DE9F0075C
:108D3000144605460E46002B3DD18A4249D9B2FA67
:108D400082F747B1C7F1200120FA01F206FA07F6CF
:108D5000BC401643BD40220CB6FBF2F02F0CA1B272
:108D600002FB106601FB00F347EA0646B34208D94E
:108D7000471E361980F0F880B34240F2F580023881
:108D80003619F61AB6FBF2F302FB1362ADB201FB21
:108D900003F145EA0242914207D95E1E121980F0A2
:108DA000E580914240F2E280023B43EA004000212C
:108DB000BDE8F00770478B4243D8B3FA83F4002C28
:108DC00042D18B4202D3824200F2DF800021012097
:108DD000EEE712B90127B7FBF2F4B4FA84F2002AE5
:108DE00040F088800A1B230CA7B20121B2FBF3F6E6
:108DF00003FB16224FEA154C07FB06F04CEA024231
:108E0000904207D9121906F1FF3C02D2904200F2BB
:108E1000CE806646121AB2FBF3F003FB1023ADB20C
:108E200007FB00F745EA03439F4207D9421E1B197F
:108E300080F09E809F4240F29B80023840EA0640CC
:108E4000B6E700210846B3E7C4F1200622FA06F58A
:108E500003FA04F32B434FEA134C21FA06F501FA07
:108E600004F120FA06F6B5FBFCF746EA010A1FFA00
:108E700083F80CFB17554FEA1A4108FB07F941EA42
:108E80000545A94502FA04F203D97E1EED187FD3E9
:108E90003746C9EB0501B1FBFCF60CFB16151FFAB2
:108EA0008AFA08FB06F84AEA0541884503D9751E87
:108EB000C91873D32E4646EA0746370C1FFA82FCC0
:108EC0000CFB07F5120CB3B20CFB03FC02FB0353C3
:108ED00003EB1C4302FB07F29D4288BF02F5803280
:108EE000C8EB010102EB134291424BD342D0304612
:108EF00000215DE79440C2F1200521FA05F6230C1C
:108F000020FA05F701FA02F1B6FBF3FC39430D0C28
:108F1000A7B203FB1C6645EA064607FB0CF8B04502
:108F200000FA02F508D936190CF1FF303DD2B045F0
:108F30003BD9ACF1020C3619C8EB0602B2FBF3F0D8
:108F400003FB10268AB242EA064207FB00F1914277
:108F500006D9461E121926D2914224D90238121976
:108F6000521A40EA0C4141E738460AE733461CE70B
:108F7000104663E71FFA8CFC00FA04F00CEB034385
:108F80009842B4D2701E002112E7214620460FE716
:108F9000A9457FF67DAF023FED187AE7884589D96C
:108FA000023EC91887E73046DAE78446C4E7023E46
:108FB00012192FE770B508210646012010F0E2FAD9
:108FC000044618B90B4811F00DFE11E00136B60049
:108FD000304611F06DF80546206028B1304611F09A
:108FE00067F80546606018B9024811F0FBFD2C4691
:108FF000204670BDFC44020870B54821054601209A
:1090000010F0C0FA044618B9144811F0EBFD22E044
:109010000135AD00284611F04BF80646A06258B164
:10902000284611F045F80646E06228B1284611F0BE
:109030003FF80646206320B9084811F0D3FD3446B6
:1090400009E0284611F034F80546606318B9034872
:1090500011F0C8FD2C46204670BD00BF2D4502080A
:1090600038B50C210546012010F08CFA0446681C26
:109070008500284611F01CF82060284611F018F8E9
:109080006060284611F014F8A060204638BD10B585
:109090000446806A18B111F013F80023A362E06A55
:1090A00018B111F00DF80020E062206B18B111F03A
:1090B00007F800212163606B18B111F001F800225C
:1090C0006263204610F0FCFF012010BD10B504467D
:1090D000006818B110F0F4FF00232360606818B135
:1090E00010F0EEFF00206060204610F0E9FF012044
:1090F00010BD10B50446006818B110F0E1FF002360
:109100002360606818B110F0DBFF00206060A06889
:1091100018B110F0D5FF0021A160204610F0D0FF5B
:10912000012010BD0000000090ED017AD0ED007A22
:1091300027EE070A07EEA70A836870B5C1ED047A27
:1091400081ED057A8B61044610EE100A0E46FFF79A
:10915000E5F841EC100B16F045FC51EC100BFFF755
:10916000F3FB94ED021A00EE900A61EE011A40EE54
:10917000A01AF06011EE900AFFF7D0F841EC100B46
:1091800016F030FC51EC100BFFF7DEFBB06070699D
:10919000FFF7C4F8044630690D46FFF7BFF845EC09
:1091A000104B41EC110B16F067FA13A3D3E900231F
:1091B00051EC100BFFF706F9FFF7C6FB3060B06902
:1091C000FFF7ACF80446F0680D46FFF7A7F845EC4A
:1091D000104B41EC110B16F04FFA07A3D3E9002313
:1091E00051EC100BFFF7EEF8FFF7AEFB70600120BB
:1091F00070BD00BFAFF30080F8C1631ADCA54C401E
:10920000F0B5D0ED056A90ED047A66EEA07A47EEEF
:10921000007A2DED068B90ED038A90ED06AAC7EE3D
:10922000889A064685B04AEE017AD0ED028AB0EE01
:10923000419A86ED0E1A87EEA81A80ED0C0A26EEEA
:10924000800A17EE200A80ED0A1AC0ED0D0AC0ED63
:109250000B9A10EE100AFFF761F81DA3D3E9002363
:10926000FFF7B0F868EE080A044610EE900A0D46C3
:10927000FFF754F86AEE299A02460B462046294623
:10928000FFF7CAF958EE099AFFF75EFB074630620E
:1092900019EE900AFFF742F80DA3D3E90023FFF778
:1092A00091F868EEA88A044618EE900A0D46FFF77A
:1092B00035F802460B4620462946FFF7ADF9FFF781
:1092C00043FBF7637062012005B0BDEC068BF0BD77
:1092D000F8C1631ADCA54C4084B02DE970432DED34
:1092E000068B0CAC84E80F001398179EFFF716F856
:1092F00058A3D3E90023FFF765F841EC100B41ECCC
:10930000180B15F091FF59EC108BB0EE480AF0EEF7
:10931000680A16F07DF851EC100BFFF715FBDDED38
:109320000F9A08EE100A0C98FEF7F8FF69EE887A9B
:10933000044627EE880A0D4610EE100AFEF7EEFFEF
:1093400002460B4600204249FEF788FE41EC100B16
:109350009DED149A16F046FB204653EC102B29463F
:10936000FFF75AF9FFF7F0FA49460AEE100A4046AD
:10937000FFF7EAFA7AEE098A00EE900A1AEE100A6E
:1093800068EEA08AFEF7CAFF044619EE900A0D4661
:10939000FEF7C4FF02460B4600202D49FEF75EFE95
:1093A00002460B4620462946FFF70CF8044619EE04
:1093B000100A0D46FEF7B2FF02460B46204629462C
:1093C000FEF74EFE044618EE100A0D46FEF7A6FF05
:1093D00002460B4620462946FEF7F4FFFFF7B4FA93
:1093E00008EE100A28EE081A08EEA81A11EE100A64
:1093F000FEF794FF41EC100B16F0F4FA51EC100B51
:10940000FFF7A2FA01EE900A88EE218AB06018EE0A
:10941000100AFEF783FF41EC100B16F0CFF80AA3F9
:10942000D3E9002351EC100BFEF7CCFFFFF78CFAC9
:10943000129B706033600120BDEC068BBDE8704369
:1094400004B07047AFF30080F8C1631ADCA54C404C
:109450000000F03F399D52A246DF913FAFF30080FC
:1094600084B02DE9F04F2DED048B89B016AC84E863
:109470000F0011EE900A12EE905AB0EE429AB0EE42
:10948000608AFEF74BFFDDED177A38EE670A8046FB
:1094900010EE100A8946FEF741FF2DA3D3E9002301
:1094A000FEF790FFFFF750FAFEF738FF41EC100B84
:1094B00041EC180B15F0ACFF28465BEC10ABFEF747
:1094C0002DFFB0EE480AF0EE680A04460D4615F08E
:1094D000ABFE52465B464046494657EC106BFEF7E2
:1094E00071FF3246CDE900013B4620462946FEF792
:1094F00069FF02460B46DDE90001FEF7B1FDFFF70B
:1095000023FA1B9B3246986049463B464046FEF78D
:1095100059FF524606460F465B4620462946FEF74F
:1095200051FF02460B4630463946FEF797FDFFF7DE
:109530000BFA1B9C206084ED019A012009B0BDEC60
:10954000048BBDE8F04F04B0704700BFAFF300805C
:10955000399D52A246DF913F84B070B52DED048B4A
:1095600084B00CAC84E80F0010EE100AF0EE419AC3
:109570008DED031A8DED010ACDED020AFEF7CEFE48
:1095800035A3D3E90023FEF71DFF41EC100B41EC9E
:10959000180B15F049FE51EC100BFFF7D5F9B0EEA2
:1095A000480AF0EE680A09EE100A15F031FF51EC96
:1095B000100BFFF7C9F99DED111A81EE293A139CA2
:1095C000129D2168012307EE900A23EE037AA1EC95
:1095D000017AAB4207DC51ED013A23EE834A0133B5
:1095E000A1EC014AF5E762684FF07E53136017EE75
:1095F000900AA36819EE106A0021196042F8046FFE
:1096000043F8040F11461C46022004310433A842DB
:1096100019DC13ED010A51ED016A67EE800A59EE7B
:10962000260A013010EE906A42F8046F13ED012A09
:1096300051ED011A69EE022A47EEA12A12EE906A54
:1096400044F8046FE1E7012004B0BDEC048BBDE8F1
:10965000704004B0704700BF399D52A246DF913F71
:109660002DE9F04F2DED048BF0EEC07AB7EE009AA5
:1096700085B0F4EE497AF1EE10FA02900391B0EE63
:10968000408A904604D1C74811F0ACFA0020C0E1EE
:1096900002F1010302F102045C43022094FBF0F1A9
:1096A0004C1C04FA00F4204610F002FD834680B101
:1096B000204610F0FDFC814658B1204610F0F8FC21
:1096C000824630B14FEA48060136A9F1040700246A
:1096D00001E0B548D8E7B44213DC08EE904AF8EE52
:1096E000E80A013410EE900AFEF718FE41EC100B68
:1096F00016F078F951EC100BFFF726F947F8040F34
:10970000E9E7022309F108011A4643454FDC571CDB
:10971000BE005D005F1E681E00EE903A06EE107AF5
:1097200008EE900AB8EEE03AF8EEC66AF8EEE87A8B
:1097300086EE831A0BEB06044FEA820E56440BEBBF
:109740000E050195D6440D46012087EE835A86ED1D
:10975000001A84ED005A0C4616EE10CA461C04345A
:10976000844500EB02071EDD55ED023A14ED014A77
:10977000D4ED001A63EE844A87EEA17ADDF804C0C6
:10978000B0000CEB0007704484EEA10A15ED012A2D
:10979000C7EE022A043DC0EE025AC7ED002AC0ED12
:1097A000005A3046D8E7BA1C01330431ADE718EE51
:1097B000100AFEF7B3FD04460D4622462B46002054
:1097C0007A49FEF74BFC002206460F462046294602
:1097D000764BFEF745FC02460B4630463946FEF70F
:1097E000F1FD41EC100B16F0FDF8DFED718A029CE3
:1097F000039D84ED009A51EC100BC5ED008AB8F181
:10980000000F00F00581FFF79FF807EE900A84ED46
:10981000018AF0EE485A686002230121B7EE000A7F
:10982000434529DCC9188A000BEB0204D4ED006A19
:109830000AEB0205D5ED001A28EE261A20EE212AA1
:1098400011EE252AF0EE653A07EE103A48EE423A5C
:10985000F8EEC72A029E039C22EEA34AB018C4EE7B
:10986000274AA218013380ED002AB0EE650AC2ED46
:10987000004AF0EE425AD3E789EE287A09F10C014A
:1098800001230022D9ED026A66EEA86A984540F3EA
:109890009180D1ED005A51ED013A66EEA52A27EEEE
:1098A000277AC2EEA36AD7187A1C029D039C900007
:1098B0002E182718D018441C03988C4605EE103A31
:1098C00026EE874AB8EEC56A86EEA55A0133C4EE85
:1098D000254A68EE251A03EE903A26EE080AB8EEFD
:1098E000E34A21EE856AC6ED004A60EE240A26EEC0
:1098F000072A68EE044A65EE072A24EE820A12EE71
:10990000A50A80EEA73A2E46C0EE275AB1EE431ABA
:1099100087ED001AA700ED19C71985ED002A581C1C
:10992000C7ED005A09F10407404539DC2418A500A9
:109930000BEB050EDEED000A0AEB050696ED001AAC
:1099400028EE203A029E65EE011A53EE061A06EB47
:10995000050E04EE900A039E0CF1040C75190437F1
:109960006646B8EEE40AD6ED002A97ED005A21EEDD
:10997000872A60EE085A62EE853A26EE074A65EEBF
:10998000820A53EE840A8EED002A80EEA73A3E4604
:109990000130B0EE465A85ED003AB0EE616AC3E799
:1099A000083173E763680208A34702080000F03F2C
:1099B0000000000009EBC80393ED006A86EE860AFA
:1099C000B8F1010FACBF424401320132029C039D49
:1099D000900021182A18584603EE108A27EE277A9D
:1099E000B8EEC31A60EE070A21EE488AC1ED000AFC
:1099F00068EE201A81EEA72A82ED002A10F060FBA3
:109A0000484610F05DFB504610F05AFB012000E084
:109A1000404605B0BDEC048BBDE8F08F2DE9F04F5A
:109A20002DED028B002389B04FF07E5AC0F800A0C4
:109A300080460B6010EE100AB0EE408A0192894613
:109A4000FEF76CFC04460D4622462B460020B0492A
:109A5000FEF704FB00220F460646AD4B2046294682
:109A6000FEF7FEFA02460B4630463946FEF7AAFCE0
:109A700041EC100B15F0B6FF51EC100BFEF764FF34
:109A8000019A08EE900A0198971C411C4F4302234B
:109A900097FBF3F0013000FA03F010F009FB06EE3B
:109AA00010AA074620B99B4811F09CF8384629E1D6
:109AB00001252B46019EB34200F3A3805C1C029457
:109AC0005C1E022003FB04F696FBF0F1CA18511E3F
:109AD00001FA00F109EB010208EB010A04FB04F1B1
:109AE00006910299059201FB03FBAA1E9BFBF0FE67
:109AF0006A4300EE102A0EFA00F2761008EB02001C
:109B000009EB02016FF0030202FB0EFBB2009E1E86
:109B100066430092721096000496002293420FD181
:109B2000DAED001A28EEA12A059E80ED002A9AEDB2
:109B3000003AD6ED002A28EE034A08EEA24A56E083
:109B4000012B0CD1002A54D1D8ED000A28EE201A9E
:109B500080ED001A99ED007AD8ED007A14E048DD26
:109B6000944216DC009E00EB0B0C0CEB060E9EEDF7
:109B7000005A68EE055A01EB0B0CC0ED005A664422
:109B800096ED007ADEED007A28EEA74A18EE074A35
:109B90002DE0069E02FB126607EE906AB8EEC01A30
:109BA000F8EEE70A009EC0EE811A00EB0B0E0EEBFA
:109BB000060C049EB644009EDEED002A9CED002AB1
:109BC00021EEA23A18EE023A01EB0B0E80ED003ABC
:109BD0007644DCED003AD6ED006A049E28EEA34AF6
:109BE00018EE264AB644DEED004A01EEE44A81ED65
:109BF000004A0132043004319A428FDD0235029B63
:109C000058E787ED006A012601998E4252DC06F181
:109C1000010B0BFB06FC4FEA6C04711E07EB840082
:109C2000714374004A10611E01EE901A07EB820323
:109C3000D3ED002AB8EEE12A06EE906A22EE223A2F
:109C4000F8EEE63A044683EE234A4FF0010A80ED2F
:109C5000004A2068FEF762FBBAF1010F14BF01222F
:109C60000222CDE90201CAEB0B0050430AEB0603C6
:109C700004EE900A05EE903AB8EEE45AB8EEE56AC2
:109C80000AF1010A85EE067A17EE100AFEF746FB86
:109C900041EC100B15F0A6FEDDE9020153EC102B90
:109CA000FEF790FBFEF750FEB24544F8040FD0DDFE
:109CB0005E46A9E70123019EB3421FDC5C1C04FB46
:109CC00003F56A10960008EB060009EB0601BD19C2
:109CD000002205EB820690ED007AD6ED007A27EEA1
:109CE000270A0132A0EC010AD1ED000A20EEE71AA2
:109CF0009A42A1EC011AECDD2346DCE7384610F06D
:109D0000DFF9012009B0BDEC028BBDE8F08F00BF88
:109D10000000F03FC5470208C0B52DED028B074695
:109D200085B010EE900A0E46FEF7F8FA1FA3D3E9AD
:109D30000023FEF747FB41EC100B15F069FB51ECDB
:109D4000100BFEF701FE102F08EE100A11DDF0EEE9
:109D5000C87A17EE900AFEF7E1FA02460B46002099
:109D60001149FEF77BF90EA3D3E90023FEF79CFD12
:109D700038B196E80300B0EE480A3A46FFF74EFEC7
:109D800006E096E80300B0EE480A3A46FFF768FCA2
:109D9000003018BF012005B0BDEC028BC0BD00BF74
:109DA000BBBDD7D9DF7CDB3D0000F03F399D52A21F
:109DB00046DF913FAFF300802DE9F04F2DED048B8E
:109DC000074689B008A800E90E00F96B4A1C90000C
:109DD0008DED020ACDED030A8DED041A10F068F93D
:109DE000064620B95C4810F0FDFE3046A8E0169CFF
:109DF00000230546B7EE008A6360A5EC018A03984C
:109E0000FEF78CFA52A3D3E90023FEF7DBFA41EC0C
:109E1000100B15F0FDFA51EC100BFEF795FD09EE55
:109E2000100A0124F86B844200F3868004F10109D2
:109E30004FEA440A01EE909A00EE90AAB8EEE12AA9
:109E4000B8EEE01A0AF1FF38C1EE022A022109FB3E
:109E500004FB9BFBF1F202F1010B06EE908A07EE88
:109E6000104AF8EEE67AB8EEC70A28EE278A12EE14
:109E7000900A88EE008AFEF751FA41EC100B15F0BB
:109E8000B1FD53EC102B18EE100A8DED010A009372
:109E9000FEF744FA019A009BFEF794FAFEF754FD90
:109EA000012C03EE100A02D1316871601AE0631EC2
:109EB0005B43AAF1030A581E0AFB08FA04EE100AD3
:109EC00008EE90AAB8EEC46AF8EEE88A15ED025AD8
:109ED000C6EE284A55ED013A64EE855A59EE235AEA
:109EE000C5ED005A3B6B059A07994FEA8B0B02EBC5
:109EF000840403EB0B007A6B90ED000A069802EBEA
:109F00000B03D3ED000AD0ED017AD1ED016A20EE0A
:109F1000A71A10EE261AD4ED001AB5EC017A169C99
:109F200021EE212AD4ED013A62EE072A42EE833A6D
:109F3000C4ED013A4C4675E7304610F0C1F80120F7
:109F400009B0BDEC048BBDE8F08F00BFAFF300801B
:109F5000399D52A246DF913F0F470208AFF30080C0
:109F600082B02DE9F04F2DED028B89B00D4614A97A
:109F700081E80C00159B1699179C0393049101230B
:109F800000218DED050ACDED060A8DED071AD5F8F5
:109F90003CE02B64A160616021600432734577DC92
:109FA0005E1C06FB03F8022707EE106A98FBF7F821
:109FB000049E039F002102910299043704369942BE
:109FC00064DC029901EB080C296B4FEA8C0C01EB65
:109FD0000C09696B01EB0C0ADAED005A56ED010A27
:109FE00099ED000A57ED016A25EEA01A00EE261A37
:109FF000D2ED001A016821EE212AF8EEC72A01EB02
:10A000000C0BDBED003A22EE223A94ED024A03EE0D
:10A01000634ADDED026A84ED024A17ED016A9AEDAA
:10A02000008AD9ED004A16ED015A68EE067A54EE20
:10A03000857A92ED000AF8EEE60A67EE805ADBEDCB
:10A04000001A94ED012A25EEA01A416801EE212A9A
:10A050008C4484ED012ADAED003A16ED014AD9ED7F
:10A06000002A17ED013A63EE844A42EE834A92EDEC
:10A07000005A9CED006AD4ED007A24EE858A02999C
:10A0800048EE467A0131C4ED007A94E7013384E763
:10A090000698FEF743F91CA3D3E90023FEF792F9D3
:10A0A00041EC100B15F0C0F851EC100BFEF74CFC16
:10A0B00008EE100AB0EEC86A16EE100AFEF72EF986
:10A0C00013A3D3E90023FEF70DFC30B1D4ED017AE0
:10A0D00087EE888A84ED018A0CE0009414AC28464F
:10A0E00094E80E009DED050ADDED060A9DED071AC8
:10A0F000FFF762FE012009B0BDEC028BBDE8F04F16
:10A1000002B07047AFF30080399D52A246DF913F05
:10A11000BBBDD7D9DF7CDB3D2DE9F04F2DED048BA6
:10A12000074689B008A800E90E00B96B4A1C9000E8
:10A130008DED020ACDED030A8DED041A0FF0B8FF84
:10A14000064620B95C4810F04DFD3046A8E0169C4C
:10A1500000230546B7EE008A6360A5EC018A0398E8
:10A16000FEF7DCF852A3D3E90023FEF72BF941EC0C
:10A17000100B15F04DF951EC100BFEF7E5FB09EE55
:10A18000100A0124B86B844200F3868004F10109AF
:10A190004FEA440A01EE909A00EE90AAB8EEE12A46
:10A1A000B8EEE01A0AF1FF38C1EE022A022109FBDB
:10A1B00004FB9BFBF1F202F1010B06EE908A07EE25
:10A1C000104AF8EEE67AB8EEC70A28EE278A12EEB1
:10A1D000900A88EE008AFEF7A1F841EC100B15F00A
:10A1E00001FC53EC102B18EE100A8DED010A0093C0
:10A1F000FEF794F8019A009BFEF7E4F8FEF7A4FB43
:10A20000012C03EE100A02D1316871601AE0631E5E
:10A210005B43AAF1030A581E0AFB08FA04EE100A6F
:10A2200008EE90AAB8EEC46AF8EEE88A15ED025A74
:10A23000C6EE284A55ED013A64EE855A59EE235A86
:10A24000C5ED005ABB6A059A07994FEA8B0B02EBE2
:10A25000840403EB0B00FA6A90ED000A069802EB07
:10A260000B03D3ED000AD0ED017AD1ED016A20EEA7
:10A27000A71A10EE261AD4ED001AB5EC017A169C36
:10A2800021EE212AD4ED013A62EE072A42EE833A0A
:10A29000C4ED013A4C4675E730460FF011FF01203E
:10A2A00009B0BDEC048BBDE8F08F00BFAFF30080B8
:10A2B000399D52A246DF913FE5460208AFF3008088
:10A2C00082B02DE9F04F2DED028B89B0884614A99C
:10A2D00081E80C00179C159B169DD8F838E0039375
:10A2E00000218DED050ACDED060A8DED071A0495C6
:10A2F000A160616021600432012373457BDC5D1C39
:10A30000022605FB03F999FBF6F9002107EE105A26
:10A31000039F049E0291029D043704369D4267DC30
:10A32000029DD8F8281005EB090CD8F82C504FEAFC
:10A330008C0C05EB0C0ADAED005A56ED010A61446B
:10A3400091ED000A57ED016A25EEA01A00EE261ADB
:10A35000D2ED001A056821EE212AF8EEC72A05EB96
:10A360000C0BDBED003A22EE223A94ED024A03EEAA
:10A37000634ADDED026A84ED024A17ED016A9AED47
:10A38000008AD1ED004A16ED015A68EE067A54EEC5
:10A39000857A92ED000AF8EEE60A67EE805ADBED68
:10A3A000001A94ED012A25EEA01AD4ED007A01EEF0
:10A3B000212A84ED012ADAED003A16ED014AD1EDA9
:10A3C000002A17ED013A63EE844A42EE834A41685F
:10A3D00092ED005A01EB0C0595ED006A24EE858A9A
:10A3E000029948EE467A4D1CC4ED007A029592E738
:10A3F0000133043281E70698FDF790FF1CA3D3E9EF
:10A400000023FDF7DFFF41EC100B14F00DFF51ECC2
:10A41000100BFEF799FA08EE100AB0EEC86A16EEB5
:10A42000100AFDF77BFF14A3D3E90023FEF75AFAC5
:10A4300030B1D4ED017A87EE888A84ED018A0CE090
:10A44000009414AC404694E80E009DED050ADDED45
:10A45000060A9DED071AFFF75FFE012009B0BDEC6B
:10A46000028BBDE8F04F02B0704700BFAFF3008031
:10A47000399D52A246DF913FBBBDD7D9DF7CDB3D82
:10A4800084B02DE9F04194B01AAC259D269F84E854
:10A490000F00AB6B5A1C981C00FB02F1022691FBCB
:10A4A000F6F08DED050ACDED060A8DED071AFEF7E3
:10A4B00081FD0646A86BFEF7D3FDAB6B03900293BC
:10A4C0001EAA044692E803008DE803000DF1680E11
:10A4D0009EE80F009DED050ADDED060A9DED071AC9
:10A4E000FFF73AF89DED050ADDED060A9DED071A26
:10A4F0003146A86BFFF710FC08A80190A1680091F5
:10A5000094E80C0029469DED050ADDED060A9DED57
:10A51000071A3046FFF7D4FE0EAB0193A2680092F3
:10A5200094E80C0029469DED050ADDED060A9DED37
:10A53000071A3046FFF714FD249D0DF12C080095F5
:10A54000CDF8048020AD95E80F009DED050ADDED06
:10A55000060A9DED071ADDED081A9DED092ADDEDCD
:10A560000A2AFEF77DFF249911A80190009195E831
:10A570000F00DDED0E1A9DED0F2ADDED102A9DED89
:10A58000050ADDED060A9DED071AFEF769FF39465B
:10A590004046FEF7C9FD9DED110ADDED120A9DED65
:10A5A000131A3846FEF72CFE3046FEF78FFD204684
:10A5B000FEF79FFD012014B0BDE8F04104B07047E4
:10A5C0002DE9F04F2DED028B85B004AC04E90F00AE
:10A5D000109C119D236860682B60E36BA16B686021
:10A5E00003F1010A0AFB03F00222A96390FBF2F1D6
:10A5F00001EB030AEB6305F1080004F108019DED8E
:10A60000038A10F0F3FDD4F838C00122624553DC10
:10A61000561C022306FB02F797FBF3F000FA03F344
:10A6200000210F185745D5F82C902FDC676B07EBEE
:10A630000308E76AD4ED016AFF1898ED007AD7EDB8
:10A64000007A38EE660A276B40EE077A9944C9ED26
:10A65000007A07EB0309AF6A07EB030BA76AD4ED97
:10A66000010AFF1897ED002AD9ED001A38EE601A9A
:10A670006F6B01EE212AFF188BED002AD8F800E05D
:10A68000C7F800E0D9F800802F6B0CE0E76AFF18EC
:10A69000D7F8008009EB0307C7F80080A76AFF1806
:10A6A000D7F80080AF6AFF18013104339142C7F830
:10A6B0000080B6DD3246A9E7012005B0BDEC028B73
:10A6C000BDE8F08FF8B55A20FEF796FC244C2549DA
:10A6D00020600C238363C363416020222249083039
:10A6E00010F012FE236821499E6ADD6A1C6B586BCC
:10A6F000002232602A602260026000220F6846F861
:10A70000047F0432D1F804E0AF18C7F800E0D1F8B4
:10A7100008C0A718C7F800C0D1F80CE0871810319E
:10A72000B2F5B47FC7F800E0E8D193ED017AF1EE1D
:10A73000047A37EE270A5B2083ED110AFEF75CFCF2
:10A740000B4B0C4918600C4A0C480D4B01604260E1
:10A7500083600C490C4A0D4B0161C2604361F8BD36
:10A76000181100200040FB44E0440208806C0208FD
:10A77000381000201951C74505A6C6458C11002088
:10A78000D4BA5B3B3191A73D815DDB3B9A19C7454C
:10A7900008B5054B1868FEF77AFC04480068BDE868
:10A7A0000840FEF774BC00BF1811002038100020CC
:10A7B0002DE9F04F8BB0FFF785FF724BDFF8188261
:10A7C000DFF8189293F83340188E93F83210C9F8D6
:10A7D0000000D3ED016A93ED022AD3ED000ADFED0C
:10A7E0006A7AB8EEE67AF8EEC22A9FED683AB8EED9
:10A7F000E01A27EE270A61EE271A62EE833A00225A
:10A80000C8ED011AC8ED023AC8F81020C9F80410C2
:10A81000C9F8084088ED000A04F056FD89ED030AE6
:10A8200004F052FD88ED020A04F04EFD88ED010AA5
:10A8300004F04AFD88ED000A45460FCD02AE0FC672
:10A840002F68534C3760534EDFF894B1079604F1EC
:10A85000100A9AE803008DE8030094E80F00FEF761
:10A860003BFD4D4BDBF800001A6801900092474613
:10A8700099E80F00FFF7A4FE0FCF96ED000AD6ED82
:10A88000010A96ED021A02AE0FC62968434F3160E5
:10A89000DBF80050424E0795424D08959AE80300B8
:10A8A0008DE8030094E80F00FFF7EAFD3C683046AE
:10A8B000A047D9F80C003C4CFDF730FD02460B4692
:10A8C0003A4821688847D8F80800FDF727FD024676
:10A8D0000B46374821688847D8F80400FDF71EFD6D
:10A8E00002460B46334821688847D8F80000FDF738
:10A8F00015FD02460B463048216888473B683046C4
:10A9000098472869FDF70AFD02460B462B48216847
:10A9100088476869FDF702FD02460B462848216812
:10A920008847A869FDF7FAFC02460B4625482168CE
:10A930008847E868FDF7F2FC02460B46224821688A
:10A940008847A868FDF7EAFC02460B461F482168C5
:10A9500088476868FDF7E2FC02460B461C48216800
:10A9600088472868FDF7DAFC0B460246216819483B
:10A9700088473A68304690470BB0BDE8F04FFFF784
:10A9800007BF00BF944C002095BFD633BD37863536
:10A990008C110020301100201811002044490020A3
:10A9A0004B5C02083C11002048490020207202083C
:10A9B0002F7202083E7202084D7202085C72020891
:10A9C0006B7202087A720208897202089872020891
:10A9D000A7720208B67202081C1100207C11002028
:10A9E0003810002013B50120174C01460EF0A6F9CF
:10A9F000032002214FF4C05300228DF805008DF88A
:10AA000004102046694600938DF806208DF8072033
:10AA10000DF0FEFF20460B210A220EF053F80A2209
:10AA200020460C210EF04EF801214FF480400EF02C
:10AA3000A9F9802001210EF08DF94FF080500121FD
:10AA40000EF0ACF91CBD00BF0000024007B54FF48A
:10AA5000C0600DF05FFD012043238DF80500032247
:10AA60008DF8070001A88DF804308DF806200DF050
:10AA70005BFD0EBD782358430722B0FBF2F00021A6
:10AA800001318142FCD970474FF47A735843FFF784
:10AA9000F1BF0000024B03490020186008607047B6
:10AAA000A4110020A811002000207047002070474A
:10AAB00070B500238B420CD0074AC65C1468074D62
:10AAC0002E550134B4F5006F08BF00241460013323
:10AAD000F0E7002070BD00BFF40F0020715400208B
:10AAE00070B500238B420ED0084AC65C1568084C2E
:10AAF00066550135632DC8BF002515601268002515
:10AB0000A5540133EEE7002070BD00BFA411002062
:10AB1000AC110020044B054918680A68801A18BF58
:10AB20006FF00000704700BFA8110020A4110020A2
:10AB3000084B09491A680868824207D00748815CB7
:10AB40000132632AC8BF00221A6000E0002148B227
:10AB5000704700BFA8110020A4110020AC110020F4
:10AB600012230B80004870473400002004230B8020
:10AB7000004870473000002010B5044C04480A46D5
:10AB800021460DF059FB204610BD00BFB4530020F4
:10AB9000C572020810B5044C04480A4621460DF05F
:10ABA0004BFB204610BD00BFB4530020D8720208F2
:10ABB00010B5044C04480A4621460DF03DFB2046E2
:10ABC00010BD00BFB4530020E672020808B50A4663
:10ABD00008B9044800E0044804490DF02DFB03487F
:10ABE00008BD00BFF1720208FE720208B4530020D3
:10ABF00008B50A4608B9044800E0044804490DF0C5
:10AC00001BFB034808BD00BF0B7302082C7302082E
:10AC1000B453002070477047014B01221A707047EF
:10AC2000A30D0020014B00221A707047A30D0020D5
:10AC3000014B01221A707047A30D0020014B012225
:10AC40001A707047A20D0020014B00221A70704745
:10AC5000A20D00201C481D49026800608A4200F0D5
:10AC60001E80002100F004B8194B5B58435004319A
:10AC70001848194B42189A42FFF4F6AF174A00F0F1
:10AC800003B8002342F8043B154B9A42FFF4F9AF96
:10AC90000BF0DEFB0FF04EF90AF038FB7047114E57
:10ACA00011483060114E12483060124E1248306028
:10ACB000124E13483060134E134830601348D0F8DA
:10ACC00000D0406800470000FCFF0120EFBEADDE71
:10ACD000DC05030800000020200C0020200C0020D0
:10ACE000785C002030380240100000000010024064
:10ACF0000014000004100240000000000810024090
:10AD00000028000014100240600000000000FF1F37
:10AD1000FFF7FEBF1FB5184B184A197802A800901C
:10AD200006231068032202F0B1F915499DF80900C5
:10AD30009DF80A209DF8083088704A719DF80C0033
:10AD40009DF80D20CB709DF80B3048700A700B7188
:10AD5000B1F9003013F5805F0BD0B1F9020010F5A6
:10AD6000805F06D0B1F9041011F5805018BF0120A2
:10AD700000E0002005B000BD1A12002010120020D3
:10AD8000141200207FB56248624C90F89213624D15
:10AD9000614E002301290CBF604A614A8DF80C30D6
:10ADA00022601E222A701E2100227123206802F0D8
:10ADB0004FFA322003F054FB31782068202301221F
:10ADC00002F046FA142003F04BFB514B554993F81F
:10ADD000920301EB8004002525606560A5600A24CC
:10ADE0004D4B4C4E197830680222012302F030FAA4
:10ADF000142003F035FB65259DF80C00C3070ED425
:10AE0000691E11F0FF050AD04349424A097803A898
:10AE1000009010680123092202F038F9ECE7424D56
:10AE2000FFF778FFB5F90060394A3E4992F892334E
:10AE300007EE106ADFED3D7AB8EEC70AB5F9026099
:10AE4000B5F90450C7EE800A01EB83005A1C01EBF0
:10AE500082020233013C01EE906AB8EEE12A04EE70
:10AE6000105AC7EE822A01EB8306002314F0FF0478
:10AE70008DF80C30F8EEC44A9FED2D5AC5EE245AD9
:10AE8000D0ED006A36EEA01A80ED001A92ED003A7D
:10AE900073EE223AC2ED003A96ED006A36EE257A5C
:10AEA00086ED007A9CD191ED000AF2EE047AC0EEB4
:10AEB000270A194D7023F0EEE06AC0ED006A91EDAB
:10AEC000011AC1EE271AB0EEE12A82ED002AD1ED77
:10AED000022A82EEA73A29782246F0EEC33AC6ED5E
:10AEE000003A0C4E306802F0B3F9322003F0B8FAA1
:10AEF000297830680222234602F0AAF9142003F0D0
:10AF0000AFFAFFF707FF142003F0AAFA7FBD00BFD6
:10AF1000BC4D0020101200201A12002000580040E2
:10AF2000005400401C12002014120020CD0C9E443E
:10AF30006726934470B52D4E2D4C2E4D30464FF460
:10AF400080710DF0B9FDBB21204603F0A5F800216A
:10AF5000204603F0A1F800216870204603F09CF819
:10AF600000212870204603F097F80021E870204661
:10AF700003F092F80021A870204603F08DF800211C
:10AF80006871204603F088F800212871204603F0FC
:10AF900083F8194D00216870204603F07DF80021E8
:10AFA0002870204603F078F8144D00216870204680
:10AFB00003F072F800212870204603F06DF800219C
:10AFC000E870204603F068F80021A870204603F0DE
:10AFD00063F800216871204603F05EF84FF4807139
:10AFE00028713046BDE870400DF064BD0004024099
:10AFF000003C004044120020341200207412002053
:10B00000224B234AB3F90000224B234907EE900A52
:10B010009FED227AB8EEE70A9FED211AC0EE070AEB
:10B020002048D3ED0D6A70EE811A93ED102AD3ED0E
:10B030000E2A93ED113AD3ED0F3A93ED124AD3ED68
:10B04000134A93ED165AD3ED145A93ED176AD3EDC4
:10B05000157A93ED180A01EEA62A01EEA23A01EE46
:10B06000A34A01EEA45A01EEA56A01EEA70AC1EDBA
:10B07000001A82ED002A82ED013A82ED024A80ED4B
:10B08000005A80ED016A80ED020A704734120020F8
:10B090006C0C0020BC4D00204C1200200000AA4384
:10B0A00000000C423812002010B5644886B000231E
:10B0B000012200930193029303930493059302707A
:10B0C00041F28834FFF736FFFFF79AFF5C495D4A8B
:10B0D000B1F90030B1F90200B1F9041006EE903A6E
:10B0E000D2ED017A584BB8EEE60A93ED001A70EEF5
:10B0F000670A02EE900A70EEC11A92ED047AD2ED60
:10B10000023A9DED002AB8EEE23A06EE901A01EE00
:10B11000872A33EE634AD3ED014AD2ED037AB8EEC3
:10B12000E60A34EE645AD2ED055A70EE670A93EDE2
:10B13000021A92ED067A9DED016A444A4449B2F939
:10B140000200B2F90030B2F9042005EE256A70EE73
:10B15000C11A8DED002A9DED022A02EE903A01EE11
:10B16000872A05EE900A01EE102AB8EEE23A8DED3C
:10B17000016AD1ED003AB8EEE56AD1ED016AF8EE68
:10B18000C11A91ED027A33EE634ADDED034ADDED3B
:10B19000047ADDED052A8DED022A36EE660A31EEDF
:10B1A000C72A34EE845A77EE800A32EE823A013CA6
:10B1B0004FF47A70A4B28DED035ACDED040A8DEDF3
:10B1C000053A03F031F9002C7FF47CAF234600A947
:10B1D000C818D0ED003A9FED1F4AC3EE844A06A975
:10B1E0001D4A9A18C0ED004AC81810ED035AC5EE62
:10B1F000045A04330C2BC2ED005AE8D1DDED016A8C
:10B200009DED006A66EEA67A46EE067A9DED020A8C
:10B2100040EE007A17EE900AFDF780F841EC100B33
:10B2200014F0E0FB51EC100BFDF78EFB0B4A1060A5
:10B2300002480021017006B010BD00BF580C00206C
:10B2400044120020BC4D00206C0C00207412002021
:10B250003812002000409C455C1200206400002051
:10B2600038B55A4D5A4C28464FF480710DF024FCE5
:10B270006B21204602F010FF8021204602F00CFFD7
:10B2800028464FF480710DF015FC962003F0E8F885
:10B2900028464FF480710DF00FFC6B21204602F020
:10B2A000FBFE0321204602F0F7FE28464FF4807192
:10B2B0000DF000FC012003F0B7F828464FF4807130
:10B2C0000DF0FAFB6A21204602F0E6FE102120462E
:10B2D00002F0E2FE28464FF480710DF0EBFB0120F6
:10B2E00003F0A2F828464FF480710DF0E5FB6C21C5
:10B2F000204602F0D1FE0021204602F0CDFE284675
:10B300004FF480710DF0D6FB012003F08DF8284634
:10B310004FF480710DF0D0FB1921204602F0BCFEE5
:10B320000021204602F0B8FE28464FF480710DF04F
:10B33000C1FB012003F078F828464FF480710DF02E
:10B34000BBFB1A21204602F0A7FE224B204693F8B1
:10B35000981002F0A1FE28464FF480710DF0AAFB70
:10B36000012003F061F828464FF480710DF0A4FB32
:10B370001C21204602F090FE0821204602F08CFE9F
:10B3800028464FF480710DF095FB012003F04CF836
:10B3900028464FF480710DF08FFB1B21204602F0F0
:10B3A0007BFE1021204602F077FE28464FF4807184
:10B3B0000DF080FB2046022102F093FE642003F092
:10B3C0004FF8BDE83840FFF76FBE00BF00040240F1
:10B3D000003C0040BC4D002030B50E4D0E4C28689E
:10B3E000217885B003AB00930022032301F04EFEC9
:10B3F0000A489DF80C209DF80D109DF80E308270C3
:10B400004170037021782868FF22482301F020FF53
:10B4100005B030BDA01200209C120020B412002004
:10B4200030B50E4D0E4C2868217885B003AB0093E3
:10B430000022032301F02AFE0A489DF80C209DF803
:10B440000D109DF80E3082704170037021782868CD
:10B45000FF22582301F0FCFE05B030BDA0120020F1
:10B460009C12002090120020094B0A491A880B6890
:10B47000094910021A1A09480B88026082FB03234B
:10B48000D20D42EA4320064B00F5FA61196070477D
:10B49000A412002098120020881200208C12002094
:10B4A000A8120020000000002DE9F8434C494D4B44
:10B4B0000E6818884C4A86FB00011488C50945EAC5
:10B4C0004160CB114FEA04484849494C0A88258815
:10B4D00018EB00084FF0000949EB0309E80386FB6D
:10B4E0000245230A43EA05622C12424DD5F800E0DA
:10B4F0000021801841EB0401BEF5FA6F31DA764382
:10B500004FEAE67CAEF5FA667643F3179A00B4008C
:10B51000A41942EA967545EB0305A3086F104FEA9C
:10B52000340643EA8572AB10334DAE450EDA0EF2A7
:10B53000DC5464430725C5FB04670B2584FB0545E4
:10B540006D104FEA3404121943EB0503294CCCEB80
:10B550000E052560B8EB060869EB0709801A61EB58
:10B560000301264A1368A3FB004503FB0155610D47
:10B570006B1541EAC522B2EB080863EB09094FEAF3
:10B58000D83040EA494207EE902A9FED1D0AB8EEF6
:10B59000E77AC7EE000A10EE900AFCF7BFFE9FEDB7
:10B5A0000C1B41EC100B14F069F8002053EC102B2D
:10B5B0001449FCF753FD08A3D3E90023FCF702FF6D
:10B5C000FDF7C2F9104BD863BDE8F883AFF30080F4
:10B5D000000000C0955BC83F0000000040A5E540AA
:10B5E0008C1200208A12002094120020B812002031
:10B5F000B0120020A812002024FAFFFFAC12002095
:10B6000080E6C5470000F03F7C4D0020AFF300808E
:10B610007FB5464B464D93F89303464C012803D122
:10B62000454E77222E6002E044497622296022703E
:10B6300021782868FF221E2301F00AFE03AE0A20AB
:10B6400002F00EFF21780096A2220223286801F062
:10B650001DFD9DF80C009DF80D10394BA42258706B
:10B660001970286821780096022301F00FFD9DF8DB
:10B670000C209DF80D00334B21785A701870A622CB
:10B6800002230096286801F001FD9DF80C309DF81A
:10B690000D202D4928684B700A70022321780096EE
:10B6A000A82201F0F3FC9DF80C109DF80D302748FE
:10B6B000AA2241700370217800960223286801F0C5
:10B6C000E5FC9DF80C209DF80D10214802234270E6
:10B6D0000170AC2221780096286801F0D7FC9DF813
:10B6E0000C009DF80D201B4B217858701A702868AB
:10B6F000FF22582301F0ACFD0A2002F0B1FEFFF753
:10B700006BFE0A2002F0ACFEFFF78AFE0A2002F070
:10B71000A7FE1149114B0868114A186011681148B9
:10B720000160FFF7A1FEFFF7BFFE7FBDBC4D00200B
:10B73000A01200209C12002000580040005400403D
:10B74000B012002094120020B81200208A120020AB
:10B75000A41200208812002090120020AC120020B9
:10B76000B41200209812002010B5054C0146204666
:10B7700002F092FC20460021BDE8104002F08CBC93
:10B780000038004038B5064C03460D4620461946A1
:10B7900002F082FC20462946BDE8384002F07CBC1D
:10B7A0000038004010B5094C237873B108480821CF
:10B7B0000DF082F9074900200978FFF7E3FF0448FC
:10B7C00008210DF077F90020207010BD7C0C0020BE
:10B7D000000002407A0C00202DE9F0410F469DF850
:10B7E00018104FF01E08054608FB031814460AB14E
:10B7F000FFF7D8FF082120480DF05EF904F00200A1
:10B80000C2B214F0010F0CBF00211021002A14BF96
:10B810000823002317F1FF3618BF012631431943CF
:10B820000420FFF7AFFF05204FEA1821FFF7AAFF1A
:10B8300006205FFA88F1FFF7A5FF0024E1B2B942C4
:10B840000FD235B128460FF02FFDA04203D3295D5A
:10B8500002E0294600E000210720FFF793FF0134B2
:10B86000ECE71EB10720FF21FFF78CFF02480821FB
:10B87000BDE8F0410DF01EB90000024010B52D4B9F
:10B8800093F83903022821D108212B480DF014F92F
:10B89000A020FFF769FF0821044627480DF00AF9A8
:10B8A00004F00201CCB29CB9244B25494FF4F0724C
:10B8B0001A80244B1020482208801A702249234BFA
:10B8C00042224C201A700870402212E00028EBD16E
:10B8D0001A491B4B4FF4C37008801A490D220820E7
:10B8E0001A800870184B19490C2202201A7008702F
:10B8F00000221348164B01881A70164A4B08122072
:10B900001370434303F0FE03A3F14801124AC9B286
:10B9100003F148001170C2B210480A330270104897
:10B92000DBB203700F4801700F490A700F4A1370A1
:10B9300010BD00BFBC4D002000000240800C002064
:10B940007E0C00207A0C0020820C00207B0C002052
:10B95000830C0020C0120020BB120020BD1200206A
:10B96000BA120020BE120020BF120020BC1200201C
:10B9700010B51A4B93F8380300282ED0FFF77EFF3E
:10B98000174808210DF098F8164900200978FFF7AC
:10B99000F9FE082112480DF08DF8012002F060FD3B
:10B9A0000F4808210DF088F800240F4A1388A3429D
:10B9B00008D904F11000C0B202210134FFF7E2FE01
:10B9C000E4B2F2E7094900200978FFF7DBFE0448FA
:10B9D0000821BDE810400DF06DB810BDBC4D002031
:10B9E000000002407B0C00207E0C00207A0C00201E
:10B9F00010B5184808210DF05FF8174B0020197892
:10BA0000FFF7C0FE082113480DF054F84FF4FA7008
:10BA100002F026FD0F4808210DF04EF800240F48D3
:10BA20000188A14208D904F11003D8B202210134DF
:10BA3000FFF7A8FEE4B2F2E7094A00201178FFF709
:10BA4000A1FE642002F00CFD02480821BDE8104070
:10BA50000DF030B8000002407B0C00207E0C00206E
:10BA60007A0C002038B5224808210DF025F8042072
:10BA70000146FFF787FE08211D480DF01BF8012045
:10BA800002F0EEFC1A4808210DF016F804200121FE
:10BA9000FFF778FE05200021FFF774FE0620212124
:10BAA000FFF770FE002407202146FFF76BFE1823E6
:10BAB000B4FBF3F203FB1240C1B217290DD00134DD
:10BAC000E4B2FF2CEFD107202146FFF75BFE0848C8
:10BAD0000821BDE838400CF0EDBF06250720002105
:10BAE000013DFFF74FFE15F0FF05F7D1E7E700BF77
:10BAF0000000024008B5A020FFF736FE00F020004D
:10BB0000C1B20029F7D108BD38B504460D46164824
:10BB100008210CF0D1FF154B00201978FFF732FEF9
:10BB200021460920FFF72EFE00240A20E1B2FFF78C
:10BB300029FE0F4841190B20095D0134FFF722FE51
:10BB4000362CF2D10820A021FFF71CFEFFF7D2FF10
:10BB5000084A00201178FFF715FE03480821BDE8C8
:10BB600038400CF0A7BF00BF00000240830C00204B
:10BB70004D730208820C002038B5114B114819682A
:10BB8000884700241048A5010268104821469047C4
:10BB9000A9B2E0B20A4DFFF7B7FF1E2002F060FC29
:10BBA00001342B680A489847B4F5807FEAD1FFF743
:10BBB0001FFFFFF757FF29680648884738BD00BFB9
:10BBC000444900204DB30208484900208AB30208C6
:10BBD0008EB3020895B30208F0B55D4B044693F8A6
:10BBE0003A0385B010B1F2EE047A01E0DFED597A44
:10BBF00020EE270A60EEA70ABDEEC01A564A11EEE3
:10BC0000106AFDEEE01A1388B6B211EE905A9E4209
:10BC1000ADB201D1002939D028B306F1630188B251
:10BC2000C62833B218D80A2193FBF1F201FB123176
:10BC300082EAE270A0EBE2700AB2002AB8BF524278
:10BC40000090019202A80721444A002BACBF202398
:10BC50002D230FF0CFF90CE00A2702A80721404A54
:10BC600093FBF7F303E03F4A02A8072133B20FF03A
:10BC7000C1F9374890F83D1390F83C33009102A881
:10BC800006210022FFF7A8FD334B1E80304A92F8B0
:10BC90003E03002859D044B933490B783BB10C70AE
:10BCA0000294ADF80C40012302E0002300E023469B
:10BCB000621E032A3BD82C482C4A0178A142014637
:10BCC00002D11088854232D0214B0C7093F83A1380
:10BCD000158029B305F1630290B2C6282BB218D89B
:10BCE0000A2193FBF1F201FB123182EAE270A0EB30
:10BCF000E2700AB2002AB8BF52420090019202A834
:10BD000007211B4A002BACBF20232D230FF072F913
:10BD10000EE00A2402A80721164A93FBF4F303E07D
:10BD2000154A02A807212BB20FF064F900E063B1B5
:10BD3000074890F83D1390F83C338A1DD0B200902C
:10BD4000062102A80022FFF747FD05B0F0BD00BFA5
:10BD5000BC4D0020E7FB51406A000020BCB3020844
:10BD6000C8B30208CEB302087300002070000020A0
:10BD7000D4B30208E0B30208E6B3020800000000F2
:10BD80002DE9F04F2DED048BDFED5D8AC0EEA88A22
:10BD900087B0814603914FF00008B0EE409A594BAE
:10BDA00059485A4993F800A00A7818F800B050464C
:10BDB00008EE102AFCF7A0FA07EE10BAB8EE470A10
:10BDC000044610EE100A0D46FCF7A8FA02460B4690
:10BDD00000204F49FCF742F900224E4BFCF7F2FAE3
:10BDE00045A3D3E90023FCF7EDFA064619EE100A45
:10BDF0000F46FCF793FA02460B4630463946FCF7ED
:10BE0000E1FA02460B4620462946FCF729F918EECE
:10BE1000103AC3EB0A0A00EE90AAF8EEE07A044664
:10BE200028EEA71A0D4611EE100AFCF777FA0B461A
:10BE3000024629462046FCF713F9FCF785FD3649F2
:10BE4000364D0A7801EE902A00EE100AF8EE480A04
:10BE5000B8EE611A0AF078FBBCEEC02A122612EE88
:10BE6000100A18F80530C4B2B4FBF6F69E4208D0AA
:10BE70000020CDF800B001210246FFF7ADFC08F824
:10BE800005601223B4FBF3F103FB114206A8234B18
:10BE9000803A00F8052D18F80330CDF800B00121E4
:10BEA000002208F10108FFF797FCB8F1060F7FF4B4
:10BEB00076AF1B480178494501D1039AA2B14FEAF8
:10BEC0004903D8B2174B411C821C0E208DF8141068
:10BED0008DF815201B780090022105A80022FFF79D
:10BEE0007BFC0F4981F8009007B0BDEC048BBDE8E6
:10BEF000F08F00BFAFF30080666666666666F63F49
:10BF0000DB0FC93EBA1200204CB40208BB1200205D
:10BF100000002D4000002840BD120020A40C00208D
:10BF200068000020C0120020DFED997A2DE9F0476B
:10BF3000C0EEA70A974B984A0746884600242DED85
:10BF4000028B15781878411B07EE101AB0EE408A64
:10BF5000B8EEC70A03EE105A20EE801A86B0FDEE46
:10BF6000C11AF8EE430A11EE906A83198B480494C3
:10BF700002788DF8144002EE103A02EE902AB8EEE4
:10BF8000C20AB8EE621A0AF0DFFAFCEEC03A1223D7
:10BF900013EE905AE9B28DF81050814DB1FBF3F6D3
:10BFA00003FB16102B78F6B28038B3428DF80A00E6
:10BFB0000FD007220092204601212246FFF70CFCF9
:10BFC00016212B780091204601212246FFF704FC20
:10BFD0002E70DFF8CC916F4E99F800300724009452
:10BFE0000DF10A0001210022FFF7F6FB162099F857
:10BFF0000030009001210DF10A000022FFF7ECFB58
:10C000009FED684A28EE048AF3EE0E4A28EE245A81
:10C010003378624CFDEEC55A207815EE905A5A1BC3
:10C020005D4D297806EE102A06EE901A07EE900A6A
:10C03000F8EE660AB8EE671AB8EEC60A0AF084FA95
:10C040009FED597AFCEEC00A28EE070A10EE903AEE
:10C05000BDEEC08A32788DF8133018EE101A5FFAF0
:10C0600083FA501A2B78227801EE900A02EE103AE9
:10C0700001EE102AF8EE420AB8EEE10AB8EE411AD3
:10C080000AF062FAFCEEC02A337812EE901A5A00D7
:10C09000C8B223788DF81410111A287803EE101AFC
:10C0A00003EE900A04EE103AF8EE630AB8EE441A72
:10C0B000B8EEC30A0AF048FA36782D782478710071
:10C0C000FCEEC04ACAEB010005EE905A06EE104A9B
:10C0D00005EE100A14EE902AB8EEC50AF8EE650ACD
:10C0E000B8EE461A8DF811200AF02EFAFCEEC06A5E
:10C0F0004D4616EE903A00248DF8123006AA161915
:10C100006B7816F8076C4FF0120CB6FBFCF94B4538
:10C1100009D02649605C0090002001210246FFF70B
:10C120005BFB85F801901223B6FBF3F203FB12616F
:10C1300006A81E4A15F8013F803900F80D1DA15CC4
:10C140000022009101340121FFF746FB042CD5D1D8
:10C1500017480378BB4202D1B8F1000F12D07A0021
:10C16000D1B2144A481C8B1C0E218DF80C008DF89E
:10C170000D3003A81378009100220221FFF72CFB59
:10C180000B48077006B0BDEC028BBDE8F08700BF1E
:10C19000DB0F493FBC120020BE120020BF1200205E
:10C1A000880C00203333B33F00005842B8B3020874
:10C1B00072000020C0120020DFED347A20EE270A42
:10C1C0007FB5FDEEC00A4FF4B47310EE904A0646F8
:10C1D00020B290FBF3F203FB12018CB220042C4836
:10C1E00048BFE418038848BFA4B29C4201D1002E86
:10C1F0004AD0284D95F841237AB10621264A23B228
:10C2000002A80EF0F7FE95F8431395F8423300911B
:10C2100002A805210022FFF7DFFA1E4890F84433F8
:10C22000002B2FD00A2221B291FBF2F0184983B2E1
:10C23000B1F9000090FBF2F259B250B2814200D144
:10C2400006B3DDB26B1FDBB2190644BF05F11F0355
:10C25000DBB200215AB2114D1148AA5C0133DBB2A6
:10C260000A545DB20131232DC8BF00230B29F1D13F
:10C27000084D95F8453395F846530022C272009553
:10C28000FFF7AAFA02490C807FBD00BFE02E65428D
:10C290007C000020BC4D0020ECB3020828B402084A
:10C2A000980C002070B52DED028B574B574A58491A
:10C2B000054693ED007A574892F847330E8884B0CC
:10C2C00090ED008A002B47D0F2EE047A27EE270A81
:10C2D0005148FCEEC00A90ED002A10EE904AE4B2FC
:10C2E00001EE104AF8EEC11AF4EE421AF1EE10FA1D
:10C2F00000D18DB30A21B4FBF1F301FB1342D0B29C
:10C3000007210090454A02A80EF074FE3F493E4ABC
:10C3100091F87C3391F8490302EE903AD2ED003A5D
:10C32000B8EE623AD1EDE04A83EE834A91F84833A1
:10C3300000904FF0070102A8B4EEE44AF1EE10FAC3
:10C3400054BF00220122FFF747FA05EE104A324996
:10C35000F8EE455AC1ED005A2C4B93F84A23002AB7
:10C360004ED093F8600300284AD0B2EE046A28EE5B
:10C37000068A2B49BCEEC88AD1ED007A18EE104A25
:10C38000E4B206EE904AB8EEE67AB4EE677AF1EEE1
:10C3900010FA01D1002D33D0632C12D91C4B19880F
:10C3A00000EE101AF8EE400A10EE900AFBF7B6FF06
:10C3B0001C4ACDE90001234602A80C210EF01AFE0A
:10C3C0000CE00A22B4FBF2F302FB1340C2B28DE888
:10C3D000440002A80C21144A0EF00CFE0B48104A2F
:10C3E00090F84C1390F84B3301EE104AF8EE411AD6
:10C3F00002A8C2ED001A009100220B21FFF7ECF910
:10C4000004B0BDEC028B70BDAC490020BC4D0020D7
:10C410008C490020A84900206C000020F2B30208DB
:10C4200078000020FCB3020807B4020830B5124BB4
:10C43000124A1B781178994285B000D1C8B1052104
:10C440000F4A0D4C02A80EF0D5FD0E48227890F848
:10C45000725390F8521390F8513300910521954290
:10C4600094BF0022012202A8FFF7B6F92278034BFD
:10C470001A7005B030BD00BFFE0E00208D0C0020EC
:10C4800016B40208BC4D00201FB51949194B0A8883
:10C4900007EE102AD3ED037AB8EEC70AF4EE407A1D
:10C4A000F1EE10FA00D108B3F6EE000A27EEA01A5A
:10C4B0000521FCEEC11A104A11EE903A02A89BB277
:10C4C0000EF098FD0D4890F84F1390F84E33009100
:10C4D00002A800220421FFF77FF9064A044B92EDDF
:10C4E000032AFCEEC22A12EE900A188005B000BDA5
:10C4F000AA0C00207C010020F75C0208BC4D002043
:10C500001FB51B4B1A780AB9002930D0194A146894
:10C510001CB1031B184CA34201D910600023174C17
:10C5200022689B18236008B1124A10601448B3FBBC
:10C53000F0F39AB2134B1888904200D1B9B13C2164
:10C540001A80B2FBF1F301FB132290B20090072195
:10C550000D4A02A80EF04EFD0C4991F8552391F8B2
:10C560005433009202A806210022FFF735F91FBDBF
:10C57000C30E0020940C002030570500840C0020CE
:10C5800040420F00740000201DB40208BC4D002082
:10C5900070B5494B93F8382305460C46002A00F045
:10C5A00089804648016811F0802F00D184B193F84A
:10C5B0003B631EB9404B93F83E234AB14048414982
:10C5C00090ED0F0ADFED400A08782146FFF704FBE3
:10C5D0003A4E336813F0553F00D1DCB1364890F83D
:10C5E0003F2352B13648394A90ED060AD0ED070A8A
:10C5F00021461078FFF7C4FB0CE090F8401349B1D6
:10C600002F4E324B96ED060AD6ED070A18782146D2
:10C61000FFF78AFC29490E6816F0203F00D164B16B
:10C62000254B93F8410310B993F844232AB12849C4
:10C63000204691ED000AFFF7BFFD204E336813F04E
:10C64000801F00D13CB11C4890F853231AB12846F2
:10C650002146FFF755FF356815F0082F00D14CB182
:10C66000154991F8473313B991F84A0310B12046A0
:10C67000FFF718FE114D2A6812F04A3F00D134B17D
:10C680000D4991F84D3313B12046FFF7FDFE2868A0
:10C6900010F0801F00D134B1074A92F8501311B145
:10C6A0002046FFF7C3FE054B186842001A600AB91E
:10C6B0000121196070BD00BFBC4D0020900C00200E
:10C6C0007C4D0020C50E002000000000C00E0020A0
:10C6D000585100202DE9F0439DB04FF400551595B9
:10C6E000A348A44DA44B0F904FF4806100244FF455
:10C6F00000624FF01009139128460DA94FF480767F
:10C700004FF4003714920E930D94109412941696D1
:10C710001797189419941A941B94CDF844900CF020
:10C7200067F8284601210CF08DF8944894490E9042
:10C73000303D0F274FF000730F9128460DA90D9340
:10C7400011970CF055F8284601210CF07BF84FF0BA
:10C75000030801A98B488DF809408DF80A408DF82F
:10C760000B40CDF804808DF808800CF051F93D2283
:10C7700001A9854801924FF480360CF049F903A8CD
:10C7800003940496059406940BF02AFF07940994E9
:10C790000A940B947D4C7E4D8DF8309001262046F6
:10C7A00007A98DF820608DF821600BF0F3FE284674
:10C7B00007A98DF830700BF0EDFE204608213246B7
:10C7C00007230BF02AFF20460C21022207230BF03F
:10C7D00024FF20460D21424607230BF01EFF204672
:10C7E0000A21042207230BF018FF20460821052206
:10C7F00007230BF012FF20460C21062207230BF023
:10C800000CFF072220460D2113460BF006FF2046A1
:10C810000A21082207230BF000FF204608210922E5
:10C8200007230BF0FAFE20460C210A2207230BF007
:10C83000F4FE20460D210B2207230BF0EEFE2046CE
:10C840000A210C2207230BF0E8FE204608210723CB
:10C850000D220BF0E2FE20460C210E2207230BF0E6
:10C86000DCFE20460D213A4607230BF0D6FE4A4651
:10C87000072320460A210BF0D0FE204631460BF05C
:10C8800028FF204631460BF01BFF314620460BF0B7
:10C89000BBFE20460BF00FFF28460E213246072331
:10C8A0000BF0BBFE28460921022207230BF0B5FE40
:10C8B00028463946424607230BF0AFFE28460E2194
:10C8C000042207230BF0A9FE28460921052207238D
:10C8D0000BF0A3FE28463946062207230BF09DFEE7
:10C8E0000E210722284613460BF097FE2846092101
:10C8F000082207230BF091FE284639460922072318
:10C900000BF08BFE28460E210A2207230BF085FE32
:10C91000284609210B2207230BF07FFE28463946C3
:10C920000C2207230BF079FE28460E210D22072347
:10C930000BF073FE284609210E2207230BF06DFE33
:10C940003A460723284639460BF067FE284631460B
:10C950000BF0BFFE284631460BF0B2FE28463146AA
:10C960000BF052FE28460BF0A6FE1DB0BDE8F0838A
:10C97000CA0C0020706402404C2001404C21014050
:10C98000AC0C0020000402400008024000200140DE
:10C99000002101401C4B1918831E022B11F8012C99
:10C9A00016D81346002102F10C00984207DB174805
:10C9B00030F813000333091889B2DBB2F3E707EE4E
:10C9C000901AB8EE670AF1EE040A80EE200A70476A
:10C9D000012802D00538022812D81346002102F19E
:10C9E0000C00984207DB0A4830F81300043309189A
:10C9F00089B2DBB2F3E700EE101ABBEECF0A704744
:10CA00009FED040A704700BF52B40208AC0C00202E
:10CA1000CA0C00200000000010B50B4C94F856031F
:10CA2000FFF7B8FFDFED097A94EDD67A60EE270ABA
:10CA300094EDD70A00EE870ADFED050AB1EE0C1A75
:10CA4000BDE8104009F080BDBC4D00203333533A9F
:10CA500000000000884206D250F8042B92FAA2F29D
:10CA6000014B1A60F6E770470030024070B5064689
:10CA70000D464FF480500121084C0CF05FF9012362
:10CA8000A36000BF00BF00BF00BF30462946FFF7CC
:10CA9000E1FF206890FAA0F1C84370BD0030024069
:10CAA000524B984213B548D10120C02402220023E2
:10CAB0008DF804008DF8060069464D4800948DF805
:10CAC00005208DF807300BF0A3FF214648480BF0F6
:10CAD000F1FF0824464840210BF0E6FF18B9032077
:10CAE00001F0A2FCF6E7402141480BF0E5FF0320EE
:10CAF00001F09AFC40213E480BF0DCFF032001F0DE
:10CB000093FC611E11F0FF04E4D1802138480BF042
:10CB1000D3FF032001F088FC402135480BF0CCFF07
:10CB2000032001F081FC402131480BF0C3FF0320BA
:10CB300001F07AFC2E48802152E02E49884254D1DF
:10CB400001204FF44064022200238DF804008DF888
:10CB500006006946264800948DF805208DF80730B8
:10CB60000BF056FF214622480BF0A4FF0824204872
:10CB70004FF480610BF098FF18B9032001F054FCCA
:10CB8000F5E74FF480611A480BF096FF032001F09F
:10CB90004BFC4FF4806116480BF08CFF032001F032
:10CBA00043FC611E11F0FF04E1D14FF40061104815
:10CBB0000BF082FF032001F037FC4FF480610C483A
:10CBC0000BF07AFF032001F02FFC4FF4806108483E
:10CBD0000BF070FF032001F027FC05484FF40061C3
:10CBE0000BF068FF032001F01FFC1CBD0054004047
:10CBF00000040240005800402DE9F74F9F4C206888
:10CC0000838A9BB213F0010239D0028822F40063B8
:10CC100019040A0C028001210CF030F89849994B54
:10CC20000A7800201870DAB1974803781BB9974941
:10CC30000A78FF2A14D1012303709548017802294C
:10CC400006D18E4A1368188881B241F400621A80B6
:10CC5000904B8A481978006801220CF007F835E1FA
:10CC60008C48864B0178186800220BF0FFFF87493B
:10CC70000A78FF2A00F02A81FF20824BE4E003F0CB
:10CC80000201C9B2002943D0BFF35F8F804D2E78D7
:10CC9000012E354619D17A490B78B3B17A490B7810
:10CCA0009BB111460BF0EAFFBFF35F8F2068028B48
:10CCB0003146D3B28DF807300BF0CCFF76492068AF
:10CCC0000E7032464FF48061FEE0028BD1B28DF8D7
:10CCD0000710BFF35F8F6E4B1A78022A09D168499B
:10CCE0000A7832B168490A781AB100210BF0C6FF00
:10CCF000E5E01B78032B07D161490A7822B1624B2A
:10CD00001978002940F0DD804FF480610122DBE0DA
:10CD100003F00406F6B2002E71D0594BDFF878818B
:10CD20001A78594B012688F80060002A4DD01A78ED
:10CD3000002A4AD0564D2F78524D022F574F29D9ED
:10CD40000BF09CFF95F800902068D7F800A00BF03E
:10CD5000A3FF4FFA89FB31460AF80B0009EB0600E6
:10CD6000287020680BF076FF88F80060206895F83E
:10CD700000803F680BF090FF4FFA88F94FF4806114
:10CD800007F80900B044206885F8008032460BF0AF
:10CD900086FF2BE031460BF05DFF2E782068D7F838
:10CDA00000800BF079FF4FFA86F9731C08F8090030
:10CDB000D9B220683F6829704FFA81F80BF06CFFF8
:10CDC000033607F808002E7010E01B78012113B914
:10CDD000334A13782BB10BF03DFF2A480278511CDF
:10CDE00003E00BF02BFF284801210170234A116852
:10CDF0000B8803F4807082B2002AF9D166E003F058
:10CE000040010F461F4D09B3244B2F78D3F8008003
:10CE10000BF042FF4FFA87F908F80900781CC1B2FD
:10CE200029701B4D4FB22A780337BA4205D12068CA
:10CE30004FF4806132460BF032FF124B28781A789B
:10CE400051B2884242D1501C18703FE01B063DD5BC
:10CE50002B785EB2721C27D012490A680133915DAB
:10CE60002B700BF017FF0A4895F9002001789142CA
:10CE70002CD120684FF480613A4625E0040D002053
:10CE8000010D0020EA0C0020000D0020EF0C002016
:10CE9000F00C0020090D0020F10C0020F40C002003
:10CEA000EE0C0020FC0C0020154A297011780BF0C4
:10CEB000F1FE1448017811B9134B1A7832B91348AE
:10CEC00000684FF4806100220BF0E9FE0E49104A21
:10CED0000B7892F90000591C88420ED10D480E4B78
:10CEE000017800221A7029B1084B4FF4407118687C
:10CEF0000BF0D5FE094800220270BDE8FE8F00BF8E
:10CF0000EF0C0020010D0020F00C0020040D00208B
:10CF1000EA0C0020F10C0020000D0020080D00207C
:10CF2000FFF76ABEFFF768BEF0B5544B984289B070
:10CF300004464CD1FFF7B4FD5148524F062104225C
:10CF40000BF0C0FD022604224D480721C0250BF03E
:10CF5000B9FD02958DF80C6000258DF80D604848EC
:10CF60008DF80F50012602A98DF80E600BF050FDD0
:10CF70002A464FF4407120460BF091FE20460BF0FC
:10CF8000B9FD4FF480414BF6FF73ADF81C102046FD
:10CF900004A9ADF816300497ADF81450ADF8185048
:10CFA000ADF81A500BF0D4FD204631460BF03AFE96
:10CFB00020208DF8040001A88DF805508DF806504A
:10CFC0008DF807602F460BF0AFFA1F224FE02E4975
:10CFD000884251D1FFF764FD29482A4F0A210422D3
:10CFE0000BF070FD26480B2104220BF06BFD4FF473
:10CFF0004060002502220126029002A920488DF8F7
:10D000000C208DF80D208DF80E608DF80F500BF070
:10D01000FFFC2A464FF4407120460BF040FE2046AC
:10D020000BF068FD4FF480414BF6FF73ADF81C1018
:10D03000204604A9ADF816300497ADF81450ADF8A9
:10D040001850ADF81A500BF083FD204631460BF016
:10D05000E9FD22208DF8040001A88DF805508DF817
:10D0600006508DF807602F460BF05EFA212201A8CA
:10D070008DF804200BF058FA09B0F0BD00540040C0
:10D0800000040240801A06000058004038B5274DC1
:10D09000049C28604900264DC9B2297025490A70B0
:10D0A000254A00211170254901220A7024490C608B
:10D0B00024490C6024490B70244B1A70828802F4B6
:10D0C00000718BB2A3B9028802F480718BB243B9AC
:10D0D000028802F400718BB2002BF9D101210BF010
:10D0E000ADFD12484FF44071006801220BF0D7FDEE
:10D0F00047F23053154A117811B1013BFAD100E0E3
:10D1000093B90A48124A0068904201D1114B03E0DA
:10D110001149884204D1114B1A88511C8AB21A80D5
:10D12000FFF702FF002038BD012038BD040D0020AC
:10D13000090D0020EF0C0020EE0C0020010D002056
:10D14000F40C0020FC0C0020F00C0020080D002046
:10D1500000540040F80C002000580040EC0C002067
:10D160007FB52E4D089C28604900CEB22C4D2D492C
:10D170002E700A702C4A2D4E2D4D01211170002267
:10D1800032700DEB02062E602A4D2E602A4D2B7058
:10D190002A4D102B29703BD8D1B2994204D2A15C00
:10D1A0000DF802100132F7E7838803F4007291B2A0
:10D1B000A1B9038803F4807291B241B9038803F4E2
:10D1C000007291B20029F9D101210BF037FD13480B
:10D1D0004FF44071006801220BF061FD47F23053BB
:10D1E000164A117811B1013BFAD100E093B90B480E
:10D1F000134A0068904201D1124B03E01249884261
:10D2000004D1124B1A88511C8AB21A80FFF78CFE87
:10D21000002000E0012004B070BD00BF040D00201C
:10D22000090D0020EF0C0020EE0C0020010D002065
:10D23000FC0C0020F40C0020F00C0020080D002055
:10D2400000540040F80C002000580040EC0C002076
:10D250001FB504AC04F8013D01230094FFF780FFE3
:10D2600004B010BD37B5244C2068838A99B2009170
:10D27000009A12F4E06F32D0038B99B20191002230
:10D280004FF480610BF00BFD0098820527D42068D5
:10D29000028802F4007399B209BB058805F4807214
:10D2A00095B29DB1038803F480718AB2002AF9D146
:10D2B00001210BF0CFFC10480068038803F40071D3
:10D2C0008AB2002AF9D1FFF72FFE08E001210BF006
:10D2D000C1FC20684FF440712A460BF0E0FC064880
:10D2E00001688B8A23F470621004030C034A8B825A
:10D2F000002111703EBD00BF040D0020080D00206C
:10D30000FFF7B0BFFFF7AEBFF7B5194C194D0020BE
:10D310006323012702268DF806008DF80700694671
:10D32000204600938DF804708DF805600BF070FBBB
:10D3300090210091284669460BF06AFB2046202187
:10D340000BF0BAFB204640210BF0B6FB28468021AB
:10D350000BF0B2FB204639460BF0AEFB20463146BF
:10D360000BF0AAFB284610210BF0A6FBFEBD00BF68
:10D3700000100240000C02402DE9F04106218AB065
:10D3800003225F485F4EDFF890810BF09BFB072183
:10D3900003225B480BF096FB0821032258480BF050
:10D3A00091FB0921032256480BF08CFB0F2101222F
:10D3B00055480BF087FB0321012254480BF082FBF8
:10D3C0000421022251480BF07DFB022205214F4827
:10D3D0000BF078FB00244FF4004302274A480093E7
:10D3E00069468DF804708DF805708DF806408DF84B
:10D3F00007400BF00DFB38200090694643480BF0C6
:10D4000007FB4FF4707100913D4869460BF000FB3B
:10D41000B6F8C020ADF8104098FBF2F5ABB2581E3C
:10D4200029210390ADF808104FF0804002A9ADF813
:10D430000A408DF812400BF0A1FD354802A90BF00F
:10D440009DFD70254FF480704FF4FA63ADF81450D1
:10D45000ADF8240001254FF0804005A90793ADF8F1
:10D460001650ADF81840ADF82070ADF82240ADF878
:10D4700026400BF0DBFD4FF0804005A90BF00EFEBF
:10D48000234805A90BF0D2FD214805A90BF006FEA3
:10D490001F4805A90BF046FE1D4805A90BF084FEA8
:10D4A0004FF0804029460BF0B4FD194829460BF097
:10D4B000B0FD294616480BF04AFF96F8D81061B91E
:10D4C000B6F8E020D6ED3A7A98FBF2F3BCEEE70A24
:10D4D00098B2411E8DED070A039102A90D480BF089
:10D4E0004DFD05A90B480BF0A1FD05A909480BF05E
:10D4F000D5FD084801210BF08CFD0AB0BDE8F08194
:10D5000000080240BC4D0020000002400004024020
:10D51000000401400004004080841E00024B53F8C8
:10D5200020000160704700BF5CB40208F0B5324DC6
:10D5300002218BB028460A460BF0C4FA2846012186
:10D5400002220BF0BFFA0222284600210BF0BAFAA1
:10D550000024072302272846694600938DF80470AB
:10D560008DF805708DF806408DF807400BF050FAE5
:10D570002248234AB0F8C210ADF8104092FBF1F6F1
:10D58000B3B2A5F5FA35581E29210390ADF808105D
:10D59000284602A97026ADF80A408DF812400BF01B
:10D5A000EDFC4FF4807040F6B833ADF81460ADF880
:10D5B00024000126284605A90793ADF81660ADF8AA
:10D5C0001840ADF82070ADF82240ADF826400BF0C1
:10D5D0002DFD284605A90BF061FD284605A90BF095
:10D5E000A1FD284631460BF014FD284631460BF0CC
:10D5F000AEFE0BB0F0BD00BF00000240BC4D0020ED
:10D6000080841E00024B53F820000160704700BF69
:10D610007CB402082DE9F843002504462E46304B21
:10D6200053F8350003EBC50284429788B2F80690A0
:10D6300050D1204649460BF0A5FE0128804649D12D
:10D64000494620460BF0A9FE15F0FF0F04BF2549FF
:10D6500081F800800C2F18D8DFE807F0071717179C
:10D660000B1717170F171717130020460BF0D8FDCD
:10D670000AE020460BF0D6FD06E020460BF0D4FD74
:10D6800002E020460BF0D2FD86B20623164A174967
:10D690006B43D01812F803E0BEF1000F07D14680AB
:10D6A0000120D05402220F804A80204610E0B0F8BA
:10D6B00002C00F80664596BF6FEA0C0CCCEB060CDF
:10D6C000B444A0F804C0002048800849D054204643
:10D6D0000BF0DEFD0135082DA1D1BDE8F88300BFB8
:10D6E00080000020620D00201A0D00200A0D00208D
:10D6F00038B5214B214893F8B010002938D11021BA
:10D700000BF040FE0128044609D11D4D1D482A8812
:10D7100002801A480BF08AFD1B4B28801C701021D8
:10D7200016480BF03AFE164916480A880388D11AA3
:10D730008BB241F218529342144A02D9002313705B
:10D7400038BDA3F2DD5080B240F6B63188420AD827
:10D750000948127890F8B110914204D90C4906207A
:10D7600000FB02129380094B1878411C197038BDD8
:10D77000BDE83840FFF74EBFBC4D00200008004018
:10D78000140D0020160D0020620D0020180D002041
:10D790001A0D00200148FFF73DBF00BF0000014007
:10D7A00030B58BB003A80BF027FC6C480BF030FDB4
:10D7B00006A80BF053FE6A4B93F8B040002C40D102
:10D7C00068490B19063440F6B830482C9880F7D1D8
:10D7D0004FF4004401946448022401A98DF80840E4
:10D7E0008DF809408DF80B400BF012F922465E4887
:10D7F0000F210BF067F91E2200218DF801406846C9
:10D8000001248DF800208DF802108DF803400AF0F5
:10D810008BFE4FF6FF702923049003A95348ADF8FF
:10D820000C300BF0ABFB4D4950480C220A800BF03A
:10D830002FFD4E48102122460BF097FD4B48214604
:10D8400087E0012C40F08780464840F6B8324FF41C
:10D8500070410225828042810282C2828283428498
:10D860000285C285019140488DF8085001A98DF8C4
:10D8700009508DF80B500BF0CBF84FF4D4433C48D3
:10D88000019301A90BF0C4F82A4637480C210BF08C
:10D8900019F92A4634480D210BF014F92A4632486A
:10D8A0000E210BF00FF92A462F480F210BF00AF931
:10D8B00022462F4809210BF005F922462C480B215E
:10D8C0000BF000F922462A480D210BF0FBF8224606
:10D8D0000E2127480BF0F6F81E208DF800008DF879
:10D8E0000150684600258DF803408DF802501B2436
:10D8F0000AF01AFE68468DF800400AF015FE4FF651
:10D90000FF71292204911948ADF80C2003A90BF0EE
:10D9100035FB184803A90BF031FB2C46164B0F4979
:10D9200018198288E0580A8008340BF0B1FC402CAA
:10D93000F4D10E481E2101220BF017FD0D481E21C7
:10D9400001220BF012FD094801210BF062FB09488E
