:020000040800F2
:100000000000022041AC0008756A0108776A010807
:10001000796A01087B6A01087D6A01080000000016
:100020000000000000000000000000007F6A0108DE
:10003000816A010800000000836A0108E5E9000800
:10004000FDAC0008FDAC0008FDAC0008FDAC0008EC
:10005000FDAC0008FDAC0008FDAC0008FDAC0008DC
:10006000FDAC0008FDAC0008FDAC0008FDAC0008CC
:10007000FDAC0008FDAC000879F70008FDAC0008F5
:10008000FDAC000885F40008FDAC0008FDAC0008DC
:10009000FDAC0008FDAC0008FDAC0008FDAC00089C
:1000A000FDAC0008FDAC0008FDAC00081DDB00083D
:1000B000FDAC0008FDAC00086DDA000839D200087C
:1000C0001DD600083DD2000819D60008FDAC000876
:1000D000FDAC0008FDAC0008FDAC000839D90008F3
:1000E000FDAC0008FDAC0008856A0108FDAC000805
:1000F000FDAC0008FDAC0008FDAC0008FDAC00083C
:10010000FDAC0008FDAC0008FDAC0008FDAC00082B
:100110007DE10008FDAC0008B1E10008FDAC00087D
:10012000FDAC0008FDAC0008FDAC0008FDAC00080B
:10013000FDAC0008FDAC0008FDAC0008FDAC0008FB
:10014000FDAC0008FDAC0008FDAC0008B56A010874
:10015000FDAC0008FDAC00085DF10008FDAC000836
:10016000FDAC0008FDAC0008FDAC0008FDAC0008CB
:10017000FDAC0008FDAC0008FDAC0008FDAC0008BB
:08018000FDAC0008FDAC000815
:1080000010B5054C237833B9044810B10448AFF3D8
:1080100000800121217010BD280C0020000000000C
:10802000F80E030808B5064B1BB106480649AFF326
:1080300000800648016811B1054A02B1904708BDA9
:1080400000000000F80E03082C0C0020280C002073
:108050000000000081F0004102E000BF83F0004317
:1080600030B54FEA41044FEA430594EA050F08BFD3
:1080700090EA020F1FBF54EA000C55EA020C7FEA97
:10808000645C7FEA655C00F0E2804FEA5454D4EB14
:108090005555B8BF6D420CDD2C4480EA020281EADE
:1080A000030382EA000083EA010180EA020281EA16
:1080B0000303362D88BF30BD11F0004F4FEA013168
:1080C0004FF4801C4CEA113102D0404261EB410177
:1080D00013F0004F4FEA03334CEA133302D05242FD
:1080E00063EB430394EA050F00F0A780A4F10104B9
:1080F000D5F1200E0DDB02FA0EFC22FA05F28018F3
:1081000041F1000103FA0EF2801843FA05F35941D8
:108110000EE0A5F120050EF1200E012A03FA0EFC57
:1081200028BF4CF0020C43FA05F3C01851EBE37181
:1081300001F0004507D54FF0000EDCF1000C7EEB9E
:1081400000006EEB0101B1F5801F1BD3B1F5001FDC
:108150000CD349085FEA30004FEA3C0C04F10104FB
:108160004FEA445212F5800F80F09A80BCF1004F24
:1081700008BF5FEA500C50F1000041EB045141EAA6
:10818000050130BD5FEA4C0C404141EB010111F4A7
:10819000801FA4F10104E9D191F0000F04BF014652
:1081A0000020B1FA81F308BF2033A3F10B03B3F130
:1081B00020020CDA0C3208DD02F1140CC2F10C02C0
:1081C00001FA0CF021FA02F10CE002F11402D8BF1E
:1081D000C2F1200C01FA02F120FA0CFCDCBF41EAEA
:1081E0000C019040E41AA2BF01EB0451294330BDB9
:1081F0006FEA04041F3C1CDA0C340EDC04F1140496
:10820000C4F1200220FA04F001FA02F340EA03006C
:1082100021FA04F345EA030130BDC4F10C04C4F1B2
:10822000200220FA02F001FA04F340EA0300294692
:1082300030BD21FA04F0294630BD94F0000F83F4DC
:10824000801306BF81F480110134013D4EE77FEABF
:10825000645C18BF7FEA655C29D094EA050F08BF0B
:1082600090EA020F05D054EA000C04BF19461046EC
:1082700030BD91EA030F1EBF0021002030BD5FEA30
:10828000545C05D14000494128BF41F0004130BD58
:1082900014F580043CBF01F5801130BD01F00045AC
:1082A00045F0FE4141F470014FF0000030BD7FEA1F
:1082B000645C1ABF194610467FEA655C1CBF0B461A
:1082C000024650EA013406BF52EA033591EA030F31
:1082D00041F4002130BD00BF90F0000F04BF002129
:1082E000704730B54FF4806404F132044FF000055C
:1082F0004FF0000150E700BF90F0000F04BF0021D5
:10830000704730B54FF4806404F1320410F000453A
:1083100048BF40424FF000013EE700BF42004FEA35
:10832000E2014FEA31014FEA02701FBF12F07F43B2
:1083300093F07F4F81F06051704792F0000F14BFAF
:1083400093F07F4F704730B54FF4607401F00045F3
:1083500021F0004120E700BF50EA010208BF70474A
:1083600030B54FF000050AE050EA010208BF70473F
:1083700030B511F0004502D5404261EB41014FF4A8
:10838000806404F132045FEA915C3FF4DCAE4FF0AC
:1083900003025FEADC0C18BF03325FEADC0C18BF93
:1083A000033202EBDC02C2F1200300FA03FC20FAE4
:1083B00002F001FA03FE40EA0E0021FA02F1144431
:1083C000C1E600BF70B54FF0FF0C4CF4E06C1CEA46
:1083D00011541DBF1CEA135594EA0C0F95EA0C0FBB
:1083E00000F0DEF82C4481EA030621EA4C5123EA2E
:1083F0004C5350EA013518BF52EA033541F480115D
:1084000043F4801338D0A0FB02CE4FF00005E1FB0F
:1084100002E506F00042E0FB03E54FF00006E1FB59
:1084200003569CF0000F18BF4EF0010EA4F1FF049C
:10843000B6F5007F64F5407404D25FEA4E0E6D41DC
:1084400046EB060642EAC62141EA55514FEAC520ED
:1084500040EA5E504FEACE2EB4F1FD0C88BFBCF569
:10846000E06F1ED8BEF1004F08BF5FEA500E50F11A
:10847000000041EB045170BD06F0004646EA0101E0
:1084800040EA020081EA0301B4EB5C04C2BFD4EB12
:108490000C0541EA045170BD41F480114FF0000E0B
:1084A000013C00F3AB8014F1360FDEBF002001F079
:1084B000004170BDC4F10004203C35DA0C341BDCF3
:1084C00004F11404C4F1200500FA05F320FA04F0C5
:1084D00001FA05F240EA020001F0004221F00041F9
:1084E00010EBD37021FA04F642EB06015EEA430E6C
:1084F00008BF20EAD37070BDC4F10C04C4F120059C
:1085000000FA04F320FA05F001FA04F240EA02004E
:1085100001F0004110EBD37041F100015EEA430E1F
:1085200008BF20EAD37070BDC4F1200500FA05F23F
:108530004EEA020E20FA04F301FA05F243EA0203BE
:1085400021FA04F001F0004121FA04F220EA0200CD
:1085500000EBD3705EEA430E08BF20EAD37070BD13
:1085600094F0000F0FD101F00046400041EB0101F3
:1085700011F4801F08BF013CF7D041EA060195F0D5
:10858000000F18BF704703F00046520043EB03038F
:1085900013F4801F08BF013DF7D043EA060370477C
:1085A00094EA0C0F0CEA135518BF95EA0C0F0CD087
:1085B00050EA410618BF52EA4306D1D181EA0301CD
:1085C00001F000414FF0000070BD50EA410606BFC7
:1085D0001046194652EA430619D094EA0C0F02D10C
:1085E00050EA013613D195EA0C0F05D152EA033651
:1085F0001CBF104619460AD181EA030101F000416F
:1086000041F0FE4141F470014FF0000070BD41F0B7
:10861000FE4141F4780170BD70B54FF0FF0C4CF491
:10862000E06C1CEA11541DBF1CEA135594EA0C0FB0
:1086300095EA0C0F00F0A7F8A4EB050481EA030EFD
:1086400052EA03354FEA013100F088804FEA0333E4
:108650004FF0805545EA131343EA12634FEA0222B2
:1086600045EA111545EA10654FEA00260EF0004173
:108670009D4208BF964244F1FD0404F5407402D2C5
:108680005B084FEA3202B61A65EB03055B084FEA56
:1086900032024FF480104FF4002CB6EB020E75EB53
:1086A000030E22BFB61A754640EA0C005B084FEA7B
:1086B0003202B6EB020E75EB030E22BFB61A7546F8
:1086C00040EA5C005B084FEA3202B6EB020E75EB43
:1086D000030E22BFB61A754640EA9C005B084FEABB
:1086E0003202B6EB020E75EB030E22BFB61A7546C8
:1086F00040EADC0055EA060E18D04FEA051545EAB7
:1087000016754FEA06164FEAC30343EA52734FEA5F
:10871000C2025FEA1C1CC0D111F4801F0BD141EAD8
:1087200000014FF000004FF0004CB6E711F4801F3D
:1087300004BF01430020B4F1FD0C88BFBCF5E06F1D
:108740003FF6AFAEB5EB030C04BFB6EB020C5FEA2D
:10875000500C50F1000041EB045170BD0EF0004E82
:108760004EEA113114EB5C04C2BFD4EB0C0541EAB4
:10877000045170BD41F480114FF0000E013C90E6B1
:1087800045EA060E8DE60CEA135594EA0C0F08BF75
:1087900095EA0C0F3FF43BAF94EA0C0F0AD150EA74
:1087A00001347FF434AF95EA0C0F7FF425AF104607
:1087B00019462CE795EA0C0F06D152EA03353FF42F
:1087C000FDAE1046194622E750EA410618BF52EAAC
:1087D00043067FF4C5AE50EA41047FF40DAF52EA80
:1087E00043057FF4EBAE12E74FF0FF3C06E000BF1D
:1087F0004FF0010C02E000BF4FF0010C4DF804CD2A
:108800004FEA410C7FEA6C5C4FEA430C18BF7FEAE9
:108810006C5C1BD001B050EA410C0CBF52EA430C17
:1088200091EA030F02BF90EA020F0020704710F197
:10883000000F91EA030F58BF994208BF90422CBF26
:10884000D8176FEAE37040F0010070474FEA410C1F
:108850007FEA6C5C02D150EA013C07D14FEA430C3D
:108860007FEA6C5CD6D152EA033CD3D05DF8040BAE
:10887000704700BF8446104662468C4619466346E0
:1088800000E000BF01B5FFF7B7FF002848BF10F1B7
:10889000000F01BD4DF808EDFFF7F4FF0CBF0120FC
:1088A00000205DF808FB00BF4DF808EDFFF7EAFF78
:1088B00034BF012000205DF808FB00BF4DF808ED33
:1088C000FFF7E0FF94BF012000205DF808FB00BF28
:1088D0004DF808EDFFF7CEFF94BF012000205DF8B2
:1088E00008FB00BF4DF808EDFFF7C4FF34BF0120BF
:1088F00000205DF808FB00BF4FEA410212F50012AC
:1089000015D211D56FF47873B3EB625212D94FEAD6
:10891000C12343F0004343EA505311F0004F23FAC0
:1089200002F018BF404270474FF00000704750EA15
:10893000013005D111F0004008BF6FF000407047D2
:108940004FF00000704700BF4FEA4102B2F1E04330
:1089500024BFB3F5001CDCF1FE5C0DD901F0004C26
:108960004FEAC0024CEA5070B2F1004F40EB830076
:1089700008BF20F00100704711F0804F21D113F1A2
:108980003872BCBF01F00040704741F480114FEADB
:108990005252C2F11802C2F1200C10FA0CF320FA64
:1089A00002F018BF40F001004FEAC1234FEAD32381
:1089B00003FA0CFC40EA0C0023FA02F34FEA4303EB
:1089C000CCE77FEA625307D150EA01331EBF4FF074
:1089D000FE4040F44000704701F0004040F0FE408F
:1089E00040F40000704700BF4BB942B9002908BFEE
:1089F000002802D04FF0FF31084600F037B882B0AF
:108A0000EC462DE9005000F01BF8DDF804E002B060
:108A10000CBC7047F8B5164604460D461F4600F0DC
:108A200027F806FB01F300FB0737A6FB0023FB1822
:108A3000A21A65EB0303069CC4E90023F8BD00BF3E
:108A4000F8B5164604460D461F4600F06FF900FBC8
:108A500007F7A0FB062306FB0177FB18A21A65EBBC
:108A60000303069CC4E90023F8BD00BF704700BFA4
:108A700000292DE9F00F1D46C0F29D800024002D35
:108A8000C0F2948080460F4694461E46E3BB8A425D
:108A900055D9B2FA82F747B1C7F1200520FA05F699
:108AA00001FA07F1BA403143B840170CB1FBF7F6B1
:108AB000030C1FFA82FC07FB16110CFB06F543EAB8
:108AC00001439D4208D9711E9B1880F013819D427D
:108AD00040F21081023E9B18591BB1FBF7F507FBD2
:108AE000151380B20CFB05FC40EA03418C4507D905
:108AF0006B1E8A1880F00081944540F2FD80023D93
:108B000045EA0641002503E08B420CD900252946A1
:108B10000A462B4614B1524263EB430310461946F2
:108B2000BDE8F00F7047B3FA83F5002D40F0878061
:108B30008B4201D38242EAD800250121E8E712B92D
:108B40000126B6FBF2F2B2FA82F6002E39D18E1A65
:108B5000130C1FFA82FC0125B6FBF3F703FB176128
:108B60004FEA10490CFB07F849EA0146B04506D91F
:108B7000791EB61802D2B04500F2D3800F46C8EB7A
:108B80000606B6FBF3F103FB116380B20CFB01FC9C
:108B900040EA03439C4506D94E1E9A1802D29445DA
:108BA00000F2C280314641EA0741B1E7E443524254
:108BB00063EB430366E7404261EB41014FF0FF3452
:108BC0005DE7B240C6F1200921FA09F720FA09F55C
:108BD000130C01FA06F1B7FBF3F845EA01091FFA95
:108BE00082FC03FB18774FEA19410CFB08F541EAB8
:108BF0000747B040BD420AD9BF1808F1FF3680F0E0
:108C00008E80BD4240F28B80A8F10208BF18791B0C
:108C1000B1FBF3F503FB15171FFA89F90CFB05F6F9
:108C200049EA07418E4206D96F1E891871D28E42D9
:108C30006FD9023D89188E1B45EA08458CE7C5F1BE
:108C4000200122FA01F306FA05F61E4327FA01F283
:108C50004FEA164907FA05F720FA01F1B2FBF9F8D5
:108C60000F433B0C1FFA86FA09FB18220AFB08FB8C
:108C700043EA024293450CFA05FC08D9921908F11F
:108C8000FF314AD2934548D9A8F102089219CBEB9B
:108C90000203B3FBF9F109FB1132BFB20AFB01FA7F
:108CA00047EA02439A4506D94A1E9B1933D29A4590
:108CB00031D902399B1941EA08410F0C1FFA8CF88F
:108CC00008FB07F68AB24FEA1C4C08FB02F80CFBC3
:108CD000026202EB18420CFB07FC964288BF0CF5BF
:108CE000803CCAEB03030CEB124C63450ED305D05A
:108CF00000250DE70E46EFE61D4601E71FFA88F84E
:108D000000FA05F008EB0245A842F1D2013900252E
:108D1000FEE63D468FE71146CDE78846B7E7B04609
:108D200075E7023FB6182AE702393CE72DE9F0075C
:108D3000144605460E46002B3DD18A4249D9B2FA67
:108D400082F747B1C7F1200120FA01F206FA07F6CF
:108D5000BC401643BD40220CB6FBF2F02F0CA1B272
:108D600002FB106601FB00F347EA0646B34208D94E
:108D7000471E361980F0F880B34240F2F580023881
:108D80003619F61AB6FBF2F302FB1362ADB201FB21
:108D900003F145EA0242914207D95E1E121980F0A2
:108DA000E580914240F2E280023B43EA004000212C
:108DB000BDE8F00770478B4243D8B3FA83F4002C28
:108DC00042D18B4202D3824200F2DF800021012097
:108DD000EEE712B90127B7FBF2F4B4FA84F2002AE5
:108DE00040F088800A1B230CA7B20121B2FBF3F6E6
:108DF00003FB16224FEA154C07FB06F04CEA024231
:108E0000904207D9121906F1FF3C02D2904200F2BB
:108E1000CE806646121AB2FBF3F003FB1023ADB20C
:108E200007FB00F745EA03439F4207D9421E1B197F
:108E300080F09E809F4240F29B80023840EA0640CC
:108E4000B6E700210846B3E7C4F1200622FA06F58A
:108E500003FA04F32B434FEA134C21FA06F501FA07
:108E600004F120FA06F6B5FBFCF746EA010A1FFA00
:108E700083F80CFB17554FEA1A4108FB07F941EA42
:108E80000545A94502FA04F203D97E1EED187FD3E9
:108E90003746C9EB0501B1FBFCF60CFB16151FFAB2
:108EA0008AFA08FB06F84AEA0541884503D9751E87
:108EB000C91873D32E4646EA0746370C1FFA82FCC0
:108EC0000CFB07F5120CB3B20CFB03FC02FB0353C3
:108ED00003EB1C4302FB07F29D4288BF02F5803280
:108EE000C8EB010102EB134291424BD342D0304612
:108EF00000215DE79440C2F1200521FA05F6230C1C
:108F000020FA05F701FA02F1B6FBF3FC39430D0C28
:108F1000A7B203FB1C6645EA064607FB0CF8B04502
:108F200000FA02F508D936190CF1FF303DD2B045F0
:108F30003BD9ACF1020C3619C8EB0602B2FBF3F0D8
:108F400003FB10268AB242EA064207FB00F1914277
:108F500006D9461E121926D2914224D90238121976
:108F6000521A40EA0C4141E738460AE733461CE70B
:108F7000104663E71FFA8CFC00FA04F00CEB034385
:108F80009842B4D2701E002112E7214620460FE716
:108F9000A9457FF67DAF023FED187AE7884589D96C
:108FA000023EC91887E73046DAE78446C4E7023E46
:108FB00012192FE770B508210646012010F01AFE9D
:108FC000044618B90B4812F045F911E00136B60015
:108FD000304611F0A5FB0546206028B1304611F05F
:108FE0009FFB0546606018B9024812F033F92C4621
:108FF000204670BD6C4B020870B548210546012023
:1090000010F0F8FD044618B9144812F023F922E0D4
:109010000135AD00284611F083FB0646A06258B129
:10902000284611F07DFB0646E06228B1284611F083
:1090300077FB0646206320B9084812F00BF9344646
:1090400009E0284611F06CFB0546606318B9034837
:1090500012F000F92C46204670BD00BF9D4B02085F
:1090600038B50C210546012010F0C4FD0446681CEB
:109070008500284611F054FB2060284611F050FB73
:109080006060284611F04CFBA060204638BD10B54A
:109090000446806A18B111F04BFB0023A362E06A1A
:1090A00018B111F045FB0020E062206B18B111F0FF
:1090B0003FFB00212163606B18B111F039FB0022E6
:1090C0006263204611F034FB012010BD10B5044648
:1090D000006818B111F02CFB00232360606818B100
:1090E00011F026FB00206060204611F021FB0120DA
:1090F00010BD10B50446006818B111F019FB00232B
:109100002360606818B111F013FB00206060A06854
:1091100018B111F00DFB0021A160204611F008FBF1
:10912000012010BD0000000090ED017AD0ED007A22
:1091300027EE070A07EEA70A836870B5C1ED047A27
:1091400081ED057A8B61044610EE100A0E46FFF79A
:10915000E5F841EC100B16F07DFF51EC100BFFF71A
:10916000F3FB94ED021A00EE900A61EE011A40EE54
:10917000A01AF06011EE900AFFF7D0F841EC100B46
:1091800016F068FF51EC100BFFF7DEFBB060706962
:10919000FFF7C4F8044630690D46FFF7BFF845EC09
:1091A000104B41EC110B16F09FFD13A3D3E90023E4
:1091B00051EC100BFFF706F9FFF7C6FB3060B06902
:1091C000FFF7ACF80446F0680D46FFF7A7F845EC4A
:1091D000104B41EC110B16F087FD07A3D3E90023D8
:1091E00051EC100BFFF7EEF8FFF7AEFB70600120BB
:1091F00070BD00BFAFF30080F8C1631ADCA54C401E
:10920000F0B5D0ED056A90ED047A66EEA07A47EEEF
:10921000007A2DED068B90ED038A90ED06AAC7EE3D
:10922000889A064685B04AEE017AD0ED028AB0EE01
:10923000419A86ED0E1A87EEA81A80ED0C0A26EEEA
:10924000800A17EE200A80ED0A1AC0ED0D0AC0ED63
:109250000B9A10EE100AFFF761F81DA3D3E9002363
:10926000FFF7B0F868EE080A044610EE900A0D46C3
:10927000FFF754F86AEE299A02460B462046294623
:10928000FFF7CAF958EE099AFFF75EFB074630620E
:1092900019EE900AFFF742F80DA3D3E90023FFF778
:1092A00091F868EEA88A044618EE900A0D46FFF77A
:1092B00035F802460B4620462946FFF7ADF9FFF781
:1092C00043FBF7637062012005B0BDEC068BF0BD77
:1092D000F8C1631ADCA54C4084B02DE970432DED34
:1092E000068B0CAC84E80F001398179EFFF716F856
:1092F00058A3D3E90023FFF765F841EC100B41ECCC
:10930000180B16F0C9FA59EC108BB0EE480AF0EEC3
:10931000680A16F0B5FB51EC100BFFF715FBDDEDFD
:109320000F9A08EE100A0C98FEF7F8FF69EE887A9B
:10933000044627EE880A0D4610EE100AFEF7EEFFEF
:1093400002460B4600204249FEF788FE41EC100B16
:109350009DED149A16F07EFE204653EC102B294604
:10936000FFF75AF9FFF7F0FA49460AEE100A4046AD
:10937000FFF7EAFA7AEE098A00EE900A1AEE100A6E
:1093800068EEA08AFEF7CAFF044619EE900A0D4661
:10939000FEF7C4FF02460B4600202D49FEF75EFE95
:1093A00002460B4620462946FFF70CF8044619EE04
:1093B000100A0D46FEF7B2FF02460B46204629462C
:1093C000FEF74EFE044618EE100A0D46FEF7A6FF05
:1093D00002460B4620462946FEF7F4FFFFF7B4FA93
:1093E00008EE100A28EE081A08EEA81A11EE100A64
:1093F000FEF794FF41EC100B16F02CFE51EC100B15
:10940000FFF7A2FA01EE900A88EE218AB06018EE0A
:10941000100AFEF783FF41EC100B16F007FC0AA3BD
:10942000D3E9002351EC100BFEF7CCFFFFF78CFAC9
:10943000129B706033600120BDEC068BBDE8704369
:1094400004B07047AFF30080F8C1631ADCA54C404C
:109450000000F03F399D52A246DF913FAFF30080FC
:1094600084B02DE9F04F2DED048B89B016AC84E863
:109470000F0011EE900A12EE905AB0EE429AB0EE42
:10948000608AFEF74BFFDDED177A38EE670A8046FB
:1094900010EE100A8946FEF741FF2DA3D3E9002301
:1094A000FEF790FFFFF750FAFEF738FF41EC100B84
:1094B00041EC180B16F0E4FA28465BEC10ABFEF713
:1094C0002DFFB0EE480AF0EE680A04460D4616F08D
:1094D000E3F952465B464046494657EC106BFEF7AF
:1094E00071FF3246CDE900013B4620462946FEF792
:1094F00069FF02460B46DDE90001FEF7B1FDFFF70B
:1095000023FA1B9B3246986049463B464046FEF78D
:1095100059FF524606460F465B4620462946FEF74F
:1095200051FF02460B4630463946FEF797FDFFF7DE
:109530000BFA1B9C206084ED019A012009B0BDEC60
:10954000048BBDE8F04F04B0704700BFAFF300805C
:10955000399D52A246DF913F84B070B52DED048B4A
:1095600084B00CAC84E80F0010EE100AF0EE419AC3
:109570008DED031A8DED010ACDED020AFEF7CEFE48
:1095800035A3D3E90023FEF71DFF41EC100B41EC9E
:10959000180B16F081F951EC100BFFF7D5F9B0EE6E
:1095A000480AF0EE680A09EE100A16F069FA51EC62
:1095B000100BFFF7C9F99DED111A81EE293A139CA2
:1095C000129D2168012307EE900A23EE037AA1EC95
:1095D000017AAB4207DC51ED013A23EE834A0133B5
:1095E000A1EC014AF5E762684FF07E53136017EE75
:1095F000900AA36819EE106A0021196042F8046FFE
:1096000043F8040F11461C46022004310433A842DB
:1096100019DC13ED010A51ED016A67EE800A59EE7B
:10962000260A013010EE906A42F8046F13ED012A09
:1096300051ED011A69EE022A47EEA12A12EE906A54
:1096400044F8046FE1E7012004B0BDEC048BBDE8F1
:10965000704004B0704700BF399D52A246DF913F71
:109660002DE9F04F2DED048BF0EEC07AB7EE009AA5
:1096700085B0F4EE497AF1EE10FA02900391B0EE63
:10968000408A904604D1C74811F0E4FD0020C0E1B3
:1096900002F1010302F102045C43022094FBF0F1A9
:1096A0004C1C04FA00F4204611F03AF8834680B1CD
:1096B000204611F035F8814658B1204611F030F8B7
:1096C000824630B14FEA48060136A9F1040700246A
:1096D00001E0B548D8E7B44213DC08EE904AF8EE52
:1096E000E80A013410EE900AFEF718FE41EC100B68
:1096F00016F0B0FC51EC100BFFF726F947F8040FF9
:10970000E9E7022309F108011A4643454FDC571CDB
:10971000BE005D005F1E681E00EE903A06EE107AF5
:1097200008EE900AB8EEE03AF8EEC66AF8EEE87A8B
:1097300086EE831A0BEB06044FEA820E56440BEBBF
:109740000E050195D6440D46012087EE835A86ED1D
:10975000001A84ED005A0C4616EE10CA461C04345A
:10976000844500EB02071EDD55ED023A14ED014A77
:10977000D4ED001A63EE844A87EEA17ADDF804C0C6
:10978000B0000CEB0007704484EEA10A15ED012A2D
:10979000C7EE022A043DC0EE025AC7ED002AC0ED12
:1097A000005A3046D8E7BA1C01330431ADE718EE51
:1097B000100AFEF7B3FD04460D4622462B46002054
:1097C0007A49FEF74BFC002206460F462046294602
:1097D000764BFEF745FC02460B4630463946FEF70F
:1097E000F1FD41EC100B16F035FCDFED718A029CA7
:1097F000039D84ED009A51EC100BC5ED008AB8F181
:10980000000F00F00581FFF79FF807EE900A84ED46
:10981000018AF0EE485A686002230121B7EE000A7F
:10982000434529DCC9188A000BEB0204D4ED006A19
:109830000AEB0205D5ED001A28EE261A20EE212AA1
:1098400011EE252AF0EE653A07EE103A48EE423A5C
:10985000F8EEC72A029E039C22EEA34AB018C4EE7B
:10986000274AA218013380ED002AB0EE650AC2ED46
:10987000004AF0EE425AD3E789EE287A09F10C014A
:1098800001230022D9ED026A66EEA86A984540F3EA
:109890009180D1ED005A51ED013A66EEA52A27EEEE
:1098A000277AC2EEA36AD7187A1C029D039C900007
:1098B0002E182718D018441C03988C4605EE103A31
:1098C00026EE874AB8EEC56A86EEA55A0133C4EE85
:1098D000254A68EE251A03EE903A26EE080AB8EEFD
:1098E000E34A21EE856AC6ED004A60EE240A26EEC0
:1098F000072A68EE044A65EE072A24EE820A12EE71
:10990000A50A80EEA73A2E46C0EE275AB1EE431ABA
:1099100087ED001AA700ED19C71985ED002A581C1C
:10992000C7ED005A09F10407404539DC2418A500A9
:109930000BEB050EDEED000A0AEB050696ED001AAC
:1099400028EE203A029E65EE011A53EE061A06EB47
:10995000050E04EE900A039E0CF1040C75190437F1
:109960006646B8EEE40AD6ED002A97ED005A21EEDD
:10997000872A60EE085A62EE853A26EE074A65EEBF
:10998000820A53EE840A8EED002A80EEA73A3E4604
:109990000130B0EE465A85ED003AB0EE616AC3E799
:1099A000083173E7D36E0208134E02080000F03F3F
:1099B0000000000009EBC80393ED006A86EE860AFA
:1099C000B8F1010FACBF424401320132029C039D49
:1099D000900021182A18584603EE108A27EE277A9D
:1099E000B8EEC31A60EE070A21EE488AC1ED000AFC
:1099F00068EE201A81EEA72A82ED002A10F098FE68
:109A0000484610F095FE504610F092FE012000E00E
:109A1000404605B0BDEC048BBDE8F08F2DE9F04F5A
:109A20002DED028B002389B04FF07E5AC0F800A0C4
:109A300080460B6010EE100AB0EE408A0192894613
:109A4000FEF76CFC04460D4622462B460020B0492A
:109A5000FEF704FB00220F460646AD4B2046294682
:109A6000FEF7FEFA02460B4630463946FEF7AAFCE0
:109A700041EC100B16F0EEFA51EC100BFEF764FF00
:109A8000019A08EE900A0198971C411C4F4302234B
:109A900097FBF3F0013000FA03F010F041FE06EE00
:109AA00010AA074620B99B4811F0D4FB384629E19B
:109AB00001252B46019EB34200F3A3805C1C029457
:109AC0005C1E022003FB04F696FBF0F1CA18511E3F
:109AD00001FA00F109EB010208EB010A04FB04F1B1
:109AE00006910299059201FB03FBAA1E9BFBF0FE67
:109AF0006A4300EE102A0EFA00F2761008EB02001C
:109B000009EB02016FF0030202FB0EFBB2009E1E86
:109B100066430092721096000496002293420FD181
:109B2000DAED001A28EEA12A059E80ED002A9AEDB2
:109B3000003AD6ED002A28EE034A08EEA24A56E083
:109B4000012B0CD1002A54D1D8ED000A28EE201A9E
:109B500080ED001A99ED007AD8ED007A14E048DD26
:109B6000944216DC009E00EB0B0C0CEB060E9EEDF7
:109B7000005A68EE055A01EB0B0CC0ED005A664422
:109B800096ED007ADEED007A28EEA74A18EE074A35
:109B90002DE0069E02FB126607EE906AB8EEC01A30
:109BA000F8EEE70A009EC0EE811A00EB0B0E0EEBFA
:109BB000060C049EB644009EDEED002A9CED002AB1
:109BC00021EEA23A18EE023A01EB0B0E80ED003ABC
:109BD0007644DCED003AD6ED006A049E28EEA34AF6
:109BE00018EE264AB644DEED004A01EEE44A81ED65
:109BF000004A0132043004319A428FDD0235029B63
:109C000058E787ED006A012601998E4252DC06F181
:109C1000010B0BFB06FC4FEA6C04711E07EB840082
:109C2000714374004A10611E01EE901A07EB820323
:109C3000D3ED002AB8EEE12A06EE906A22EE223A2F
:109C4000F8EEE63A044683EE234A4FF0010A80ED2F
:109C5000004A2068FEF762FBBAF1010F14BF01222F
:109C60000222CDE90201CAEB0B0050430AEB0603C6
:109C700004EE900A05EE903AB8EEE45AB8EEE56AC2
:109C80000AF1010A85EE067A17EE100AFEF746FB86
:109C900041EC100B16F0DEF9DDE9020153EC102B5C
:109CA000FEF790FBFEF750FEB24544F8040FD0DDFE
:109CB0005E46A9E70123019EB3421FDC5C1C04FB46
:109CC00003F56A10960008EB060009EB0601BD19C2
:109CD000002205EB820690ED007AD6ED007A27EEA1
:109CE000270A0132A0EC010AD1ED000A20EEE71AA2
:109CF0009A42A1EC011AECDD2346DCE7384610F06D
:109D000017FD012009B0BDEC028BBDE8F08F00BF4C
:109D10000000F03F354E0208C0B52DED028B07461E
:109D200085B010EE900A0E46FEF7F8FA1FA3D3E9AD
:109D30000023FEF747FB41EC100B15F0A1FE51ECA0
:109D4000100BFEF701FE102F08EE100A11DDF0EEE9
:109D5000C87A17EE900AFEF7E1FA02460B46002099
:109D60001149FEF77BF90EA3D3E90023FEF79CFD12
:109D700038B196E80300B0EE480A3A46FFF74EFEC7
:109D800006E096E80300B0EE480A3A46FFF768FCA2
:109D9000003018BF012005B0BDEC028BC0BD00BF74
:109DA000BBBDD7D9DF7CDB3D0000F03F399D52A21F
:109DB00046DF913FAFF300802DE9F04F2DED048B8E
:109DC000074689B008A800E90E00F96B4A1C90000C
:109DD0008DED020ACDED030A8DED041A10F0A0FC02
:109DE000064620B95C4811F035FA3046A8E0169CCA
:109DF00000230546B7EE008A6360A5EC018A03984C
:109E0000FEF78CFA52A3D3E90023FEF7DBFA41EC0C
:109E1000100B15F035FE51EC100BFEF795FD09EE19
:109E2000100A0124F86B844200F3868004F10109D2
:109E30004FEA440A01EE909A00EE90AAB8EEE12AA9
:109E4000B8EEE01A0AF1FF38C1EE022A022109FB3E
:109E500004FB9BFBF1F202F1010B06EE908A07EE88
:109E6000104AF8EEE67AB8EEC70A28EE278A12EE14
:109E7000900A88EE008AFEF751FA41EC100B16F0BA
:109E8000E9F853EC102B18EE100A8DED010A00933F
:109E9000FEF744FA019A009BFEF794FAFEF754FD90
:109EA000012C03EE100A02D1316871601AE0631EC2
:109EB0005B43AAF1030A581E0AFB08FA04EE100AD3
:109EC00008EE90AAB8EEC46AF8EEE88A15ED025AD8
:109ED000C6EE284A55ED013A64EE855A59EE235AEA
:109EE000C5ED005A3B6B059A07994FEA8B0B02EBC5
:109EF000840403EB0B007A6B90ED000A069802EBEA
:109F00000B03D3ED000AD0ED017AD1ED016A20EE0A
:109F1000A71A10EE261AD4ED001AB5EC017A169C99
:109F200021EE212AD4ED013A62EE072A42EE833A6D
:109F3000C4ED013A4C4675E7304610F0F9FB0120BC
:109F400009B0BDEC048BBDE8F08F00BFAFF300801B
:109F5000399D52A246DF913F7F4D0208AFF300804A
:109F600082B02DE9F04F2DED028B89B00D4614A97A
:109F700081E80C00159B1699179C0393049101230B
:109F800000218DED050ACDED060A8DED071AD5F8F5
:109F90003CE02B64A160616021600432734577DC92
:109FA0005E1C06FB03F8022707EE106A98FBF7F821
:109FB000049E039F002102910299043704369942BE
:109FC00064DC029901EB080C296B4FEA8C0C01EB65
:109FD0000C09696B01EB0C0ADAED005A56ED010A27
:109FE00099ED000A57ED016A25EEA01A00EE261A37
:109FF000D2ED001A016821EE212AF8EEC72A01EB02
:10A000000C0BDBED003A22EE223A94ED024A03EE0D
:10A01000634ADDED026A84ED024A17ED016A9AEDAA
:10A02000008AD9ED004A16ED015A68EE067A54EE20
:10A03000857A92ED000AF8EEE60A67EE805ADBEDCB
:10A04000001A94ED012A25EEA01A416801EE212A9A
:10A050008C4484ED012ADAED003A16ED014AD9ED7F
:10A06000002A17ED013A63EE844A42EE834A92EDEC
:10A07000005A9CED006AD4ED007A24EE858A02999C
:10A0800048EE467A0131C4ED007A94E7013384E763
:10A090000698FEF743F91CA3D3E90023FEF792F9D3
:10A0A00041EC100B15F0F8FB51EC100BFEF74CFCDB
:10A0B00008EE100AB0EEC86A16EE100AFEF72EF986
:10A0C00013A3D3E90023FEF70DFC30B1D4ED017AE0
:10A0D00087EE888A84ED018A0CE0009414AC28464F
:10A0E00094E80E009DED050ADDED060A9DED071AC8
:10A0F000FFF762FE012009B0BDEC028BBDE8F04F16
:10A1000002B07047AFF30080399D52A246DF913F05
:10A11000BBBDD7D9DF7CDB3D2DE9F04F2DED048BA6
:10A12000074689B008A800E90E00B96B4A1C9000E8
:10A130008DED020ACDED030A8DED041A10F0F0FA50
:10A14000064620B95C4811F085F83046A8E0169C18
:10A1500000230546B7EE008A6360A5EC018A0398E8
:10A16000FEF7DCF852A3D3E90023FEF72BF941EC0C
:10A17000100B15F085FC51EC100BFEF7E5FB09EE1A
:10A18000100A0124B86B844200F3868004F10109AF
:10A190004FEA440A01EE909A00EE90AAB8EEE12A46
:10A1A000B8EEE01A0AF1FF38C1EE022A022109FBDB
:10A1B00004FB9BFBF1F202F1010B06EE908A07EE25
:10A1C000104AF8EEE67AB8EEC70A28EE278A12EEB1
:10A1D000900A88EE008AFEF7A1F841EC100B15F00A
:10A1E00039FF53EC102B18EE100A8DED010A009385
:10A1F000FEF794F8019A009BFEF7E4F8FEF7A4FB43
:10A20000012C03EE100A02D1316871601AE0631E5E
:10A210005B43AAF1030A581E0AFB08FA04EE100A6F
:10A2200008EE90AAB8EEC46AF8EEE88A15ED025A74
:10A23000C6EE284A55ED013A64EE855A59EE235A86
:10A24000C5ED005ABB6A059A07994FEA8B0B02EBE2
:10A25000840403EB0B00FA6A90ED000A069802EB07
:10A260000B03D3ED000AD0ED017AD1ED016A20EEA7
:10A27000A71A10EE261AD4ED001AB5EC017A169C36
:10A2800021EE212AD4ED013A62EE072A42EE833A0A
:10A29000C4ED013A4C4675E7304610F049FA01200A
:10A2A00009B0BDEC048BBDE8F08F00BFAFF30080B8
:10A2B000399D52A246DF913F554D0208AFF3008011
:10A2C00082B02DE9F04F2DED028B89B0884614A99C
:10A2D00081E80C00179C159B169DD8F838E0039375
:10A2E00000218DED050ACDED060A8DED071A0495C6
:10A2F000A160616021600432012373457BDC5D1C39
:10A30000022605FB03F999FBF6F9002107EE105A26
:10A31000039F049E0291029D043704369D4267DC30
:10A32000029DD8F8281005EB090CD8F82C504FEAFC
:10A330008C0C05EB0C0ADAED005A56ED010A61446B
:10A3400091ED000A57ED016A25EEA01A00EE261ADB
:10A35000D2ED001A056821EE212AF8EEC72A05EB96
:10A360000C0BDBED003A22EE223A94ED024A03EEAA
:10A37000634ADDED026A84ED024A17ED016A9AED47
:10A38000008AD1ED004A16ED015A68EE067A54EEC5
:10A39000857A92ED000AF8EEE60A67EE805ADBED68
:10A3A000001A94ED012A25EEA01AD4ED007A01EEF0
:10A3B000212A84ED012ADAED003A16ED014AD1EDA9
:10A3C000002A17ED013A63EE844A42EE834A41685F
:10A3D00092ED005A01EB0C0595ED006A24EE858A9A
:10A3E000029948EE467A4D1CC4ED007A029592E738
:10A3F0000133043281E70698FDF790FF1CA3D3E9EF
:10A400000023FDF7DFFF41EC100B15F045FA51EC8E
:10A41000100BFEF799FA08EE100AB0EEC86A16EEB5
:10A42000100AFDF77BFF14A3D3E90023FEF75AFAC5
:10A4300030B1D4ED017A87EE888A84ED018A0CE090
:10A44000009414AC404694E80E009DED050ADDED45
:10A45000060A9DED071AFFF75FFE012009B0BDEC6B
:10A46000028BBDE8F04F02B0704700BFAFF3008031
:10A47000399D52A246DF913FBBBDD7D9DF7CDB3D82
:10A4800084B02DE9F04194B01AAC259D269F84E854
:10A490000F00AB6B5A1C981C00FB02F1022691FBCB
:10A4A000F6F08DED050ACDED060A8DED071AFEF7E3
:10A4B00081FD0646A86BFEF7D3FDAB6B03900293BC
:10A4C0001EAA044692E803008DE803000DF1680E11
:10A4D0009EE80F009DED050ADDED060A9DED071AC9
:10A4E000FFF73AF89DED050ADDED060A9DED071A26
:10A4F0003146A86BFFF710FC08A80190A1680091F5
:10A5000094E80C0029469DED050ADDED060A9DED57
:10A51000071A3046FFF7D4FE0EAB0193A2680092F3
:10A5200094E80C0029469DED050ADDED060A9DED37
:10A53000071A3046FFF714FD249D0DF12C080095F5
:10A54000CDF8048020AD95E80F009DED050ADDED06
:10A55000060A9DED071ADDED081A9DED092ADDEDCD
:10A560000A2AFEF77DFF249911A80190009195E831
:10A570000F00DDED0E1A9DED0F2ADDED102A9DED89
:10A58000050ADDED060A9DED071AFEF769FF39465B
:10A590004046FEF7C9FD9DED110ADDED120A9DED65
:10A5A000131A3846FEF72CFE3046FEF78FFD204684
:10A5B000FEF79FFD012014B0BDE8F04104B07047E4
:10A5C0002DE9F04F2DED028B85B004AC04E90F00AE
:10A5D000109C119D236860682B60E36BA16B686021
:10A5E00003F1010A0AFB03F00222A96390FBF2F1D6
:10A5F00001EB030AEB6305F1080004F108019DED8E
:10A60000038A11F02BF9D4F838C00122624553DCDB
:10A61000561C022306FB02F797FBF3F000FA03F344
:10A6200000210F185745D5F82C902FDC676B07EBEE
:10A630000308E76AD4ED016AFF1898ED007AD7EDB8
:10A64000007A38EE660A276B40EE077A9944C9ED26
:10A65000007A07EB0309AF6A07EB030BA76AD4ED97
:10A66000010AFF1897ED002AD9ED001A38EE601A9A
:10A670006F6B01EE212AFF188BED002AD8F800E05D
:10A68000C7F800E0D9F800802F6B0CE0E76AFF18EC
:10A69000D7F8008009EB0307C7F80080A76AFF1806
:10A6A000D7F80080AF6AFF18013104339142C7F830
:10A6B0000080B6DD3246A9E7012005B0BDEC028B73
:10A6C000BDE8F08FF8B55A20FEF796FC244C2549DA
:10A6D00020600C238363C363416020222249083039
:10A6E00011F04AF9236821499E6ADD6A1C6B586B98
:10A6F000002232602A602260026000220F6846F861
:10A70000047F0432D1F804E0AF18C7F800E0D1F8B4
:10A7100008C0A718C7F800C0D1F80CE0871810319E
:10A72000B2F5B47FC7F800E0E8D193ED017AF1EE1D
:10A73000047A37EE270A5B2083ED110AFEF75CFCF2
:10A740000B4B0C4918600C4A0C480D4B01604260E1
:10A7500083600C490C4A0D4B0161C2604361F8BD36
:10A76000281100200040FB44504B0208F072020800
:10A77000481000201951C74505A6C6459C11002068
:10A78000D4BA5B3B3191A73D815DDB3B9A19C7454C
:10A7900008B5054B1868FEF77AFC04480068BDE868
:10A7A0000840FEF774BC00BF2811002048100020AC
:10A7B0002DE9F04F8BB0FFF785FF724BDFF8188261
:10A7C000DFF8189293F83340188E93F83210C9F8D6
:10A7D0000000D3ED016A93ED022AD3ED000ADFED0C
:10A7E0006A7AB8EEE67AF8EEC22A9FED683AB8EED9
:10A7F000E01A27EE270A61EE271A62EE833A00225A
:10A80000C8ED011AC8ED023AC8F81020C9F80410C2
:10A81000C9F8084088ED000A05F0EEF989ED030A51
:10A8200005F0EAF988ED020A05F0E6F988ED010A7B
:10A8300005F0E2F988ED000A45460FCD02AE0FC6DD
:10A840002F68534C3760534EDFF894B1079604F1EC
:10A85000100A9AE803008DE8030094E80F00FEF761
:10A860003BFD4D4BDBF800001A6801900092474613
:10A8700099E80F00FFF7A4FE0FCF96ED000AD6ED82
:10A88000010A96ED021A02AE0FC62968434F3160E5
:10A89000DBF80050424E0795424D08959AE80300B8
:10A8A0008DE8030094E80F00FFF7EAFD3C683046AE
:10A8B000A047D9F80C003C4CFDF730FD02460B4692
:10A8C0003A4821688847D8F80800FDF727FD024676
:10A8D0000B46374821688847D8F80400FDF71EFD6D
:10A8E00002460B46334821688847D8F80000FDF738
:10A8F00015FD02460B463048216888473B683046C4
:10A9000098472869FDF70AFD02460B462B48216847
:10A9100088476869FDF702FD02460B462848216812
:10A920008847A869FDF7FAFC02460B4625482168CE
:10A930008847E868FDF7F2FC02460B46224821688A
:10A940008847A868FDF7EAFC02460B461F482168C5
:10A9500088476868FDF7E2FC02460B461C48216800
:10A9600088472868FDF7DAFC0B460246216819483B
:10A9700088473A68304690470BB0BDE8F04FFFF784
:10A9800007BF00BF404D002095BFD633BD37863589
:10A990009C1100204011002028110020684C00204C
:10A9A000BB6202084C1100206C4C00209078020819
:10A9B0009F780208AE780208BD780208CC780208B9
:10A9C000DB780208EA780208F978020808790208B8
:10A9D00017790208267902082C1100208C1100201A
:10A9E0004810002013B50120174C01460EF0DEFC84
:10A9F000032002214FF4C05300228DF805008DF88A
:10AA000004102046694600938DF806208DF8072033
:10AA10000EF036FB20460B210A220EF08BFB0A2299
:10AA200020460C210EF086FB01214FF480400EF0F1
:10AA3000E1FC802001210EF0C5FC4FF08050012187
:10AA40000EF0E4FC1CBD00BF0000024007B54FF44F
:10AA5000C0600EF097F8012043238DF80500032213
:10AA60008DF8070001A88DF804308DF806200EF04F
:10AA700093F80EBD782358430722B0FBF2F0002173
:10AA800001318142FCD970474FF47A735843FFF784
:10AA9000F1BF0000024B03490020186008607047B6
:10AAA000B4110020B811002000207047002070472A
:10AAB00070B500238B420CD0074AC65C1468074D62
:10AAC0002E550134B4F5006F08BF00241460013323
:10AAD000F0E7002070BD00BF04100020A954002042
:10AAE00070B500238B420ED0084AC65C1568084C2E
:10AAF00066550135632DC8BF002515601268002515
:10AB0000A5540133EEE7002070BD00BFB411002052
:10AB1000BC110020044B054918680A68801A18BF48
:10AB20006FF00000704700BFB8110020B411002082
:10AB3000084B09491A680868824207D00748815CB7
:10AB40000132632AC8BF00221A6000E0002148B227
:10AB5000704700BFB8110020B4110020BC110020C4
:10AB600012230B80004870473400002004230B8020
:10AB7000004870473000002010B5044C04480A46D5
:10AB800021460DF091FE204610BD00BFEC53002081
:10AB90003579020810B5044C04480A4621460DF0E8
:10ABA00083FE204610BD00BFEC5300204879020808
:10ABB00010B5044C04480A4621460DF075FE2046A7
:10ABC00010BD00BFEC5300205679020808B50A46B4
:10ABD00008B9044800E0044804490DF065FE034844
:10ABE00008BD00BF617902086E790208EC530020AD
:10ABF00008B50A4608B9044800E0044804490DF0C5
:10AC000053FE034808BD00BF7B7902089C79020807
:10AC1000EC53002070477047014B01221A707047B7
:10AC2000B30D0020014B00221A707047B30D0020B5
:10AC3000014B01221A707047B30D00207047704716
:10AC40001C481D49026800608A4200F01E800021F5
:10AC500000F004B8194B5B58435004311848194BA5
:10AC600042189A42FFF4F6AF174A00F003B80023E7
:10AC700042F8043B154B9A42FFF4F9AF0BF020FF6A
:10AC80000FF090FC0AF026FE7047114E114830601C
:10AC9000114E12483060124E12483060124E134866
:10ACA0003060134E134830601348D0F800D040682D
:10ACB00000470000FCFF0120EFBEADDE240F0308BB
:10ACC00000000020280C0020280C0020B05C002090
:10ACD0003038024010000000001002400014000054
:10ACE000041002400000000008100240002800008C
:10ACF00014100240600000000000FF1FFFF7FEBFBD
:10AD00001FB5184B184A197802A80090062310683E
:10AD1000032202F047FB15499DF809009DF80A201F
:10AD20009DF8083088704A719DF80C009DF80D2040
:10AD3000CB709DF80B3048700A700B71B1F9003080
:10AD400013F5805F0BD0B1F9020010F5805F06D0DB
:10AD5000B1F9041011F5805018BF012000E0002067
:10AD600005B000BD361200202C1200203012002049
:10AD700030B55D485D4C90F822135D4D00230329EA
:10AD80000CBF5C4A5C4A85B022601E221E218DF8F1
:10AD90000C302A7071230022206802F0E5FB32207B
:10ADA00003F074FF524B206819780122202302F02F
:10ADB000DBFB142003F06AFF504800210160416072
:10ADC000816000244A4A494D1178286802220123F3
:10ADD00002F0CAFB322003F059FF012003F056FFB6
:10ADE000434B424D197803A800900922012328689B
:10ADF00002F0D8FA9DF80C10CB07EED5FFF780FFD4
:10AE000080B33F4A3D4BB2F90000B2F90250B2F9AB
:10AE1000041007EE100A01EE905A04EE101AB8EE74
:10AE2000C70ADFED387AB8EEE12AF8EEC44A9FEDA2
:10AE3000365AC7EE800AC7EE822AC5EE245AD3EDF1
:10AE4000006A93ED013A93ED026A36EEA01A73EEB2
:10AE5000223A36EE257A83ED001AC3ED013A83EDEE
:10AE6000027A01E0013CE4B20134E4B2092CA9D930
:10AE70001D4B224893F822231D4C00EB820595EDD3
:10AE8000000AF2EE047AC0EE270A2178002270232D
:10AE9000F0EEE06AC0ED006A95ED011AC1EE271AE6
:10AEA000B0EEE12A80ED012AD5ED022A82EEA73A22
:10AEB0000E4DF0EEC33AC0ED023A286802F054FBA2
:10AEC000322003F0E3FE217828680222002302F0FA
:10AED0004BFB142003F0DAFEFFF712FF142003F0FF
:10AEE000D5FE05B030BD00BF684E00202C120020FA
:10AEF0003612002000580040005400403812002054
:10AF000030120020CD0C9E446726934470B52D4E20
:10AF10002D4C2E4D30464FF480710EF005F9BB21BB
:10AF2000204603F0CDFC0021204603F0C9FC00219F
:10AF30006870204603F0C4FC00212870204603F00E
:10AF4000BFFC0021E870204603F0BAFC0021A87085
:10AF5000204603F0B5FC00216871204603F0B0FCE8
:10AF600000212871204603F0ABFC194D00216870C8
:10AF7000204603F0A5FC00212870204603F0A0FC29
:10AF8000144D00216870204603F09AFC00212870BF
:10AF9000204603F095FC0021E870204603F090FC69
:10AFA0000021A870204603F08BFC00216871204628
:10AFB00003F086FC4FF4807128713046BDE8704084
:10AFC0000EF0B0B800040240003C004060120020C7
:10AFD000501200209C120020224B234AB3F900009B
:10AFE000224B234907EE900A9FED227AB8EEE70A3A
:10AFF0009FED211AC0EE070A2048D3ED0D6A70EECE
:10B00000811A93ED102AD3ED0E2A93ED113AD3ED68
:10B010000F3A93ED124AD3ED134A93ED165AD3ED3E
:10B02000145A93ED176AD3ED157A93ED180A01EED1
:10B03000A62A01EEA23A01EEA34A01EEA45A01EEBD
:10B04000A56A01EEA70AC1ED001A82ED002A82ED81
:10B05000013A82ED024A80ED005A80ED016A80EDEE
:10B06000020A704750120020740C0020684E002025
:10B07000741200200000AA4300000C425412002069
:10B0800010B5644886B00023012200930193029317
:10B09000039304930593027041F28834FFF736FF5F
:10B0A000FFF79AFF5C495D4AB1F90030B1F902003F
:10B0B000B1F9041006EE903AD2ED017A584BB8EE91
:10B0C000E60A93ED001A70EE670A02EE900A70EE3F
:10B0D000C11A92ED047AD2ED023A9DED002AB8EE43
:10B0E000E23A06EE901A01EE872A33EE634AD3ED78
:10B0F000014AD2ED037AB8EEE60A34EE645AD2ED94
:10B10000055A70EE670A93ED021A92ED067A9DEDEC
:10B11000016A444A4449B2F90200B2F90030B2F976
:10B12000042005EE256A70EEC11A8DED002A9DED12
:10B13000022A02EE903A01EE872A05EE900A01EE0D
:10B14000102AB8EEE23A8DED016AD1ED003AB8EE80
:10B15000E56AD1ED016AF8EEC11A91ED027A33EE9B
:10B16000634ADDED034ADDED047ADDED052A8DED60
:10B17000022A36EE660A31EEC72A34EE845A77EE9A
:10B18000800A32EE823A013C4FF47A70A4B28DED1F
:10B19000035ACDED040A8DED053A03F05BFD002C5A
:10B1A0007FF47CAF234600A9C818D0ED003A9FED8C
:10B1B0001F4AC3EE844A06A91D4A9A18C0ED004AE8
:10B1C000C81810ED035AC5EE045A04330C2BC2ED17
:10B1D000005AE8D1DDED016A9DED006A66EEA67ABF
:10B1E00046EE067A9DED020A40EE007A17EE900ACE
:10B1F000FDF794F841EC100B14F02CFF51EC100B00
:10B20000FDF7A2FB0B4A106002480021017006B056
:10B2100010BD00BF600C002060120020684E0020AE
:10B22000740C00209C1200205412002000409C4509
:10B23000841200206400002038B55A4D5A4C28462C
:10B240004FF480710DF070FF6B21204603F038FB46
:10B250008021204603F034FB28464FF480710DF026
:10B2600061FF962003F012FD28464FF480710DF027
:10B270005BFF6B21204603F023FB0321204603F0F4
:10B280001FFB28464FF480710DF04CFF012003F0A6
:10B29000E1FC28464FF480710DF046FF6A212046FC
:10B2A00003F00EFB1021204603F00AFB28464FF462
:10B2B00080710DF037FF012003F0CCFC28464FF4DD
:10B2C00080710DF031FF6C21204603F0F9FA002166
:10B2D000204603F0F5FA28464FF480710DF022FF66
:10B2E000012003F0B7FC28464FF480710DF01CFFDD
:10B2F0001921204603F0E4FA0021204603F0E0FA89
:10B3000028464FF480710DF00DFF012003F0A2FCE0
:10B3100028464FF480710DF007FF1A21204603F0F4
:10B32000CFFA224B204693F8981003F0C9FA28462A
:10B330004FF480710DF0F6FE012003F08BFC2846DF
:10B340004FF480710DF0F0FE1C21204603F0B8FA96
:10B350000821204603F0B4FA28464FF480710DF01E
:10B36000E1FE012003F076FC28464FF480710DF0D9
:10B37000DBFE1B21204603F0A3FA1021204603F038
:10B380009FFA28464FF480710DF0CCFE2046022132
:10B3900003F0BBFA642003F079FCBDE83840FFF706
:10B3A0006FBE00BF00040240003C0040684E002019
:10B3B00030B50E4D0E4C2868217885B003AB009354
:10B3C0000022032301F0EEFF0A489DF80C209DF8AF
:10B3D0000D109DF80E30827041700370217828683E
:10B3E000FF22482302F0C0F805B030BDC81200208B
:10B3F000C4120020DC12002030B50E4D0E4C28681F
:10B40000217885B003AB00930022032301F0CAFF2B
:10B410000A489DF80C209DF80D109DF80E308270A2
:10B420004170037021782868FF22582302F09CF8AD
:10B4300005B030BDC8120020C4120020B812002090
:10B44000094B0A491A880B68094910021A1A094857
:10B450000B88026082FB0323D20D42EA4320064B95
:10B4600000F5FA6119607047CC120020C01200206C
:10B47000B0120020B4120020D01200200000000002
:10B480002DE9F8434C494D4B0E6818884C4A86FB11
:10B4900000011488C50945EA4160CB114FEA044810
:10B4A0004849494C0A88258818EB00084FF00009E4
:10B4B00049EB0309E80386FB0245230A43EA0562D8
:10B4C0002C12424DD5F800E00021801841EB040118
:10B4D000BEF5FA6F31DA76434FEAE67CAEF5FA66EE
:10B4E0007643F3179A00B400A41942EA967545EB27
:10B4F0000305A3086F104FEA340643EA8572AB10C8
:10B50000334DAE450EDA0EF2DC5464430725C5FB1D
:10B5100004670B2584FB05456D104FEA34041219AE
:10B5200043EB0503294CCCEB0E052560B8EB060870
:10B5300069EB0709801A61EB0301264A1368A3FB34
:10B54000004503FB0155610D6B1541EAC522B2EBC5
:10B55000080863EB09094FEAD83040EA494207EE90
:10B56000902A9FED1D0AB8EEE77AC7EE000A10EEAA
:10B57000900AFCF7D3FE9FED0C1B41EC100B14F06E
:10B58000B5FB002053EC102B1449FCF767FD08A312
:10B59000D3E90023FCF716FFFDF7D6F9104BD8636B
:10B5A000BDE8F883AFF30080000000C0955BC83FA2
:10B5B0000000000040A5E540B4120020B2120020B7
:10B5C000BC120020E0120020D8120020D01200206F
:10B5D00024FAFFFFD412002080E6C5470000F03FA8
:10B5E000284E0020AFF300807FB5464B464D93F8C0
:10B5F0002303464C012803D1454E77222E6002E0FA
:10B60000444976222960227021782868FF221E236F
:10B6100001F0AAFF03AE0A2003F038FB2178009660
:10B62000A2220223286801F0BDFE9DF80C009DF8BF
:10B630000D10394BA4225870197028682178009693
:10B64000022301F0AFFE9DF80C209DF80D00334B56
:10B6500021785A701870A62202230096286801F0FB
:10B66000A1FE9DF80C309DF80D202D4928684B70E7
:10B670000A70022321780096A82201F093FE9DF81B
:10B680000C109DF80D302748AA22417003702178D4
:10B6900000960223286801F085FE9DF80C209DF895
:10B6A0000D102148022342700170AC2221780096CF
:10B6B000286801F077FE9DF80C009DF80D201B4BCB
:10B6C000217858701A702868FF22582301F04CFF27
:10B6D0000A2003F0DBFAFFF76BFE0A2003F0D6FA2C
:10B6E000FFF78AFE0A2003F0D1FA1149114B0868CE
:10B6F000114A1860116811480160FFF7A1FEFFF7B9
:10B70000BFFE7FBD684E0020C8120020C41200207A
:10B710000058004000540040D8120020BC12002005
:10B72000E0120020B2120020CC120020B012002043
:10B73000B8120020D4120020DC120020C012002019
:10B7400030B5294B294A93F899402949013C4FF0DB
:10B750007E500023032C32D8DFE804F0310211219F
:10B76000244D136050609360D06013615361936106
:10B77000D36111622B606960AB60E8601DE01D4D14
:10B78000116053609360D360106153619361D36122
:10B79000116229606B60AB60EB6029611EE0154DA2
:10B7A000136051609360D160136153619361D36101
:10B7B00011622B606860AB60E9602B610EE00D4D9B
:10B7C000106053609360D360116153619361D361E2
:10B7D000116228606B60AB60EB6028616B61AB61EC
:10B7E000EB61296230BD00BF684E002008130020C5
:10B7F000000080BFE41200207FB500230C22ADF8CA
:10B800000430ADF80630ADF80830ADF80A20ADF8D8
:10B810000C301D461248134E2958134804AC043509
:10B8200044F8101D69460EF0F5F81C2133680F48E6
:10B830009847322003F02AFA142DEBD14FF4164228
:10B840006946094800920EF0E5F833680848D921A6
:10B8500098470849084A00200870136898477FBD38
:10B8600060010020941500200044004041010020A8
:10B8700068000020A7150020A015002010B5344B4B
:10B880001878012863D133490A78022A0AD1324A4A
:10B89000324B906851681860D0681269596098609E
:10B8A000DA6010BD032A08D12B4A2C4B107951794C
:10B8B00083F8290083F82A1010BD042A06D1264AED
:10B8C000264B908951899886D98610BD062A06D1C3
:10B8D000214B224993F82F0081F8280010BD122A2D
:10B8E0000ED11D4A1D4B516890681961D16858618D
:10B8F0009961106951699269D86119625A6210BDE3
:10B90000212A0CD11448154B02688189DA62827BA6
:10B91000C07B198683F8322083F8330010BD302AAB
:10B9200015D10D4A0D4B1079002183F838000133F1
:10B9300081420CD0147A83F83840547A83F86A40F4
:10B9400012F80C4F013183F89C40C9B2EFE710BDEB
:10B9500098150020A415002030130020404D002031
:10B96000F8B53D4B18688047002507462E46BD4276
:10B9700070D03A493A4C0A68904703462078082824
:10B9800065D8DFE800F005090D15222F3D555B0055
:10B99000B52B5CD1012359E0622B56D1022355E02F
:10B9A000304A31483149137003700B7003234DE066
:10B9B0002D482F4A017813705B182C4ADBB20370B4
:10B9C00010781918117004212FE02748294A0178AE
:10B9D00013705B18254ADBB20370107819181170C8
:10B9E000052122E0244A002010701F481F4A0178D8
:10B9F0005B18DBB20370107819181170062114E07F
:10BA0000194A10781918C9B21170184A1078091813
:10BA10001170194A1948117843544B1CD9B211704E
:10BA2000144A1078884212D807210D4B19700EE085
:10BA30000D480178994208D1082307E00B490A789C
:10BA40009A4202D1FFF71AFF012600232370013525
:10BA5000ADB28CE73046F8BD901500209C15002053
:10BA6000A71500209815002099150020A515002085
:10BA7000A41500202C130020A61500203013002050
:10BA800010B5054C0146204602F01AFF2046002161
:10BA9000BDE8104002F014BF0038004038B5064C35
:10BAA00003460D462046194602F00AFF2046294665
:10BAB000BDE8384002F004BF0038004010B5094C22
:10BAC000237873B1084808210DF02EFB07490020A8
:10BAD0000978FFF7E3FF044808210DF023FB00205D
:10BAE000207010BD840C002000000240820C002059
:10BAF0002DE9F0410F469DF818104FF01E0805463D
:10BB000008FB031814460AB1FFF7D8FF08212048A4
:10BB10000DF00AFB04F00200C2B214F0010F0CBFDA
:10BB200000211021002A14BF0823002317F1FF363B
:10BB300018BF0126314319430420FFF7AFFF05204A
:10BB40004FEA1821FFF7AAFF06205FFA88F1FFF7F6
:10BB5000A5FF0024E1B2B9420FD235B128460FF05B
:10BB6000DBFEA04203D3295D02E0294600E000216C
:10BB70000720FFF793FF0134ECE71EB10720FF21F8
:10BB8000FFF78CFF02480821BDE8F0410DF0CABA6A
:10BB90000000024010B52D4B93F8C902022821D1B4
:10BBA00008212B480DF0C0FAA020FFF769FF0821FB
:10BBB000044627480DF0B6FA04F00201CCB29CB955
:10BBC000244B25494FF4F0721A80244B1020482250
:10BBD00008801A702249234B42224C201A700870A8
:10BBE000402212E00028EBD11A491B4B4FF4C370DE
:10BBF00008801A490D2208201A800870184B19492C
:10BC00000C2202201A70087000221348164B01887B
:10BC10001A70164A4B0812201370434303F0FE03B8
:10BC2000A3F14801124AC9B203F148001170C2B22F
:10BC300010480A3302701048DBB203700F480170DD
:10BC40000F490A700F4A137010BD00BF684E0020E4
:10BC500000000240880C0020860C0020820C00208E
:10BC60008A0C0020830C00208B0C0020AE150020D5
:10BC7000A9150020AB150020A8150020AC15002048
:10BC8000AD150020AA15002010B51A4B93F8C80274
:10BC900000282ED0FFF77EFF174808210DF044FA48
:10BCA000164900200978FFF7F9FE082112480DF027
:10BCB00039FA012002F0EAFF0F4808210DF034FAAA
:10BCC00000240F4A1388A34208D904F11000C0B21F
:10BCD00002210134FFF7E2FEE4B2F2E70949002055
:10BCE0000978FFF7DBFE04480821BDE810400DF09D
:10BCF00019BA10BD684E002000000240830C0020DD
:10BD0000860C0020820C002010B5184808210DF088
:10BD10000BFA174B00201978FFF7C0FE08211348D3
:10BD20000DF000FA4FF4FA7002F0B0FF0F4808214E
:10BD30000DF0FAF900240F480188A14208D904F156
:10BD40001003D8B202210134FFF7A8FEE4B2F2E7F3
:10BD5000094A00201178FFF7A1FE642002F096FF47
:10BD600002480821BDE810400DF0DCB90000024097
:10BD7000830C0020860C0020820C002038B522485D
:10BD800008210DF0D1F904200146FFF787FE0821B4
:10BD90001D480DF0C7F9012002F078FF1A4808216C
:10BDA0000DF0C2F904200121FFF778FE05200021E3
:10BDB000FFF774FE06202121FFF770FE0024072004
:10BDC0002146FFF76BFE1823B4FBF3F203FB12408E
:10BDD000C1B217290DD00134E4B2FF2CEFD10720F6
:10BDE0002146FFF75BFE08480821BDE838400DF00A
:10BDF00099B9062507200021013DFFF74FFE15F0F8
:10BE0000FF05F7D1E7E700BF0000024008B5A0201A
:10BE1000FFF736FE00F02000C1B20029F7D108BDBF
:10BE200038B504460D46164808210DF07DF9154B2E
:10BE300000201978FFF732FE21460920FFF72EFE79
:10BE400000240A20E1B2FFF729FE0F4841190B2018
:10BE5000095D0134FFF722FE362CF2D10820A02123
:10BE6000FFF71CFEFFF7D2FF084A00201178FFF70A
:10BE700015FE03480821BDE838400DF053B900BF56
:10BE8000000002408B0C0020BD7902088A0C0020C3
:10BE900038B5114B11481968884700241048A5018E
:10BEA0000268104821469047A9B2E0B20A4DFFF758
:10BEB000B7FF1E2002F0EAFE01342B680A489847BB
:10BEC000B4F5807FEAD1FFF71FFFFFF757FF29681E
:10BED0000648884738BD00BF684C0020BDB902083D
:10BEE0006C4C0020FAB90208FEB9020805BA020833
:10BEF000F0B55D4B044693F8CA0285B010B1F2EE7E
:10BF0000047A01E0DFED597A20EE270A60EEA70AF5
:10BF1000BDEEC01A564A11EE106AFDEEE01A138803
:10BF2000B6B211EE905A9E42ADB201D1002939D07D
:10BF300028B306F1630188B2C62833B218D80A21A3
:10BF400093FBF1F201FB123182EAE270A0EBE270A6
:10BF50000AB2002AB8BF52420090019202A80721FB
:10BF6000444A002BACBF20232D230FF07BFB0CE0B9
:10BF70000A2702A80721404A93FBF7F303E03F4A50
:10BF800002A8072133B20FF06DFB374890F8CD12AD
:10BF900090F8CC32009102A806210022FFF7A8FDFC
:10BFA000334B1E80304A92F8CE02002859D044B953
:10BFB00033490B783BB10C700294ADF80C4001236F
:10BFC00002E0002300E02346621E032A3BD82C48EF
:10BFD0002C4A0178A142014602D11088854232D014
:10BFE000214B0C7093F8CA12158029B305F1630236
:10BFF00090B2C6282BB218D80A2193FBF1F201FBAC
:10C00000123182EAE270A0EBE2700AB2002AB8BFF5
:10C0100052420090019202A807211B4A002BACBF9C
:10C0200020232D230FF01EFB0EE00A2402A8072177
:10C03000164A93FBF4F303E0154A02A807212BB23A
:10C040000FF010FB00E063B1074890F8CD1290F8B4
:10C05000CC328A1DD0B20090062102A80022FFF740
:10C0600047FD05B0F0BD00BF684E0020E7FB514022
:10C07000760100202CBA020838BA02083EBA02083B
:10C080007F0100207C01002044BA020850BA020857
:10C0900056BA0208000000002DE9F04F2DED048B88
:10C0A000DFED5D8AC0EEA88A87B0814603914FF02C
:10C0B0000008B0EE409A594B59485A4993F800A0ED
:10C0C0000A7818F800B0504608EE102AFCF714F968
:10C0D00007EE10BAB8EE470A044610EE100A0D46F5
:10C0E000FCF71CF902460B4600204F49FBF7B6FF50
:10C0F00000224E4BFCF766F945A3D3E90023FCF779
:10C1000061F9064619EE100A0F46FCF707F90246D8
:10C110000B4630463946FCF755F902460B46204699
:10C120002946FBF79DFF18EE103AC3EB0A0A00EE12
:10C1300090AAF8EEE07A044628EEA71A0D4611EE12
:10C14000100AFCF7EBF80B46024629462046FBF79F
:10C1500087FFFCF7F9FB3649364D0A7801EE902A45
:10C1600000EE100AF8EE480AB8EE611A0AF024FD53
:10C17000BCEEC02A122612EE100A18F80530C4B21E
:10C18000B4FBF6F69E4208D00020CDF800B00121A5
:10C190000246FFF7ADFC08F805601223B4FBF3F18B
:10C1A00003FB114206A8234B803A00F8052D18F82E
:10C1B0000330CDF800B00121002208F10108FFF79B
:10C1C00097FCB8F1060F7FF476AF1B48017849451C
:10C1D00001D1039AA2B14FEA4903D8B2174B411CCF
:10C1E000821C0E208DF814108DF815201B780090FD
:10C1F000022105A80022FFF77BFC0F4981F800907F
:10C2000007B0BDEC048BBDE8F08F00BFAFF300803A
:10C21000666666666666F63FDB0FC93EA8150020B7
:10C22000BCBA0208A915002000002D4000002840DB
:10C23000AB150020AC0C002074010020AE150020CE
:10C24000DFED997A2DE9F047C0EEA70A974B984A9F
:10C250000746884600242DED028B15781878411B7F
:10C2600007EE101AB0EE408AB8EEC70A03EE105A75
:10C2700020EE801A86B0FDEEC11AF8EE430A11EEE8
:10C28000906A83198B48049402788DF8144002EE6A
:10C29000103A02EE902AB8EEC20AB8EE621A0AF01C
:10C2A0008BFCFCEEC03A122313EE905AE9B28DF8E3
:10C2B0001050814DB1FBF3F603FB16102B78F6B24C
:10C2C0008038B3428DF80A000FD007220092204632
:10C2D00001212246FFF70CFC16212B780091204605
:10C2E00001212246FFF704FC2E70DFF8CC916F4E3F
:10C2F00099F80030072400940DF10A000121002272
:10C30000FFF7F6FB162099F80030009001210DF19F
:10C310000A000022FFF7ECFB9FED684A28EE048A32
:10C32000F3EE0E4A28EE245A3378624CFDEEC55ADD
:10C33000207815EE905A5A1B5D4D297806EE102A8A
:10C3400006EE901A07EE900AF8EE660AB8EE671A43
:10C35000B8EEC60A0AF030FC9FED597AFCEEC00A2E
:10C3600028EE070A10EE903ABDEEC08A32788DF8BA
:10C37000133018EE101A5FFA83FA501A2B782278CD
:10C3800001EE900A02EE103A01EE102AF8EE420A8F
:10C39000B8EEE10AB8EE411A0AF00EFCFCEEC02A33
:10C3A000337812EE901A5A00C8B223788DF8141020
:10C3B000111A287803EE101A03EE900A04EE103AD0
:10C3C000F8EE630AB8EE441AB8EEC30A0AF0F4FBBA
:10C3D00036782D7824787100FCEEC04ACAEB010053
:10C3E00005EE905A06EE104A05EE100A14EE902A59
:10C3F000B8EEC50AF8EE650AB8EE461A8DF81120B7
:10C400000AF0DAFBFCEEC06A4D4616EE903A0024C4
:10C410008DF8123006AA16196B7816F8076C4FF0D3
:10C42000120CB6FBFCF94B4509D02649605C009024
:10C43000002001210246FFF75BFB85F801901223E3
:10C44000B6FBF3F203FB126106A81E4A15F8013F82
:10C45000803900F80D1DA15C0022009101340121FA
:10C46000FFF746FB042CD5D117480378BB4202D115
:10C47000B8F1000F12D07A00D1B2144A481C8B1CBC
:10C480000E218DF80C008DF80D3003A81378009163
:10C4900000220221FFF72CFB0B48077006B0BDEC11
:10C4A000028BBDE8F08700BFDB0F493FAA150020D3
:10C4B000AC150020AD150020900C00203333B33FA5
:10C4C0000000584228BA02087E010020AE15002064
:10C4D000DFED347A20EE270A7FB5FDEEC00A4FF477
:10C4E000B47310EE904A064620B290FBF3F203FBC1
:10C4F00012018CB220042C4848BFE418038848BFBE
:10C50000A4B29C4201D1002E4AD0284D95F8D122E8
:10C510007AB10621264A23B202A80FF0A3F895F8B3
:10C52000D31295F8D232009102A805210022FFF71C
:10C53000DFFA1E4890F8D432002B2FD00A2221B205
:10C5400091FBF2F0184983B2B1F9000090FBF2F2CE
:10C5500059B250B2814200D106B3DDB26B1FDBB2DB
:10C56000190644BF05F11F03DBB200215AB2114D79
:10C570001148AA5C0133DBB20A545DB20131232DAC
:10C58000C8BF00230B29F1D1084D95F8D53295F895
:10C59000D6520022C2720095FFF7AAFA02490C8017
:10C5A0007FBD00BFE02E654288010020684E00205C
:10C5B0005CBA020898BA0208A00C002070B52DEDF4
:10C5C000028B574B574A5849054693ED007A574816
:10C5D00092F8D7320E8884B090ED008A002B47D0B5
:10C5E000F2EE047A27EE270A5148FCEEC00A90EDDD
:10C5F000002A10EE904AE4B201EE104AF8EEC11A99
:10C60000F4EE421AF1EE10FA00D18DB30A21B4FB18
:10C61000F1F301FB1342D0B207210090454A02A872
:10C620000FF020F83F493E4A91F80C3391F8D902B7
:10C6300002EE903AD2ED003AB8EE623AD1EDC44A39
:10C6400083EE834A91F8D83200904FF0070102A898
:10C65000B4EEE44AF1EE10FA54BF00220122FFF7D3
:10C6600047FA05EE104A3249F8EE455AC1ED005A34
:10C670002C4B93F8DA22002A4ED093F8F0020028CF
:10C680004AD0B2EE046A28EE068A2B49BCEEC88A6C
:10C69000D1ED007A18EE104AE4B206EE904AB8EEF8
:10C6A000E67AB4EE677AF1EE10FA01D1002D33D0BC
:10C6B000632C12D91C4B198800EE101AF8EE400AB0
:10C6C00010EE900AFBF72AFE1C4ACDE90001234632
:10C6D00002A80C210EF0C6FF0CE00A22B4FBF2F314
:10C6E00002FB1340C2B28DE8440002A80C21144A98
:10C6F0000EF0B8FF0B48104A90F8DC1290F8DB32CD
:10C7000001EE104AF8EE411A02A8C2ED001A00919B
:10C7100000220B21FFF7ECF904B0BDEC028B70BDD9
:10C72000D44C0020684E0020B44C0020D04C002097
:10C730007801002062BA0208840100206CBA020865
:10C7400077BA020830B5124B124A1B781178994219
:10C7500085B000D1C8B105210F4A0D4C02A80EF0DA
:10C7600081FF0E48227890F8025390F8E21290F878
:10C77000E13200910521954294BF0022012202A8D6
:10C78000FFF7B6F92278034B1A7005B030BD00BF31
:10C790000E0F0020950C002086BA0208684E00207B
:10C7A0001FB51949194B0A8807EE102AD3ED037AF1
:10C7B000B8EEC70AF4EE407AF1EE10FA00D108B3F1
:10C7C000F6EE000A27EEA01A0521FCEEC11A104A67
:10C7D00011EE903A02A89BB20EF044FF0D4890F87B
:10C7E000DF1290F8DE32009102A800220421FFF748
:10C7F0007FF9064A044B92ED032AFCEEC22A12EEA0
:10C80000900A188005B000BDB20C00208C020020F8
:10C8100067630208684E00201FB51B4B1A780AB9DF
:10C82000002930D0194A14681CB1031B184CA342CC
:10C8300001D910600023174C22689B18236008B1AF
:10C84000124A10601448B3FBF0F39AB2134B1888E5
:10C85000904200D1B9B13C211A80B2FBF1F301FB47
:10C86000132290B2009007210D4A02A80EF0FAFEA2
:10C870000C4991F8E52291F8E432009202A80621D1
:10C880000022FFF735F91FBDD30E00209C0C0020BD
:10C89000305705008C0C002040420F008001002022
:10C8A0008DBA0208684E002070B5494B93F8C82233
:10C8B00005460C46002A00F089804648016811F0C0
:10C8C000802F00D184B193F8CB621EB9404B93F80E
:10C8D000CE224AB14048414990ED0F0ADFED400AAF
:10C8E00008782146FFF704FB3A4E336813F0553FB2
:10C8F00000D1DCB1364890F8CF2252B13648394ADF
:10C9000090ED060AD0ED070A21461078FFF7C4FB28
:10C910000CE090F8D01249B12F4E324B96ED060A3A
:10C92000D6ED070A18782146FFF78AFC29490E68D8
:10C9300016F0203F00D164B1254B93F8D10210B915
:10C9400093F8D4222AB12849204691ED000AFFF736
:10C95000BFFD204E336813F0801F00D13CB11C484E
:10C9600090F8E3221AB128462146FFF755FF3568B3
:10C9700015F0082F00D14CB1154991F8D73213B9F1
:10C9800091F8DA0210B12046FFF718FE114D2A681F
:10C9900012F04A3F00D134B10D4991F8DD3213B1A4
:10C9A0002046FFF7FDFE286810F0801F00D134B14B
:10C9B000074A92F8E01211B12046FFF7C3FE054B7B
:10C9C000186842001A600AB90121196070BD00BFE1
:10C9D000684E0020980C0020284E0020D50E002024
:10C9E00000000000D00E0020945100202DE9F043FB
:10C9F0009DB04FF400551595A348A44DA44B0F903E
:10CA00004FF4806100244FF400624FF0100913913D
:10CA100028460DA94FF480764FF4003714920E93F8
:10CA20000D941094129416961797189419941A94BA
:10CA30001B94CDF844900CF013FA284601210CF019
:10CA400039FA944894490E90303D0F274FF0007307
:10CA50000F9128460DA90D9311970CF001FA284665
:10CA600001210CF027FA4FF0030801A98B488DF83B
:10CA700009408DF80A408DF80B40CDF804808DF800
:10CA800008800CF0FDFA3D2201A9854801924FF47F
:10CA900080360CF0F5FA03A80394049605940694E6
:10CAA0000CF0D6F8079409940A940B947D4C7E4DB3
:10CAB0008DF830900126204607A98DF820608DF86A
:10CAC00021600CF09FF8284607A98DF830700CF013
:10CAD00099F820460821324607230CF0D6F8204664
:10CAE0000C21022207230CF0D0F820460D214246EB
:10CAF00007230CF0CAF820460A21042207230CF071
:10CB0000C4F820460821052207230CF0BEF8204671
:10CB10000C21062207230CF0B8F8072220460D212D
:10CB200013460CF0B2F820460A21082207230CF025
:10CB3000ACF820460821092207230CF0A6F820466D
:10CB40000C210A2207230CF0A0F820460D210B220D
:10CB500007230CF09AF820460A210C2207230CF038
:10CB600094F82046082107230D220CF08EF8204669
:10CB70000C210E2207230CF088F820460D213A469E
:10CB800007230CF082F84A46072320460A210CF0BE
:10CB90007CF8204631460CF0D4F8204631460CF0A3
:10CBA000C7F8314620460CF067F820460CF0BBF879
:10CBB00028460E21324607230CF067F82846092143
:10CBC000022207230CF061F8284639464246072323
:10CBD0000CF05BF828460E21042207230CF055F8D0
:10CBE00028460921052207230CF04FF8284639462C
:10CBF000062207230CF049F80E2107222846134687
:10CC00000CF043F828460921082207230CF03DF8D0
:10CC100028463946092207230CF037F828460E210A
:10CC20000A2207230CF031F8284609210B2207239A
:10CC30000CF02BF8284639460C2207230CF025F877
:10CC400028460E210D2207230CF01FF82846092143
:10CC50000E2207230CF019F83A46072328463946D6
:10CC60000CF013F8284631460CF06BF82846314694
:10CC70000CF05EF8284631460BF0FEFF28460CF01B
:10CC800052F81DB0BDE8F083D20C00207064024061
:10CC90004C2001404C210140B40C00200004024013
:10CCA0000008024000200140002101401C4B1918DF
:10CCB000831E022B11F8012C16D81346002102F115
:10CCC0000C00984207DB174830F8130003330918AB
:10CCD00089B2DBB2F3E707EE901AB8EE670AF1EE1D
:10CCE000040A80EE200A7047012802D00538022885
:10CCF00012D81346002102F10C00984207DB0A48C3
:10CD000030F813000433091889B2DBB2F3E700EE00
:10CD1000101ABBEECF0A70479FED040A704700BFA0
:10CD2000C2BA0208B40C0020D20C0020000000009F
:10CD300010B50B4C94F8E602FFF7B8FFDFED097A67
:10CD400094EDBA7A60EE270A94EDBB0A00EE870AEA
:10CD5000DFED050AB1EE0C1ABDE8104009F02CBF5A
:10CD6000684E00203333533A00000000884206D258
:10CD700050F8042B92FAA2F2014B1A60F6E77047C2
:10CD80000030024070B506460D464FF48050012138
:10CD9000084C0CF00BFB0123A36000BF00BF00BFD9
:10CDA00000BF30462946FFF7E1FF206890FAA0F166
:10CDB000C84370BD00300240524B984213B548D171
:10CDC0000120C024022200238DF804008DF8060003
:10CDD00069464D4800948DF805208DF807300CF019
:10CDE0004FF9214648480CF09DF908244648402157
:10CDF0000CF092F918B9032001F02CFFF6E740215E
:10CE000041480CF091F9032001F024FF40213E48F5
:10CE10000CF088F9032001F01DFF611E11F0FF04E2
:10CE2000E4D1802138480CF07FF9032001F012FF93
:10CE3000402135480CF078F9032001F00BFF402128
:10CE400031480CF06FF9032001F004FF2E488021D7
:10CE500052E02E49884254D101204FF4406402220E
:10CE600000238DF804008DF80600694626480094DA
:10CE70008DF805208DF807300CF002F92146224884
:10CE80000CF050F9082420484FF480610CF044F96C
:10CE900018B9032001F0DEFEF5E74FF480611A486F
:10CEA0000CF042F9032001F0D5FE4FF480611648E2
:10CEB0000CF038F9032001F0CDFE611E11F0FF04E3
:10CEC000E1D14FF4006110480CF02EF9032001F07D
:10CED000C1FE4FF480610C480CF026F9032001F0EC
:10CEE000B9FE4FF4806108480CF01CF9032001F0F2
:10CEF000B1FE05484FF400610CF014F9032001F075
:10CF0000A9FE1CBD0054004000040240005800402F
:10CF10002DE9F74F9F4C2068838A9BB213F00102E2
:10CF200039D0028822F4006319040A0C028001211E
:10CF30000CF0DCF99849994B0A7800201870DAB1A6
:10CF4000974803781BB997490A78FF2A14D101231F
:10CF5000037095480178022906D18E4A1368188813
:10CF600081B241F400621A80904B8A4819780068B7
:10CF700001220CF0B3F935E18C48864B0178186832
:10CF800000220CF0ABF987490A78FF2A00F02A81C9
:10CF9000FF20824BE4E003F00201C9B2002943D034
:10CFA000BFF35F8F804D2E78012E354619D17A4917
:10CFB0000B78B3B17A490B789BB111460CF096F916
:10CFC000BFF35F8F2068028B3146D3B28DF80730F4
:10CFD0000CF078F9764920680E7032464FF4806183
:10CFE000FEE0028BD1B28DF80710BFF35F8F6E4B5E
:10CFF0001A78022A09D168490A7832B168490A7850
:10D000001AB100210CF072F9E5E01B78032B07D16F
:10D0100061490A7822B1624B1978002940F0DD801D
:10D020004FF480610122DBE003F00406F6B2002E2B
:10D0300071D0594BDFF878811A78594B012688F85E
:10D040000060002A4DD01A78002A4AD0564D2F7819
:10D05000524D022F574F29D90CF048F995F80090FE
:10D060002068D7F800A00CF04FF94FFA89FB314641
:10D070000AF80B0009EB0600287020680CF022F972
:10D0800088F80060206895F800803F680CF03CF953
:10D090004FFA88F94FF4806107F80900B04420681E
:10D0A00085F8008032460CF032F92BE031460CF066
:10D0B00009F92E782068D7F800800CF025F94FFA8E
:10D0C00086F9731C08F80900D9B220683F682970F6
:10D0D0004FFA81F80CF018F9033607F808002E70A3
:10D0E00010E01B78012113B9334A13782BB10CF0EF
:10D0F000E9F82A480278511C03E00CF0D7F82848D8
:10D1000001210170234A11680B8803F4807082B2F8
:10D11000002AF9D166E003F040010F461F4D09B324
:10D12000244B2F78D3F800800CF0EEF84FFA87F9F3
:10D1300008F80900781CC1B229701B4D4FB22A783B
:10D140000337BA4205D120684FF4806132460CF0B3
:10D15000DEF8124B28781A7851B2884242D1501C1E
:10D1600018703FE01B063DD52B785EB2721C27D0AD
:10D1700012490A680133915D2B700CF0C3F80A481C
:10D1800095F90020017891422CD120684FF48061FC
:10D190003A4625E00C0D0020080D0020100D00205F
:10D1A000F50C0020F40C0020F60C0020120D0020DD
:10D1B000F20C0020FC0C0020F30C0020040D0020D9
:10D1C000154A297011780CF09DF81448017811B9AE
:10D1D000134B1A7832B9134800684FF4806100226B
:10D1E0000CF095F80E49104A0B7892F90000591C82
:10D1F00088420ED10D480E4B017800221A7029B1D9
:10D20000084B4FF4407118680CF081F8094800226F
:10D210000270BDE8FE8F00BFF40C0020080D002056
:10D22000F60C00200C0D0020100D0020F20C002048
:10D23000F50C0020110D0020FFF76ABEFFF768BE55
:10D24000F0B5544B984289B004464CD1FFF7B4FD79
:10D250005148524F062104220BF06CFF0226042293
:10D260004D480721C0250BF065FF02958DF80C6035
:10D2700000258DF80D6048488DF80F50012602A951
:10D280008DF80E600BF0FCFE2A464FF440712046EC
:10D290000CF03DF820460BF065FF4FF480414BF653
:10D2A000FF73ADF81C10204604A9ADF816300497A2
:10D2B000ADF81450ADF81850ADF81A500BF080FFCF
:10D2C000204631460BF0E6FF20208DF8040001A82F
:10D2D0008DF805508DF806508DF807602F460BF03D
:10D2E0005BFC1F224FE02E49884251D1FFF764FDBD
:10D2F00029482A4F0A2104220BF01CFF26480B2143
:10D3000004220BF017FF4FF4406000250222012693
:10D31000029002A920488DF80C208DF80D208DF880
:10D320000E608DF80F500BF0ABFE2A464FF44071A3
:10D3300020460BF0ECFF20460BF014FF4FF4804129
:10D340004BF6FF73ADF81C10204604A9ADF816305B
:10D350000497ADF81450ADF81850ADF81A500BF012
:10D360002FFF204631460BF095FF22208DF8040058
:10D3700001A88DF805508DF806508DF807602F46EE
:10D380000BF00AFC212201A88DF804200BF004FC0C
:10D3900009B0F0BD0054004000040240801A0600AD
:10D3A0000058004038B5274D049C28604900264DA0
:10D3B000C9B2297025490A70254A002111702549F2
:10D3C00001220A7024490C6024490C6024490B7026
:10D3D000244B1A70828802F400718BB2A3B90288C0
:10D3E00002F480718BB243B9028802F400718BB2EF
:10D3F000002BF9D101210BF059FF12484FF4407175
:10D40000006801220BF083FF47F23053154A117870
:10D4100011B1013BFAD100E093B90A48124A006801
:10D42000904201D1114B03E01149884204D1114BC4
:10D430001A88511C8AB21A80FFF702FF002038BDFB
:10D44000012038BD0C0D0020120D0020F40C00202E
:10D45000F30C0020080D0020FC0C0020040D00201F
:10D46000F60C0020110D002000540040000D00209B
:10D4700000580040F80C00207FB52E4D089C286015
:10D480004900CEB22C4D2D492E700A702C4A2D4EDB
:10D490002D4D01211170002232700DEB02062E601D
:10D4A0002A4D2E602A4D2B702A4D102B29703BD807
:10D4B000D1B2994204D2A15C0DF802100132F7E713
:10D4C000838803F4007291B2A1B9038803F48072D7
:10D4D00091B241B9038803F4007291B20029F9D1E5
:10D4E00001210BF0E3FE13484FF440710068012264
:10D4F0000BF00DFF47F23053164A117811B1013B82
:10D50000FAD100E093B90B48134A0068904201D168
:10D51000124B03E01249884204D1124B1A88511C65
:10D520008AB21A80FFF78CFE002000E0012004B0D0
:10D5300070BD00BF0C0D0020120D0020F40C002067
:10D54000F30C0020080D0020040D0020FC0C00202E
:10D55000F60C0020110D002000540040000D0020AA
:10D5600000580040F80C00201FB504AC04F8013D41
:10D5700001230094FFF780FF04B010BD37B5244CA1
:10D580002068838A99B20091009A12F4E06F32D039
:10D59000038B99B2019100224FF480610BF0B7FE2A
:10D5A0000098820527D42068028802F4007399B29B
:10D5B00009BB058805F4807295B29DB1038803F418
:10D5C00080718AB2002AF9D101210BF07BFE10484C
:10D5D0000068038803F400718AB2002AF9D1FFF7CA
:10D5E0002FFE08E001210BF06DFE20684FF4407122
:10D5F0002A460BF08CFE064801688B8A23F4706281
:10D600001004030C034A8B82002111703EBD00BF41
:10D610000C0D0020110D0020FFF7B0BFFFF7AEBFCB
:10D62000F7B5194C194D00206323012702268DF808
:10D6300006008DF807006946204600938DF80470B7
:10D640008DF805600BF01CFD90210091284669467D
:10D650000BF016FD204620210BF066FD20464021F0
:10D660000BF062FD284680210BF05EFD2046394616
:10D670000BF05AFD204631460BF056FD284610218E
:10D680000BF052FDFEBD00BF00100240000C024036
:10D690002DE9F04106218AB003225F485F4EDFF892
:10D6A00090810BF047FD072103225B480BF042FD00
:10D6B0000821032258480BF03DFD0921032256485A
:10D6C0000BF038FD0F21012255480BF033FD0321EB
:10D6D000012254480BF02EFD0421022251480BF088
:10D6E00029FD022205214F480BF024FD00244FF4B0
:10D6F000004302274A48009369468DF804708DF86C
:10D7000005708DF806408DF807400BF0B9FC382005
:10D710000090694643480BF0B3FC4FF470710091E0
:10D720003D4869460BF0ACFCB6F8D020ADF810408F
:10D7300098FBF2F5ABB2581E29210390ADF8081002
:10D740004FF0804002A9ADF80A408DF812400BF06E
:10D750004DFF354802A90BF049FF70254FF480704A
:10D760004FF4FA63ADF81450ADF8240001254FF0E2
:10D77000804005A90793ADF81650ADF81840ADF8F4
:10D780002070ADF82240ADF826400BF087FF4FF037
:10D79000804005A90BF0BAFF234805A90BF07EFFD6
:10D7A000214805A90BF0B2FF1F4805A90BF0F2FFB5
:10D7B0001D4805A90CF030F84FF0804029460BF0C9
:10D7C00060FF194829460BF05CFF294616480CF00B
:10D7D000F6F896F8E81061B9B6F8F020D6ED3E7A82
:10D7E00098FBF2F3BCEEE70A98B2411E8DED070AF2
:10D7F000039102A90D480BF0F9FE05A90B480BF0A7
:10D800004DFF05A909480BF081FF084801210BF0E5
:10D8100038FF0AB0BDE8F08100080240684E0020E1
:10D8200000000240000402400004014000040040E7
:10D8300080841E00024B53F820000160704700BF37
:10D84000CCBA0208F0B5324D02218BB028460A4608
:10D850000BF070FC2846012102220BF06BFC022227
:10D86000284600210BF066FC0024072302272846E7
:10D87000694600938DF804708DF805708DF80640A8
:10D880008DF807400BF0FCFB2248234AB0F8D21079
:10D89000ADF8104092FBF1F6B3B2A5F5FA35581E7B
:10D8A00029210390ADF80810284602A97026ADF88A
:10D8B0000A408DF812400BF099FE4FF4807040F64C
:10D8C000B833ADF81460ADF824000126284605A948
:10D8D0000793ADF81660ADF81840ADF82070ADF8BC
:10D8E0002240ADF826400BF0D9FE284605A90BF0E2
:10D8F0000DFF284605A90BF04DFF284631460BF0D9
:10D90000C0FE284631460CF05AF80BB0F0BD00BFFF
:10D9100000000240684E002080841E00024B53F835
:10D9200020000160704700BFECBA020848F2040012
:10D93000002107F0A7BB00000F4808B5838903F05A
:10D9400020018AB2002A16D0038803F020018AB28F
